:020000041000EA
:1000000000B5324B212058609868022188439860DF
:10001000D860186158612E4B002199600221596106
:100020000121F02299502B49196001219960352056
:1000300000F044F80222904214D00621196600F024
:1000400034F8196E01211966002018661A6600F04E
:100050002CF8196E196E196E052000F02FF8012189
:100060000842F9D1002199601B49196000215960AB
:100070001A491B48016001219960EB211966A021F2
:10008000196600F012F800219960164914480160C1
:100090000121996001BC002800D000471248134993
:1000A000086003C880F30888084703B5996A0420EC
:1000B0000142FBD001200142F8D103BD02B5186610
:1000C0001866FFF7F2FF186E186E02BD00000240BE
:1000D000000000180000070000035F00212200005C
:1000E000F4000018222000A00001001008ED00E03C
:1000F00000000000000000000000000074B24E7A12
:1001000000200420F7010010CB010010CD010010E9
:10011000C9010010C9010010C9010010C901001077
:10012000C9010010C9010010C9010010CF01001061
:10013000C9010010C9010010D1010010D301001045
:10014000C1010010C1010010C1010010C101001067
:10015000C1010010C1010010C1010010C101001057
:10016000C1010010C1010010C1010010C101001047
:10017000C1010010C1010010C1010010C101001037
:10018000C1010010C1010010C1010010C101001027
:10019000C1010010C1010010C1010010C101001017
:1001A000C1010010C1010010C1010010C101001007
:1001B000C1010010C1010010C1010010C1010010F7
:1001C000EFF30580103800BE00BE00BE00BE00BECA
:1001D00000BE00BEF2EB88713CE40D1060E40D102F
:1001E0003802001090A31AE71E481F49086006C88D
:1001F00081F3088810471D480068002801D019487D
:10020000F3E70DA40ECC002902D000F012F8F9E7B4
:100210001749184A002000E001C19142FCD116495B
:100220008847164988471649884700BEFDE701C937
:1002300001C29A42FBD3704760E40D10E000002039
:1002400070320020F0150E10000004200000042081
:10025000F0150E1000100420001004200000000013
:10026000704700000000000008ED00E0000000D032
:1002700070320020EC160120B5A500103D230010BF
:1002800075A50010F8B5C04606480749091A8B1035
:10029000C90FC91810B5491003D0044B002B00D06A
:1002A000984710BD7032002070320020000000001E
:1002B000054B10B5002B03D00449054800E000BFF2
:1002C000FFF7E2FF10BDC0460000000074030120EC
:1002D00090F20610704730B585B004000D004368F9
:1002E000C268D31A8168CB1A009201939D4201D84B
:1002F00005B030BD8D420DD803681B689847626811
:10030000E1688A1AA3689B1A029103939D4201D85F
:100310002000EDE70020EBE7C3685B18C36070477F
:1003200010B506483DF0C4FE05483DF0C1FE054845
:100330003DF0BEFE04483DF0BBFE10BDA0380020DD
:100340007039002000370020D037002010B5111E72
:1003500003D104480AF08CFA10BD03480AF0B8FA39
:10036000FAE7C04690F20610B8F2061010B5030086
:1003700000681A000832904203D09968013108F0F1
:100380007FFF10BDF0B5C64600B50C000E004E4311
:10039000884637004F437C43012580450BD8B04247
:1003A00008D3B8420BD3A0420BD3210008F03EFA89
:1003B0000435F2E70135280080BCB846F0BD0235AF
:1003C000F9E70335F7E7F0B583B01400150055439E
:1003D0002B00534301931E005643012700290CD0E4
:1003E00000290DD0019B002910D0002912D0320025
:1003F000002308F059FA0437F0E78442F0D902E00C
:100400008542EFD90137380003B0F0BD8342ECD903
:100410000237F8E78642EAD90337F4E7C368044AAB
:100420001340C3600A32FF321343C3607047C046B3
:10043000FBFEFFFF8B000168C91801607047F0B533
:1004400083B006001700091A8D1000E02500002D6A
:100450000FDD6C1001960022210001A8FFF7EAFFD2
:10046000019B39681A689142F0D31E1D2C1B013C78
:10047000ECE7300003B0F0BD10B582B001908823E6
:100480005B01984202D2012002B010BD0849094B1D
:10049000CC18002301AA2000FFF7D1FF031B9A10FC
:1004A000DB0FD21801201040C01A0130ECE7C04623
:1004B000CC880710E0FCFFFF10B582B00190A8289F
:1004C00002D8002002B010BD0649074BCC1800230B
:1004D00001AA2000FFF7B3FF001B8010C007C00F68
:1004E000F0E7C046F064071090FDFFFF10B5040070
:1004F000037A032B07D0012B11D00A2A04D0042A37
:1005000000D00323237210BD022B01D10123F9E790
:100510000068FFF7D1FF00280CD10323F2E7002A7F
:1005200001D00323EEE70800FFF7C6FF002803D140
:100530000323E7E70123E5E70223E3E770B51300B0
:10054000046894420AD9A21A4568E8189C4208D067
:1005500063F0EAFC002807D0401B70BD0120404238
:10056000FBE701204042F8E701204042F5E730B5C3
:100570004368026831CB31C21B68136030BD10B5CF
:1005800003681B6842681268934204D01B787D2B75
:1005900001D0002010BD8068FFF7E9FF0120F9E7D6
:1005A00030B585B00F4B039306F026FA041E0E4BB0
:1005B000186012D00D4D1C220021280008F044FEC6
:1005C0000B4B2B600B4B0195002200920A4A03A9AA
:1005D000200006F019FA05B030BD08480AF048F9C5
:1005E000F9E7C0460A0000EAB0530020B4530020E7
:1005F00000F306104D0300105B070000E0F2061048
:1006000070B582B0214E224C310020000DF0CCF9A3
:1006100003210E2006F0EEFB03210F2006F0EAFB7B
:1006200000220121022006F0FFFB0022012103200D
:1006300006F0FAFB17480023037200943C33402273
:10064000802105F0C7FA0321102006F0D3FB032117
:10065000112006F0CFFB00220121102006F0E4FB60
:1006600000220121112006F0DFFB0B4D3100280094
:100670000DF09AF9094B0A4C7622290020001BF054
:100680000DFA20001BF0B8FA02B070BD801A060007
:1006900078210020F85D002080210020940D0B10AF
:1006A0005852002010B582B00068064C01900093AB
:1006B0000123200005F095FB200005F0B7FB02B0F8
:1006C00010BDC046F85D0020F0B5B5B007000E00C3
:1006D00014001449C92201A808F0BCFD013E11E034
:1006E0006421200008F0A2F84D006421200008F0E9
:1006F0009DF804006A1C01AB9A5CBA55721E5B5DE2
:10070000BB54023E632CEBD8092C08D96400621C50
:1007100001AB9A5C7A701B5D3B7035B0F0BD303434
:100720003C70FAE708F30610B0B507000C0008307B
:1007300038600B680D0008359D420AD03B608B681D
:10074000BB6063687B6025600023636023723800B0
:10075000B0BD4B685A1C0133F3D0290008F07AFD74
:10076000EFE70000F0B5CE46474680B5B7B080460B
:100770000E0014001D002949C92203A808F06AFDD3
:10078000731E994628E0642200232000290008F007
:100790008BF800920193009A019B16001F00B61877
:1007A0005F41642200232000290008F07DF8040046
:1007B0000D000122002392197B4103A882181278B0
:1007C000434649465A544A1E83191B7841468B5466
:1007D00002235B429C46E144002DD4D101D1632C1D
:1007E000D1D8002D02D115D1092C13D924196D416E
:1007F0000122002312196B4103A98A18127843467B
:100800005A700B191B784246137037B0C0BCB946FA
:10081000B046F0BD303443461C70F6E708F30610CE
:1008200010B50B68002B0DDB934205D952009342A3
:1008300002D20A60002A08DB0868013008D408F0F8
:100840000FFD10BD034830F01FF9034B0B60F3E7B9
:1008500030F0E2F8D4F30610FFFFFF7FF0B5C64694
:1008600000B584B006000D0017001C1E12D0180041
:1008700007F090FF2323181A83089C467B1B6345CF
:100880000AD36A46194B83CB83C21B681360634645
:100890005A1E12E02020EDE737608B2373601CE0C6
:1008A0000F231F00274020096946CF5DAF54034046
:1008B000240A501ECB5C2B54023AFF2CF0D80F2C8C
:1008C00010D90F23234024096A46D35C6B70135D53
:1008D0002B706544356000237360300004B080BC29
:1008E000B846F0BD6B461B5D2B70F2E7ECF30610CB
:1008F000F0B5C64600B506000C0090461F000A2160
:100900001800FFF73FFD050043461B1B83420CD335
:100910003A0001002000FFF7D7FE6419346000237D
:100920007360300080BCB846F0BD434633608B2313
:100930007360F6E7F8B506000D0017001C1E0CD01A
:10094000180007F027FF2223181A032107F06EFF73
:100950007B1B834203D3431E11E02020F3E7376063
:100960008B2373601AE0072211002140E708303121
:10097000E9543A40A409591E30326A54023B3F2CD4
:10098000F1D8072C0CD907232340E40830336B70CF
:1009900030342C702D183560002373603000F8BDA2
:1009A00030342C70F6E7F8B507000E0014001D1E59
:1009B0000AD0180007F0EEFE20231B1AA21B9A4251
:1009C00004D31F24241A0BE02020F5E73C608B237E
:1009D0007B600DE001222A40303232556D08013C27
:1009E000002CF7D131223270F6183E6000237B6074
:1009F0003800F8BDF0B5D6464F464646C0B58AB079
:100A00008146884615001C00129E31001800FFF731
:100A1000B9FC82464346EB1A83420AD3471E01A91A
:100A2000184B0A0023CB23C223CB23C223CB23C2E0
:100A300014E04B461D608B234A4653601AE0310098
:100A4000200007F0F3FE05003100200007F0EEFE65
:100A500001AB5B5C4246D355013F2C00A642EED968
:100A600001AB1B5D42461370434653444A46136034
:100A70000023536048460AB0E0BCBA46B146A846D7
:100A8000F0BDC04600F4061010B582B004009142DB
:100A90000AD0002B0CD130330B70013101600023E0
:100AA0004360200002B010BD02608B234360F8E772
:100AB00004980A280FD007DC022810D0082812D189
:100AC0002000FFF737FFECE7049810280BD1200037
:100AD000FFF7C4FEE5E72000FFF70AFFE1E720008B
:100AE000FFF761FFDDE7049800902000FFF782FF29
:100AF000D7E710B582B0040091420AD0002B0CD188
:100B000030330B700131016000234360200002B0DC
:100B100010BD02608B234360F8E704980A280FD0C9
:100B200007DC022810D0082812D12000FFF702FFAE
:100B3000ECE7049810280BD12000FFF78FFEE5E7C3
:100B40002000FFF7D5FEE1E72000FFF72CFFDDE7EF
:100B5000049800902000FFF74DFFD7E7F0B5D64688
:100B60004F464646C0B584B082460E0090460C9C67
:100B70000D9D23002B4314D02000290007F016FE02
:100B80004323181A83089C4643469B1B63450AD39C
:100B90006A46244B83CB83C21B68136063465A1E8C
:100BA0001AE04020ECE7534642461A608B23524637
:100BB00053602BE00F2027000740290723090B4330
:100BC0006946CF5DB75403402806240A04432D0A22
:100BD000501ECB5C3354023A002DEBD101D1FF2CD7
:100BE000E8D8002D02D118D10F2C16D90F2323409D
:100BF0002D0724092C436A46D35C7370135D337050
:100C0000664453461E60002352465360504604B06B
:100C1000E0BCBA46B146A846F0BD6B461B5D3370DA
:100C2000EEE7C046ECF30610F8B505000C0017001F
:100C30000A2206980799FFF7C6FB06003B1B834272
:100C40000BD3069A079B01002000FFF78BFDA41928
:100C50002C6000236B602800F8BD2F608B236B6035
:100C6000F9E7F8B5CE46474680B581460E00904676
:100C7000089C099D23002B430FD02000290007F07A
:100C800095FD4223181A032107F0D0FD8446434600
:100C90009B1B834203D3421E19E04020F1E74B46E1
:100CA00042461A608B234A46536029E00720210000
:100CB00001406F07E3083B433031B1540340A906BC
:100CC000A4090C43AD09511E30337354023A002D70
:100CD000ECD101D13F2CE9D8002D02D115D1072C40
:100CE00013D9072323406D07E4082C433033737076
:100CF0003034347066444B461E6000234A465360CD
:100D00004846C0BCB946B046F8BD30343470F1E74F
:100D1000F0B5C64600B507000E009046069C079D3C
:100D200023002B430CD02000290007F03FFD402179
:100D3000091A43469B1B8B4204D33F22121A0FE031
:100D40004020F4E743463B608B237B6010E00123A7
:100D500023403033B354EB0764081C436D08013A59
:100D6000002AF4D13123337076183E6000237B6073
:100D7000380080BCB846F0BDF0B5DE4657464E465A
:100D80004546E0B58DB0824689461700169E179DF0
:100D9000189C220030002900FFF715FB83464B46C4
:100DA000FB1A83420CD30300013B009303A91F4BA2
:100DB0000A0083CB83C283CB83C283CB83C21EE072
:100DC00053461F608B235246536026E0E317984634
:100DD00022003000290007F067FD01900F0022007B
:100DE00043463000290007F05FFD03AB9B181B78DA
:100DF0004A460099535401390091019E3D00002D4F
:100E0000E4D1B442E2D903AB9B5D4A4613704B4632
:100E10005B44524613600023536050460DB0F0BC53
:100E2000BB46B246A946A046F0BDC04600F4061037
:100E300030B585B004000898099B91420BD005009D
:100E40001D430CD130230B700131216000236360FE
:100E5000200005B030BD22608B236360F8E70A9D57
:100E60000A2D13D009DC022D16D0082D1AD10090BE
:100E700001932000FFF7F5FEEAE70A9D102D11D13E
:100E8000009001932000FFF769FEE1E700900193D5
:100E90002000FFF7C9FEDBE7009001932000FFF779
:100EA00037FFD5E70A9D0295009001932000FFF7D8
:100EB00063FFCDE7F0B583B006000F000C78012387
:100EC0005C40E4B204346A460E4B21CB21C2336845
:100ED000186803685B6821009847051E0FD0C0683A
:100EE0003B789B006A469958220008F0B3F92B68BA
:100EF0009B68210028009847736801221A7003B08C
:100F0000F0BDC046D088071070B504000D0003681E
:100F1000186803685B6801219847002809D02A787F
:100F2000C3681A7003689B680121984763680122AF
:100F30001A7070BDF8B5CE46474680B507000E68FA
:100F4000F30F9846002E22DB0A213000FFF71AFA31
:100F500005003B688146C144186803685B684946E0
:100F60009847041E0FD0C0682D2303704044320000
:100F70002900FFF7A9FB23689B6849462000984792
:100F80007B6801221A70C0BCB946B046F8BD7642F3
:100F9000DAE7F8B506000F680A213800FFF7F2F922
:100FA00005003368186803685B6829009847041EC9
:100FB0000ED0C0682D2303703A002900FFF784FB90
:100FC00023689B68290020009847736801221A70E3
:100FD000F8BDF0B5D6464F464646C0B505000A688E
:100FE0004B68D90F8946002B27DB16001F000A2209
:100FF00030003900FFF7E7F980462B68CA46C24443
:10100000186803685B6851469847041E10D0C06892
:101010002D230370484432003B004146FFF7A2FBFA
:1010200023689B685146200098476B6801221A701C
:10103000E0BCBA46B146A846F0BD10001900002732
:1010400046428F41D3E7F0B5C64600B580460E68EC
:101050004F680A2230003900FFF7B5F90500434612
:101060001B68186803685B6829009847041E10D045
:10107000C0682D23037032003B002900FFF772FB8C
:1010800023689B6829002000984743465B6801223B
:101090001A7080BCB846F0BDF0B583B006000F688A
:1010A000380062F07FFF04000090019733681868F1
:1010B00003685B6821009847051E0CD0C0682200B9
:1010C000390008F0C7F82B689B6821002800984772
:1010D000736801221A7003B0F0BD70B582B00500CC
:1010E0006B4611C911C32B68009E186803685B68C2
:1010F00031009847041E0CD0C0680199320008F0F6
:10110000A9F823689B683100200098476B6801228A
:101110001A7002B070BD000010B503000800920004
:1011200011498A5897461900FFF7C4FE10BD1900EF
:10113000FFF7EAFEFAE71900FFF7FCFEF6E71900F1
:10114000FFF727FFF2E71900FFF743FFEEE719006B
:10115000FFF779FFEAE71900FFF79EFFE6E71900BE
:10116000FFF7BBFFE2E7C046905E071010B5012A0B
:1011700004D0002A04D008F06DF801E00B78037069
:1011800010BD70B582B004000E00551A01950F2DE8
:101190000ED8009420682A003100FFF7E7FF0022F4
:1011A00000920199616023685B181A7002B070BDEB
:1011B000002201A9FFF734FB2060019BA360E8E750
:1011C00070B504000D0003000833036000290AD045
:1011D000080062F0E7FE2A18002329002000FFF72C
:1011E000D0FF200070BD01482FF036FC28F4061017
:1011F00030B583B0040001910368020008329A42BE
:1012000005D08268019B934203D803B030BD0F2202
:10121000F8E701A92000FFF703FB050021686268D9
:101220000132FFF7A3FF2000FFF7A0F82560019B24
:10123000A360EAE770B503000D1A2D1101E0103329
:10124000013D002D10DD18681468844226D0181D59
:101250005E68B44223D004309E68B4421FD004308C
:10126000DE68B442EBD11AE0C81A801002280AD016
:10127000032803D001280BD0080010E01C68106878
:1012800084420DD004331C68106884420AD00433B1
:1012900018681268904207D0080000E0180070BD7E
:1012A0001800FCE71800FAE71800F8E710B500236B
:1012B000FFF7C0FF10BD000030B583B005000191FD
:1012C000064C2000183801AA2100FFF7EFFF8442E6
:1012D00001D00123AB7203B030BDC0461C6B0710B8
:1012E000F0B5DE4657464E464546E0B585B00500AA
:1012F000884617001E003F2318003040334207D0B5
:1013000007F048FA2023181A103B0090444632E0B8
:101310002020F7E7398801910021884631148A4658
:1013200031B20291002081460021785EC0138446CC
:101330000299090C300C814235D1604681B2894551
:101340002AD169460420085E0299414388B281424D
:101350006FD189B239804046C00772D400208446DC
:10136000521891B28A4267D13A806246D20766D457
:101370002A6801322A602A68A24275D01278303A6F
:10138000D2B2B24200DB77E000995B1AC2D439884E
:10139000714352183A80EBE7019903914946684638
:1013A0000181B14609E0614689B289452BD1039696
:1013B00051466846018181888946B1B20198484307
:1013C0008446494688B2694609898A4601005046E2
:1013D00041430298000402D548460004091A4846D1
:1013E000000401D50398091A6046000C814649445F
:1013F00008B2000C8146080C814515D109046046ED
:1014000080B20143A2E7019971430120504480B2A8
:1014100001280BD8504680B2814502D1002995DCC5
:1014200004E0002992DB01E001997143012080462C
:101430008CE7012080468CE701218C4694E721004F
:1014400006E0210004E0002000E0002000280CD08D
:101450002A68531C2B608B42F5D05378303BDBB2AB
:10146000B342F2DA0120F1E7012005B0F0BCBB463F
:10147000B246A946A046F0BD0120F6E730B585B0DA
:10148000040001911100019D0E226A440023138083
:101490000A3301A8FFF724FF002808D0019B9D42D2
:1014A00005D00E226A4412882280636002E0002385
:1014B00023806360200005B030BD70B504000B7858
:1014C000302B11D018003138C0B2082816D8303B64
:1014D0009BB24D1C954204D048783038C0B20928E0
:1014E00008D92380656003E0013100230380416057
:1014F000200070BD2000FFF7C1FFF9E70023238023
:101500006360F5E710B582B0040043681A787D2A5D
:101510000CD03A2A25D1027B012A20D00222027364
:1015200001694A1C02610133436007E0037B012B20
:1015300013D00223037301694B1C036123685B68AA
:10154000200098476368A2689A422BD01A787D2AB7
:1015500028D10133636002B010BD5CF0EFFD5CF098
:10156000EDFD826819006846FFF7A7FF019B002B7D
:1015700010D01A787D2A01D03A2A0BD16A461188F8
:10158000227B022A08D0012222731A783A2A05D037
:101590006360D3E75CF0D2FD5CF0D0FD01330193D2
:1015A0006360CBE75CF0CAFDF0B5CE46474680B538
:1015B00089B00500426883689B1A00930192022B50
:1015C0000CD000227B216846FEF7B8FF06000022FF
:1015D0007D216846FEF7B2FF040043E013787B2BC1
:1015E000EFD153787D2BECD11300013343600368B6
:1015F0005B68027B012A06D00222027301694A1C41
:10160000026198473DE05CF099FD012300E0002372
:1016100059B200292ED01B0638D40134944200D18F
:1016200081E0019B1B5D7D2B00D07CE06F683F1942
:101630002B681B6839002800984701376F60AA683B
:10164000D21B06A906924F600822684607F002FEE8
:10165000731C01D0361B013E00227D216846FEF737
:101660006DFF0400009A002A0BD0A642CFD0CCD246
:10167000FF23CDE7A9682B681B6828009847AB6853
:101680006B6009B0C0BCB946B046F0BD731C934254
:101690002DD0621C27D0019AD35C98461A007B3A61
:1016A00053425A416F689219BF182B681B68390062
:1016B0002800984701376F60AA68D21B02A90292DE
:1016C0004F600822684607F0C5FD43467B2B10D1CA
:1016D000631C01D0A41B023C00227B216846FEF75C
:1016E0002DFF0600BEE7019AD25C7B2AD3D05CF0C6
:1016F00025FD2800FFF706FF6A68AB689B1A04A95E
:1017000004934A600822684607F0A4FD00227B216A
:101710006846FEF713FF060000227D216846FEF7AB
:101720000DFF04009EE75CF009FD000030B583B0BA
:101730000C00150002782549895C092903D97B2A08
:101740000FD003B030BD220001006846FFF796FEBF
:101750000198002803D06B461B882B80F1E75CF0D2
:10176000EDFC7A3A1A70411CA14210D043787D2BCF
:1017700011D1069B1B7A012B0BD00223069A137200
:10178000D3685A1C0698C2602B80481CD9E75CF0CD
:10179000D5FC5CF0D3FC22006846FFF78EFE019971
:1017A00000290FD0A1420DD00B787D2B0AD16B46BA
:1017B0001B88069A127A022A06D001220698027223
:1017C0002B80E2E75CF0BAFC5CF0B8FC80610710AB
:1017D00030B585B005000C0011000F226A440020CE
:1017E00010702278302A15D0AA1D00930F236B4465
:1017F0002000FFF79BFF84420AD00F236B441B7825
:10180000002B09D002226B7803218B4313436B70AA
:1018100005B030BD5CF092FC0122F4E770B586B0F3
:1018200004000D0068460092019302A90B0044C811
:1018300044C30B4B236004AE0822300007F00AFDBE
:10184000059B6360049A9B18A360002323732361A4
:10185000013B6361034B2360A561200006B070BDAE
:101860005461071078610710F0B5C64600B5C8B0DE
:10187000050000910192984646A919AE1DAF469702
:1018800080234B6004AC0822200007F0E3FC524B9D
:1018900019931AAA0ACC0AC21C97504B1993504BA1
:1018A00019939023F550043301225242F250002341
:1018B0009932B35018931895009B022B2BD04E9B56
:1018C000002B00D172E004AD10224146280007F041
:1018D000C1FC189E10AC10222900200007F0BAFCB1
:1018E00014964E9915A81AF00DFA0123237610AC20
:1018F00009AD009A019B21002800FFF78FFF280007
:10190000FFF752FE149D237E002B61D1280048B0C2
:1019100080BCB846F0BD019B1A787B2ACFD15B789A
:101920007D2BCCD100236C3A6A44137018AA4092E4
:101930000F226A44419242AA137243461B781B0746
:101940001ED043461B681B091F22134042AA137274
:1019500043469B681A685B684292439304AC10222A
:1019600042A9200007F076FC227A40A92000FFF768
:10197000D3FB0F236B441B78002BA0D0189DC5E729
:1019800043461B781B07E9D143461A6812091B79A5
:101990001B0713434246526812091343DED04346E5
:1019A0009968092242A807F055FCD7E704AD102238
:1019B0004146280007F04EFC189E10AC102229006A
:1019C000200007F047FC14960023237523768EE74A
:1019D00015A81AF08DFB99E7186107102C61071004
:1019E0006461071070B505000C00036808300968D1
:1019F000220008328A4211D098421FD0AE68296076
:101A000061686960A168A960002B19D02360A66095
:101A10000023636022681370280070BD6268A542CD
:101A2000F6D0002A06D162686A602B689B180022F3
:101A30001A70EDE71800FFF799FBF4E70023DEE7E3
:101A40002260E5E703685B180360704770B586B0F5
:101A5000049085680595691C81602B780F226A4483
:101A600001241470019002925AB2002A0BDB0F225B
:101A70006A44127882730022027303600123437365
:101A8000856006B070BDC12B00D88FE00469A1420B
:101A900000D18DE0DF2B13D81F221A4069780B008C
:101AA000803BDBB23F2B00D984E093013F220A4008
:101AB00013430F226A4402211170AA1C8260D6E7E8
:101AC000EF2B2FD8E02B2AD0ED2B25D08021BF265D
:101AD0000F221A406B7899426ED89E426ED30F2126
:101AE000694402260E70A91C81608C4268D0920164
:101AF0003F210B401A43A9780B00803BDBB23F2B00
:101B000060D893013F220A4013430F226A44032105
:101B10001170EA1C8260AAE780219F26D8E7A021E5
:101B2000BF26D5E7F42B4FD8F02B3CD0F42B37D081
:101B30008021BF2607221A406B78994246D89E42E0
:101B400046D30F21694402260E70A91C81608C4285
:101B500040D092013F210B401A43A9780B00803BF3
:101B6000DBB23F2B38D80F236B4401361E70EB1CC1
:101B700083609C4232D092013F230B401A43E978A4
:101B80000B00803BDBB23F2B2AD893013F220A4057
:101B900013430F226A44042111702A1D826066E7F4
:101BA00080218F26C6E79021BF26C3E70D4B5EE755
:101BB0000C4B5CE70B4B5AE70A4B58E7094B56E7CF
:101BC000084B54E7074B52E7064B50E7054B4EE7EF
:101BD000044B4CE7034B4AE7024B48E7014B46E70F
:101BE000004B44E7FDFF000070B50400037B591C67
:101BF000427B914203D0914216DB200070BD856884
:101C000000698542F7D020000830A17B0022FFF751
:101C100019FFA26823699A4203D02000FFF716FF3C
:101C2000EBE700232373E8E701332373E5E70000C4
:101C3000F0B5CE46474680B58FB081460C00150002
:101C40000B787B2B5FD007AB079108926A4681CB5C
:101C500081C28D4238D01700516091600023137308
:101C60005373937315611000FFF7F0FE09AB9846AC
:101C70003A0043CA43C303CA03C33800FFF7B4FFA3
:101C800043461B7B9B0042469A58D8231B029A422C
:101C900014D2049B9D4217D019783E291DD05E298D
:101CA0001DD03C2910D101204946CA600A78032181
:101CB0008A43024349460A70581C1FE081214903A8
:101CC000134BD3188B42E4D323783E2B09D05E2BE1
:101CD00009D03C2B19D1012206E00220E4E70320C1
:101CE000E2E7022200E0032220234946CB600B7882
:101CF00003218B4313434A461370601C0FB0C0BCD2
:101D0000B946B046F0BD0800F8E72000F6E7C04647
:101D10000020FFFFF0B58DB007000D00160008ACE5
:101D200010220021200007F08FFA20230B93113B93
:101D30001A003240120161780B40134363706B68E4
:101D400007932B68069304AB0497059401A806AA91
:101D5000019207AA42608360FEF711FC002802D0BE
:101D600006980DB0F0BD079A069908A8FFF760FF26
:101D7000069001A8FEF703FC002809D1069A137803
:101D80002B2B07D02D2B2AD0202B0CD1032102E0A6
:101D90000698E6E7012108A8890003780C24A343EC
:101DA0000B4303700132069201A8FEF7E8FB0028FE
:101DB00017D1069B1A78232A15D0069301A8FEF79F
:101DC000DEFB002816D1069B1A78302A14D0069321
:101DD00001A8FEF7D4FB002815D00698C1E7022120
:101DE000D9E70698BDE708A90A78102002430A70CF
:101DF0000133E2E70698B4E708A90A7840200243D5
:101E00000A700133E3E7079A06992B0008A8FFF749
:101E1000DFFC069001A8FEF7B2FB00280BD1069B61
:101E20001A784C2A09D0069301A8FEF7A8FB0028CF
:101E30000AD0069895E7069893E708A90A78202023
:101E400002430A700133EEE7069A1378423BD9B297
:101E500036290CD88B002E49CB589F4608A84178CC
:101E60000F23194011330B4343700132069201A82E
:101E7000FEF785FB002849D0069872E708A841784C
:101E80000F23194021330B43437001320692EEE7D2
:101E9000002EECD008A841780F23194061330B4382
:101EA000437001320692E2E708A841780F231940F7
:101EB00001330B43437001320692D8E708A84178FA
:101EC0000F23194031330B43437001320692CEE7A2
:101ED00008A841780F23194041330B434370013266
:101EE0000692C4E708A841780F23194051330B43E9
:101EF000437001320692BAE7002EB8D108A94B7898
:101F00000F2003404B7001320692B0E75CF016F9E7
:101F1000C85E071010B5012A04D0002A04D05FF073
:101F20003FF801E00B78037010BDF0B5CE46474690
:101F300080B583B004000E00170099464068431A2C
:101F40009B1A98460A9B9C466044801A019023681D
:101F5000220008329A421BD0A26801A92000FEF795
:101F60005FFC0500002E15D14B46002B02D00A9BCA
:101F7000002B14D14346002B17D12000FEF7F6F9B1
:101F80002560019BA36003B0C0BCB946B046F0BD5C
:101F90000F22E2E721683200FFF7E8F8E4E7A8192A
:101FA0001A004946FFF7E2F8E4E70A9BF0182168B7
:101FB000F619891928184246FFF7D8F8DDE700001E
:101FC000F0B5C64600B584B0040002930A9E456889
:101FD000531B2648844663449E4224D87719BF1A6F
:101FE000236820000830984220D0A068B84236D339
:101FF00058188046691A891A02980390984202D3A9
:102000005B19984214D9002901D0B24218D1002E90
:102010001FD167602368DB1900221A70200004B00A
:1020200080BCB846F0BD12482EF02EFD0F20DDE733
:10203000019100960300414620003CF0BBF9E8E71F
:1020400013004344424690190A001900FFF762FF4B
:10205000DDE7320002994046FFF788F8D9E700969D
:10206000029B2000FFF761FFD3E7C046FFFFFF7F21
:102070005CF406108B000168C91801607047F0B568
:1020800083B006001700091A8D1000E02500002D0E
:102090000FDD6C1001960022210001A8FFF7EAFF76
:1020A000019B19683A689142F0D21E1D2C1B013C1D
:1020B000ECE7300003B0F0BD10B582B003010F248F
:1020C000234301930549064BC818002301AAFFF7D3
:1020D000D6FF04380068204002B010BDAC85071060
:1020E00070E5FFFF10B582B080000A4B984202D81D
:1020F000002002B010BD0324204301900649074B85
:10210000C818002301AAFFF7BAFF0438006820406E
:10211000EFE7C046010C0000046B0710ECF9FFFF6D
:1021200010B50C68A24207D8A41A9C4209D349688A
:1021300089180360416010BD0349044823002EF054
:10214000BBFC2300F3E7C04678F4061094F40610B5
:1021500070B582B004000B00416855180068260075
:102160000836B0420CD0A668AE4210D3002A09D17E
:10217000656023685B1900221A70200002B070BDF0
:102180000F26F1E740181900FEF7F0FFF0E7009284
:1021900000222000FFF7C9FEEAE7000010B54468FE
:1021A000044B1B1B9A4202D8FFF7D2FF10BD024816
:1021B0002EF06AFCFFFFFF7FC8F4061010B582B056
:1021C00004004168C268521A0091019204D0903014
:1021D000FFF7E4FF6368E36002B010BD30B583B081
:1021E00005000C004A68CB689B1A0092019307D146
:1021F000210090312800FEF797FA280003B030BD87
:102200000800FFF7DBFFF3E7F0B5D6464F4646463A
:10221000C0B5B6B0814602AE0291039234A90AACB1
:102220000EAF349780234B6006AD0822280007F0DC
:1022300011F81A4B0A930BAB2A0003CA03C30D977C
:10224000174B0A93174B9A460A93902330AAE250F1
:1022500000270433E7500433E75404AB984606CE16
:1022600006C310223EA9280006F0F4FF00972B00B9
:102270000499424652682000FFF7F6FA21004846CA
:10228000FFF7ACFF53460A932EA8FEF76FF84846B7
:1022900036B0E0BCBA46B146A846F0BD186107109A
:1022A0002C6107104061071070B598B0040004A8B5
:1022B0000491059212AD2A0042C842C21B78042143
:1022C000017206930AA8069A079B0A920B931C9B1D
:1022D0001B780693069A079B0C920D931D9B1B7807
:1022E0000693069A079B0E920F931E9B1B780693EC
:1022F000069A079B1092119314A90A780F239A4308
:10230000042632430A70149E1E400B4A3243149234
:102310000A799A430A714A6813404B608860102218
:10232000684606F097FF1299139A2000FFF76CFF9A
:10233000200018B070BDC04640082100F0B5DE4650
:1023400057464E464546E0B5FA4CA54408F08CFA8F
:1023500015F01AF9002800D0FEE215F001F8F64851
:1023600008F086FAF549F648F64BF74A15F0BAF840
:10237000002800D0FEE2F54808F07AFAF44BF54A5E
:102380001A60F548F54BC15CF54BC25CF54BC35C7C
:10239000F54C045DF548009408F09AFAFEF700F950
:1023A000FEF72EF9F24803F081FC14F0FFFFF1482C
:1023B0000CA919F081FB0C98EF4E3060EF4906F044
:1023C0003EFEEF4906F027FE8421C90506F020FEF7
:1023D000EC4F38600E9BEC4A924613600D9BEB4A23
:1023E00093461360EA4C0FAD15AA21002800FEF7B2
:1023F000E7FEE84B2900049318004EF067FE280022
:10240000FDF7B4FF16AD1CAA21002800FEF7D8FE88
:10241000E14B2900059318004EF058FE2800FDF707
:10242000A5FF1DAD23AA21002800FEF7C9FEDB4B46
:102430002900994618004EF049FE2800FDF796FF46
:1024400024AD2AAA21002800FEF7BAFED44B2900A9
:10245000984618004EF03AFE2800FDF787FF00214D
:10246000D0482EF08BFB0021CF482EF087FB0021B7
:10247000CE482EF083FB0021CD482EF07FFB049D3B
:102480000C3DAB680C3B1868CA4B9C466044FDF79A
:10249000C5FFAB680C3B1B68C64A944663440225E3
:1024A0005D600896306806F04FFE02000B00C148E0
:1024B0003AF0AAFE059A0C3A160093680C3B18688D
:1024C000BD498C466044FDF7A9FFB3680C3B1B680F
:1024D000B9498C4663445D600997386806F034FE5C
:1024E00002000B00B4483AF08FFE4B4606931900E9
:1024F0000C390E008B680C3B1868B04B9C4660444E
:10250000FDF78CFFB3680C3B1B68AC4A94466344F0
:102510005D605346186806F017FE02000B00A748DE
:102520003AF072FE4246079210000C3806008368AB
:102530000C3B1868A24B9C466044FDF76FFFB368E4
:102540000C3B1B689E4A944663445D605B4618687A
:1025500006F0FAFD02000B0099483AF055FE994B3F
:1025600098461B689946049F39002BA84EF00EFD33
:102570002B9B0A9331AE0497390030004EF006FDD4
:10258000B388914900270397029701260196009688
:102590000A9A484604F086F931A8FDF7E7FE2BA811
:1025A000FDF7E4FE43461B680A93059937A84EF0F1
:1025B000EDFC379A0B923DAB9946059918004EF009
:1025C000E5FC4B469B88814903970297019600964C
:1025D0000B9A0A9804F066F94846FDF7C7FE37A83B
:1025E000FDF7C4FE424612680A92069943A84EF0CF
:1025F000CDFC439B0B9349AB9946069918004EF0CE
:10260000C5FC4B469B88724903970297019600963A
:102610000B9A0A9804F046F94846FDF7A7FE43A82E
:10262000FDF7A4FE42461268914607994FA84EF066
:10263000ADFC4F9A0A9255AB9846079918004EF098
:10264000A5FC43469B886349039702970196009631
:102650000A9A484604F026F94046FDF787FE4FA83F
:10266000FDF784FE5BAE61AA21003000FEF7A8FDF5
:10267000310004984EF02AFD3000FDF777FE62AE7F
:1026800068AA21003000FEF79BFD310005984EF04E
:102690001DFD3000FDF76AFE69AE6FAA2100300013
:1026A000FEF78EFD3100069FB94638004EF00EFD54
:1026B0003000FDF75BFE70AE76AA21003000FEF719
:1026C0007FFD3100079A904610004EF0FFFC30006D
:1026D000FDF74CFE002133482EF050FA002132481D
:1026E0002EF04CFA002131482EF048FA00213048F3
:1026F0002EF044FA384E31002E483AF06DFD0400B9
:1027000003680C3B18682018FDF788FE23680C3B13
:102710001B68E3185D60089B186806F015FD020051
:102720000B0020003AF070FD2C493AF055FD3100C5
:1027300056E0C04664FDFFFFF4F406100CF50610E9
:102740001CF5061030750000040040003CF5061032
:10275000C4660020E05C002008540020D808000077
:10276000D9080000DA080000DB08000048F5061070
:10277000F85D0020585200209C16012000001041F6
:102780000000A040A0160120A8620020A4030120A0
:10279000C4F60610AC3800207C3900200C3700202D
:1027A000DC370020E8380020B83900204837002006
:1027B00018380020A8380020783900200837002079
:1027C000D8370020B053002060F5061078F50610C9
:1027D00090F50610A4F50610B8F5061014060710BB
:1027E00067483AF0F9FC040003680C3B18682018AD
:1027F000FDF714FE23680C3B1B68E3185D60099F1E
:10280000386806F0A1FC02000B0020003AF0FCFC46
:102810005C493AF0E1FC5C495C483AF0DDFC0400BC
:1028200003680C3B18682018FDF7F8FD23680C3B83
:102830001B68E3185D605346186806F085FC0200CB
:102840000B0020003AF0E0FC51493AF0C5FC514938
:1028500051483AF0C1FC040003680C3B186820188A
:10286000FDF7DCFD23680C3B1B68E3185D605B46ED
:10287000186806F069FC02000B0020003AF0C4FC66
:1028800046493AF0A9FC7DAE059930004EF07EFB3A
:102890007D9977AD83AA2800FEF792FC404C230077
:1028A000002200212800FDF7FDFE2800FDF75EFD57
:1028B0003000FDF75BFD8AAE494630004EF066FB06
:1028C0008A9984AD90AA2800FEF77AFC23000A2298
:1028D00000212800FDF7E6FE2800FDF747FD300047
:1028E000FDF744FD97AE414630004EF04FFB9799FF
:1028F00091AD9DAA2800FEF763FC2300142200215D
:102900002800FDF7CFFE2800FDF730FD3000FDF771
:102910002DFDA4AA234B110021CB21C1224B1B6802
:10292000591C981CDE1C9EAD029601900091A49942
:10293000A59A2800FFF7B8FC2300282200212800D0
:10294000FDF7B0FE2800FDF711FD184805F036FB35
:10295000174803F0ABF928E5164807F089FF012076
:102960004042A7239B009D44F0BCBB46B246A9460B
:10297000A046F0BD104807F07BFF0120F1E7C046FC
:1029800078390020C8F50610CCF50610083700206D
:10299000D8F50610DCF50610D8370020E8F506104B
:1029A000D81E0020D8880710C466002088130000B5
:1029B000F85D0020E0F4061028F5061010B50400BC
:1029C0000022FFF7A7F963780F2B03D823785C2246
:1029D0001A4200D110BD5BF0B1FB10B50400072214
:1029E000FFF798F963780F229343702B01D0F02BF7
:1029F00003D123785C221A4200D110BD5BF09EFB0C
:102A000030B54368026831CB31C21B68136030BDFA
:102A100010B503681B6842681268934204D01B78A3
:102A20007D2B01D0002010BD8068FFF7E9FF012059
:102A3000F9E730B54368026831CB31C21B681360D7
:102A400030BD10B503681B6842681268934204D019
:102A50001B787D2B01D0002010BD8068FFF7E9FFB7
:102A60000120F9E730B54368026831CB31C21B68F9
:102A7000136030BD10B503681B684268126893424A
:102A800004D01B787D2B01D0002010BD8068FFF79B
:102A9000E9FF0120F9E770B58CB006000C0008AD25
:102AA00010220021280006F0CFFB20230B9363683F
:102AB00007932368069304AB0496059501A806AA1C
:102AC000019207AA42608360FFF7D4FF002802D07A
:102AD00006980CB070BD079A069908A8FFF7A8F8E9
:102AE000069001A8FFF7C6FF00280BD1069B1A78B5
:102AF000302A09D0069301A8FFF7BCFF00280AD0AE
:102B00000698E6E70698E4E708A90A784020024319
:102B10000A700133EEE7079A0699230008A8FEF72A
:102B200057FE0690079B984204D00378702B08D07C
:102B3000502B09D001A8FFF79DFF00280ED0069862
:102B4000C7E701300690F5E708AA5178413B0B40F2
:102B500010210B43537001300690EBE75BF0EEFA67
:102B6000F8B50400002303720B781B071B0F9A4271
:102B700020D20D682D090879000705434B681B0911
:102B8000900080180600203E0CD4F3401F20034024
:102B900023728B68D2009A185368126822606360AF
:102BA0002000F8BD2026361AB3401E002B00C3407B
:102BB0003343EBE70B781B07F2D100270E68360989
:102BC0000B791B0733434868000903D1B842E7D1AA
:102BD0009342E5D98968120189180922200006F07C
:102BE00039FBDDE730B585B004000800110002783C
:102BF0002E2A1CD1451C1F3A6A44002010708D42B9
:102C000017D02200083200930F236B442800FEF7F0
:102C10008DFDA8420FD00F236B441B78002B0CD0E6
:102C20000222920063780C218B431343637005B03A
:102C300030BD2800EDE75BF081FA0122F1E70000EA
:102C400070B58CB006000C0008AD102200212800E1
:102C500006F0FAFA20230B93636807932368069320
:102C600004AB0496059501A806AA019207AA426042
:102C70008360FFF7CDFE002802D006980CB070BD2F
:102C8000079A069908A8FEF7D3FF069001A8FFF758
:102C9000BFFE002809D1069A13782B2B07D02D2BC5
:102CA00007D0202B0ED1032104E00698E6E701218E
:102CB00000E0022108A8890003780C25AB430B43F0
:102CC00003700132069201A8FFF7A2FE00283AD154
:102CD000069B1A78232A38D0069301A8FFF798FE9E
:102CE000002839D1069B1A78302A37D0069301A8DC
:102CF000FFF78EFE002838D106990B782E2B0AD0CC
:102D0000079A230008A8FEF763FD069001A8FFF7C5
:102D10007FFE00282BD1079A0699230008A8FFF709
:102D200061FF069001A8FFF773FE002821D1069BE2
:102D30001A784C2A1FD0069301A8FFF769FE0028D5
:102D400020D006989AE7069898E708A90A781020F4
:102D500002430A700133BFE706988FE708A90A7893
:102D6000402002430A700133C0E7069886E70698C0
:102D700084E7069882E708A90A78202002430A70AF
:102D80000133D8E7069A1378413BD9B226290CD8EB
:102D90008B002D49CB589F4608A841780F23194036
:102DA00001330B4343700132069201A8FFF730FE56
:102DB000002847D0069861E708A841780F231940FA
:102DC00011330B43437001320692EEE708A84178B5
:102DD0000F23194021330B43437001320692E4E77D
:102DE00008A841780F23194031330B434370013257
:102DF0000692DAE708A841780F23194041330B43C4
:102E0000437001320692D0E708A841780F23194099
:102E100051330B43437001320692C6E708A841784C
:102E20000F23194061330B43437001320692BCE714
:102E300008A841780F2319408F3B0B4343700132A0
:102E40000692B2E75BF07AF9A45F071070B58CB018
:102E500006000C000B680B934B680A9306AD10221A
:102E60000021280006F0F0F92023099304AB049612
:102E7000059501A80BAA01920AAA42608360FFF798
:102E8000E0FD002802D00B980CB070BD0A9A0B9997
:102E900006A8FEF7CDFE0B9001A8FFF7D2FD002893
:102EA00001D00B98F0E70A9A0B99230006A8FEF7C9
:102EB0008FFC0B9001A8FFF7C4FD002801D00B98F0
:102EC000E2E70A9A0B99230006A8FFF78BFE0B9006
:102ED00001A8FFF7B6FD002801D00B98D4E70B9BA3
:102EE0001A78732A06D001A8FFF7ABFD002804D09A
:102EF0000B98C9E701330B93F5E75BF01FF970B549
:102F000082B005000C00FEF773F908220021684624
:102F100006F09AF9009501946C602B681B19002249
:102F20001A7002B070BD30B583B06C46009101924A
:102F3000021D22CC22C2009AD218C26003B030BD5A
:102F4000F0B585B004000D004268C3689B1A00927A
:102F5000019313D1260090367768E91900223000DA
:102F6000FFF7CDFF9023E1587268029103923B0076
:102F70002000FFF7D8FF200005B0F0BDFFF71EF9D5
:102F8000E8E7F0B583B004000E0047687D1C0368D5
:102F9000020008329A420BD083689D420AD8236807
:102FA000DE55656023685B1900221A7003B0F0BD1E
:102FB0000F23F2E7012300930023002239002000B1
:102FC000FEF7B3FFEBE770B582B006000C0011000E
:102FD0001A0025682D78002D0CD1A36818680028E8
:102FE00014D063681B68009030004CF0ABF93000DF
:102FF00002B070BD63681B68E06800680190A0685B
:103000000068009030004CF0B3F9F0E763681B688B
:1030100030004CF08BF9EAE7F0B583B004000E0005
:10302000013A47686D468B184A1C01686846FFF7ED
:10303000CAFF06CD06C763685A68002A03D118681C
:10304000801B03B0F0BD0020FBE770B584B0060024
:103050000C0011001A0025682D78002D0ED1A368F0
:103060001B68002B18D0029363681C685D6800948D
:1030700001954DF06FFF300004B070BDE3681B6830
:103080000393A3681B68029363681C685D680094DF
:1030900001954CF07BF9EEE763681C685D6800946D
:1030A00001954DF049FFE6E7F0B583B004000E004E
:1030B000013A47686D468B184A1C01686846FFF75D
:1030C000C4FF06CD06C763685A68002A03D1186892
:1030D000801B03B0F0BD0020FBE730B585B002AB2C
:1030E0001A0030C930C2039B029942680091002146
:1030F000FEF766FF05B030BD30B583B06A4630C913
:1031000030C20199009AFFF749F803B030BD70B59D
:1031100005000C000B7E002B06D021001431280086
:1031200018F0F0FD280070BD0800143039F00AFED8
:1031300001232376F1E7F0B5C64600B584B004005C
:103140000D0000920193FEF753F82368984602AEF3
:1031500008220021300006F077F802942A00414648
:103160006846FFF759FF0390606023681B18002230
:103170001A7004B080BCB846F0BDF0B5C64600B5C4
:1031800084B004000D0000920193FEF731F823682B
:10319000984602AE08220021300006F055F802944D
:1031A0002A0041466846FFF77FFF0390606023686E
:1031B0001B1800221A7004B080BCB846F0BD10B5D0
:1031C00004004B680A689A18436083600021017309
:1031D0004173817302619A4203D0FEF737FC2000ED
:1031E00010BD00230360FAE710B59200144B9B5802
:1031F0009F465AF0A3FF5AF0A1FF5AF09FFF0068C4
:10320000002800DB10BD5AF099FF0068FAE7036858
:103210004268002A01DB1800F4E75AF08FFF0068CB
:10322000F0E75AF08BFF5AF089FF5AF087FF5AF007
:1032300085FF5AF083FF5AF081FF5AF07FFFC046A6
:103240004060071010B586B001006C461022684639
:1032500006F000F8227A05A96846FFF7C5FF06B018
:1032600010BD10B584B0427803231340012B04D065
:10327000022B04D0002004B010BDC088FBE7C28838
:103280006846FFF76DFC6846FFF7DCFFF3E710B513
:1032900084B042780C231340042B05D0082B05D0B2
:1032A0000120404204B010BD0089FBE70289684656
:1032B000FFF756FC6846FFF7C5FFF3E770B504005B
:1032C0000D004668080060F06DFE864201D00020C7
:1032D00070BD2068002E07D0320029005DF03CFE52
:1032E000002803D10130F3E70120F1E70020EFE7E8
:1032F00070B50500080014001A002B689A4208D81F
:103300009B1AA34209D369688918002C07D12000B1
:1033100070BD054905482DF0CFFB1C00F3E72200E6
:1033200005F098FFF3E7C046ECF5061094F406109C
:1033300070B586B00400009101924268C1688A1A93
:1033400083689B1A029103931EE0029900232A00CE
:103350006846FFF7CDFFE3685B19E360019B5B19EB
:103360000193009B5B1B009323681B682000984718
:103370006268E068821AA3689B1A04A904904B60F3
:10338000082202A805F066FF039D009AAA42DCD23B
:10339000002A01D106B070BD029900236846FFF7EC
:1033A000A7FF009AE3689B18E360F3E730B585B0A8
:1033B000040000910192002902D1200005B030BD27
:1033C00002AB6A46190021CA21C10299039A200062
:1033D000FFF7AEFFF1E7F0B583B006000D00170070
:1033E000002909D10EE0386821686268FFF7DEFF26
:1033F000386033681B68ED1A346823689D42F2D840
:10340000002D01D103B0F0BD2B0000222100684641
:10341000FEF786FE38680099019AFFF7C7FF38600B
:10342000F0E710B582B04268891A00910192846970
:103430002069FFF7BBFF206102B010BD70B582B0FC
:1034400004000D004668080060F0ACFD00902B0001
:10345000320000212000FEF7B3FD02B070BDF0B5D0
:10346000CE46474680B5884616009946079B089D7C
:103470000027002400E00137E91A32199446325D32
:1034800091420FDD51B200290CDDFF2A0AD0AD1A9E
:103490004A46013AA242EED90134EDE71A780270A9
:1034A00001330130AB42F9D107E019780170013ADC
:1034B000D2B201330130002AF7D13A00013F002A8D
:1034C0000DD042460270624612780130F3E7197857
:1034D0000170013AD2B201330130002AF7D1220043
:1034E000013C002A04D042460270325D0130F4E70C
:1034F000C0BCB946B046F0BD70B582B004000E0045
:1035000000680368DB689847010063681A685B68B5
:10351000A0684568E06800682818019000953000B0
:10352000FFF79DFF050023691B68002B0FD063691F
:103530001B68013307D0A3691B7803700135E2686B
:1035400013680133136023691B68012B02D8A81B81
:1035500002B070BDE3681B680122A06852422900D6
:10356000FFF7C6FE2D18F2E782B0F0B583B0040075
:103570000D0008920993FDF73BFE27680822002101
:10358000684605F061FE00942A00390008A8FFF79C
:10359000B3FF0190606023681B1800221A7003B00B
:1035A000F0BC08BC02B01847F0B5C64600B59AB0EA
:1035B00004000692079320AB1F78030008330360D2
:1035C00000234360037239F09FFB0100219818F03B
:1035D000ABFC002804D020001AB080BCB846F0BD77
:1035E000219822F023F9050003689B689847672318
:1035F0006B4418702B681B6913AE29003000984784
:10360000149B002B04D167336B441B782E2B32D0D4
:1036100006AB984600222E211800FCF78FFF06000B
:103620001290002239004046FCF788FF864226D8D7
:103630001196013625D006991198091A109109950D
:1036400013AB0A9306AE0B9611AE0C9610AE0D9608
:1036500012AE0E9667266E440F9640008C46844448
:103660000BAA6846C2CAC2C0C0CAC0C02A0061460E
:103670002000FFF779FF13A8FCF778FEABE7060000
:10368000D6E7069B1193D6E710B5C3685A1CC260F3
:1036900019704268C3689B1A82689A4200D010BDB4
:1036A00003681B689847FAE770B586B00B6801A9F4
:1036B0000C300A0070C870C212C812C20398181ADF
:1036C00042425041C0B206B070BD000082B0F0B5B9
:1036D000D6464F464646C0B592B005000E001400CF
:1036E0001B934B1E012B00D8BFE003290FD0012AEA
:1036F00000D1C4E0032A00D1C3E0022A00D1C2E015
:10370000CB1F052B21D89B00664AD3589F46023C0D
:10371000631E9C41E0B2A9E0082C04DC072C00DA0F
:10372000B3E00020A2E00B3C012C00D8AFE0012068
:103730009CE0083C012C01D9012097E0002095E095
:10374000093C631E9C41E0B290E0042C00D1A0E053
:103750000A2C00D19FE0062C00D19EE0052E00D15E
:103760009DE0AB7A9A46002B05D10A2E6DD00D2E26
:1037700070D001207AE02868FEF7B4FC0128F4D16B
:103780001BAA137B9B009858FEF7ACFC0128ECD1D8
:1037900003A92B000C330A0083CB83C203CB03C2E3
:1037A000002301931CE04046FEF79CFC012802D058
:1037B000022815D02EE00023019311E003AA137B09
:1037C0009B009B5898460D93374B99461800183824
:1037D0000DAA1900FDF76AFD8145E4D05346019317
:1037E00003A8FEF701FA08AA130086C886C306C814
:1037F00006C319001BAB0A0083CB83C203CB03C2F1
:103800000A9A0F9B9A42D9D108AB1A7B0DAB1B7B4E
:103810009A42D3D108A903AB0A0083CB83C203CB5E
:1038200003C21BAB83CB83C203CB03C20A9A0F9B99
:103830009A429AD108AB1A7B0DAB1B7B9A4294D16A
:10384000019B002B91D0002010E02B7A022B8ED10F
:1038500000200BE0A64201D0012007E0687AC007F3
:10386000C00F01235840C0B200E0012012B0E0BCFC
:10387000BA46B146A846F0BC08BC02B018470120C1
:10388000F4E70120F2E70120F0E70120EEE7002055
:10389000ECE70020EAE70020E8E70020E6E7002068
:1038A000E4E7C046786007101C6B0710F0B5CE4601
:1038B000474680B58FB00500C369994609A9030042
:1038C0000C330A0051CB51C203CB03C20B9B4B45B7
:1038D0004CD06B68984604A92B000C330A0051CBDE
:1038E00051C203CB03C216E06B7A01336B72220024
:1038F00031002800FDF7E0FC05AB6A4683CB83C2AC
:103900001B681360049B220041462800FFF7DEFE7F
:1039100000281ED1A04604A8FEF766F909AA1300E4
:1039200052C852C306C806C30B9B994517D004AAB8
:10393000137B9B009E583000FEF7BEFB0400020084
:1039400031002800FCF7D2FD0D2CCDD000236B7286
:10395000CDE72E606C6000232B726B72AB7204AAF1
:103960002B000C3313CA13C303CA03C328000FB0C0
:10397000C0BCB946B046F0BDF8B507000C001E004B
:10398000551A05E021783000FFF77EFE0134013D35
:10399000002DF7DC3C607E603800F8BD30B583B0A8
:1039A00004006846FFF7E8FF009B2360019B63600B
:1039B000200003B030BD10B50400116852688A18A9
:1039C000FFF7ECFF200010BD30B58BB0040040685D
:1039D000E3681B1A029003939422A258002A25DB65
:1039E00098216158914218D2521A002100910191F8
:1039F0009A4228D208A908904A600822684605F031
:103A000029FC2300903306AD1B6812496A46280042
:103A1000FFF7D1FF079A9023E2506368E3600399B0
:103A20009822A3585B18A3500BB030BD23009033ED
:103A300004AD1B68074902AA2800FFF7BCFF059ADE
:103A40009023E250E9E7082202A9684605F002FC4B
:103A5000D7E7C046CC88071010B50B001100012B2A
:103A600005D0002B04D01A0005F0EEFB00E0027038
:103A700010BD0000F0B5C64600B582B004000F00CE
:103A80001D0008AB1B7898464368D11A1D48844630
:103A900061448D4217D8EE18B61A2068210008310B
:103AA000814213D0A168B14212D3C019DB1B991A0D
:103AB000934213D0AA4211D0831840190A0019006A
:103AC000FEF728FA0AE010482CF0DEFF0F21EAE7A3
:103AD0000095002339002000FEF727FA002D09D1B8
:103AE000666023689B1900221A70200002B080BC17
:103AF000B846F0BD2068C01942462900FFF7ACFF68
:103B0000EEE7C046FFFFFF7F04F6061000B583B066
:103B10000B00416800920022FFF7ACFF03B000BD2C
:103B200010B543688B4206D304D9416003685B1823
:103B300000221A7010BDC91AFFF7E8FFFAE710B5A6
:103B400084B004004268C3689B1A009201939030CD
:103B5000C9180022FFF7E4FF2100103102918023F1
:103B60000393002380222000FFF7DDF904B010BD8D
:103B700010B582B04468A14206D800931300002219
:103B8000FFF778FF02B010BD024823000A00024987
:103B90002CF092FF3CF6061024F6061084B0F0B527
:103BA00087B005000DAC0D910E920F9300230372A8
:103BB0004372837203000C33220043CA43C303CA17
:103BC00003C3119901AA1300C1CCC1C305CC05C31D
:103BD000039B994207D00DAA137B9B00985828603D
:103BE000FEF76AFA6860280007B0F0BC08BC04B0B1
:103BF000184730B58DB0040002AB0291039205A9BD
:103C00000A0021CB21C215001000FFF7D8FA0AAB39
:103C10006A4603CB03C207996A68AB682000FFF7C6
:103C2000BDFF20000DB030BD70B596B006000D0090
:103C30000468002C29D00AAC016842682000FFF714
:103C4000D8FF2022210002A805F004FB119B01935C
:103C50000298FCF711FC0400A8420FD802A8FFF755
:103C600025FE01A9FFF720FD00280ED10298FCF7E0
:103C700003FC001985420BD30400EFE712AB0022CE
:103C80001292139203CB03C60024200016B070BD1D
:103C90007168079A521A14AB1492159103CB03C69C
:103CA000F3E710B594B000900191041E1DD00CAC48
:103CB0000100019A2000FFF79CFF2022210004A8A8
:103CC00005F0C8FA139B03930498FCF7D5FB040096
:103CD00003E00498FCF7D0FB241804A8FFF7E6FDE6
:103CE00003A9FFF7E1FC0028F3D0200014B010BDB9
:103CF00070B504000D00827300230373002906D001
:103D0000080004F047FD2023181A072807DC257057
:103D10000023E370A37063700133637370BD0B28DD
:103D200010DCAA0940235B42134323703F222A4040
:103D300080235B42134363700023E370A37002335C
:103D40006373EBE7102813DC2A0B20235B42134339
:103D50002370AB093F210B40802252421343637012
:103D600029400A43A2700023E37003336373D5E74D
:103D7000AB0C07221A4010235B4213432370290B1C
:103D80003F22114080235B4219436170A909114011
:103D90001943A1702A401343E37004236373BDE702
:103DA00030B583B004000090856801952B1D8360B9
:103DB0002968D8231B02994206D201222000FFF76E
:103DC00097FFA56003B030BD81225203024BCB1890
:103DD0009342F2D30149F0E70020FFFFFDFF00000E
:103DE00070B50400037B591C427B914203D0914281
:103DF00016DB200070BD856800698542F7D0200081
:103E00000830A17B0022FCF715FBA26823699A42C7
:103E100003D02000FFF7C4FFEBE700232373E8E79C
:103E200001332373E5E784B0F0B58DB0050013913D
:103E3000149215930F230B9300240BE00B9BA342CA
:103E40001CD913A8037BC35C661C2C192372FFF7D3
:103E5000C7FF340013AB6A46C1CBC1C203CB03C258
:103E6000C1CBC1C203CB03C2029B079A9A42E5D1E0
:103E70006B461B7B05AA127B9A42DFD10A951EE096
:103E8000631C0B9322000BA92800FCF7C9FC060059
:103E900029682200FDF76AF92800FCF767FA2E600E
:103EA0000B9BAB6002E00B9BA342E9D02B68661C26
:103EB00013A8027B825C1A55FFF792FF340013AB04
:103EC0006A46C1CBC1C203CB03C2C1CBC1C203CBC3
:103ED00003C2029A079B9A42E5D16B461A7B05AB57
:103EE0001B7B9A42DFD100220A926C602B681B195F
:103EF0001A700DB0F0BC08BC04B01847F0B5D64637
:103F00004F464646C0B5B4B00B9009910A923C9A10
:103F100020A8002101701EA920241E941F901D912D
:103F2000032B0CD0022B10D0150000243D9B7E2BC0
:103F30000ED81F2A77D81E92002A7BD074E054082E
:103F4000023B1A4012191500F0E714000025EDE7B6
:103F50000C9328AE0CAB994629932A9300239846DC
:103F600033737373B3730DAB9A462C933000FFF722
:103F700017FF2DAB4A462E9252462F9242461A7395
:103F80005A739A735246319242462D92524683CECC
:103F900083C203CE03C21100C1CBC1C141CB41C119
:103FA0000E0019AB179343464B6007AB0021197005
:103FB00002A90B0083CA83C303CA03C310AB6A46BA
:103FC00003CB03C20D9953465A689B683000FFF734
:103FD0002AFF179B726832A932924B6008221EA8F2
:103FE00005F038F906E00B981E991F9AFFF7DEF9E5
:103FF0000B903400661E002CF5D10B9809990A9A93
:10400000FFF7D4F90B9006E00B981E991F9AFFF763
:10401000CDF90B9025006C1E002DF5D10B9C17A837
:10402000FCF7A4F919E02022FF213D9B194020A8AC
:1040300005F00AF90BAF1DAE3A0021003000FFF782
:10404000CAF90B9809990A9AFFF7B0F90B903A0050
:1040500029003000FFF7BFF90B9C200034B0E0BC12
:10406000BA46B146A846F0BDF0B5DE4657464E46C4
:104070004546E0B59BB002AF040008203E18B96089
:1040800072607B6080231B18DB1919682000FFF722
:10409000E8F80500242308201B18DB190022FA6227
:1040A0005A6003CE03C323789B061ED4F96A8D425F
:1040B00000D8A0E0E06822789207930F691A88463A
:1040C000802108254919C91909680E69B446002AD2
:1040D00000D0BEE023785B0600D4B8E07B68002BFC
:1040E00000D092E002233020B3E0542399464C3BA9
:1040F0009C46BC44E144783308329B18DB191968AC
:104100004846FFF704F82C239A46243B9C46BC44BF
:10411000E2444946504617F003FE56495046FFF721
:10412000CDF881465046FCF721F94B46002B06D0CE
:10413000542308229B18D81917F0DAFFB6E7543336
:1041400008229B18D81921F071FB814603681B696E
:104150000C229246043A9446BC44E2440100504684
:10416000984753465B68002B39D0FB6A98467A68BB
:104170009B1A5B00944663440733DB08DB00694607
:10418000CB1A9D460F236B44DB08DB009A463B6B42
:104190009B46002A2AD17B681A005A443A601E00C6
:1041A00056444B461B68DB684846984701007A69CD
:1041B000BB69C34458460190386800903000FFF74F
:1041C0004EF95346C01A442308215B18DB19F864E2
:1041D00052465A6024225218D21903CB03C20C2330
:1041E00008229B18D819FCF7C1F8A1E7190050461E
:1041F00005F030F8CFE7802308229B18DB191B68F5
:1042000018693A6BFFF7D2F82BE04C239946443BF0
:104210009C46BC44E1441C3308329B18DC197D6881
:104220002B00002221004846FDF77AFF796D4B46AE
:104230005A683000FFF7BAF884466368A9464B44D1
:104240006360FB6A5B1BFB620223302001E00223F8
:104250002020019042460092F96A3A6B6046FFF7CF
:104260004DFEBD4619B0F0BCBB46B246A946A046BD
:10427000F0BDC04614060710F0B585B0029003915A
:1042800015001C000AAB40CB1F7821003000FEF760
:10429000E8FFA84211D9451B33789B0702D0377835
:1042A000BF07BF0F2069F368019300953B00029997
:1042B000039AFFF723FE05B0F0BD20690299039A27
:1042C000FFF774F8F7E710B586B00C0013000F2164
:1042D00069440C7001220492059101920090012022
:1042E000FFF7CAFF06B010BDF0B59BB004000F0089
:1042F000160045780F239D43702D2ED008220021F3
:1043000005A804F0A1FF00230393049363781B091D
:10431000042B58D026D8012B46D9202D20D04F4A27
:104320000AAB02210A910B9203AA21CB21C212AD42
:1043300000913B0027226A441D3169442800FCF7A4
:10434000A3FB05AB03CD03C32378DB0665D5039A36
:10435000002A5AD11F256D4461E0FFF7B4FF72E0D7
:104360003F4ADDE7502D1DD03E490EAB02220E9292
:104370000F9103AA21CB21C218AD102300933B005B
:1043800027226A441F2169442800FCF77DFB05AB06
:1043900003CD03C363780F229343602BD4D11F2531
:1043A0006D442EE03049E0E714AD0A2300933B0052
:1043B00027226A441F2169442800FCF765FB05ABEE
:1043C00003CD03C3C0E7002F07D00CAB01220C9232
:1043D000264A0D9203AA21CB21C216AD08230093D1
:1043E0003B0027226A441F2169442800FCF74CFB4C
:1043F00005AB03CD03C3A7E728785BF007FF287060
:104400000135059BAB42F7D19EE71F256D44AD1AE0
:104410000499280004F01EFF01E01F256D44237855
:104420001B079B0F6A1E012B0FD0032B11D0059980
:10443000491B109111951F236B445B1B00962A00AA
:104440002000FFF711FE1BB0F0BD15002A331370DA
:10445000EDE7013D1D332B701500E8E778F60610F7
:1044600074F6061080F606107CF60610A8FF0610FB
:1044700010B543780F2B07D90F24A343702B03D01B
:10448000F02B04D1106901E0FFF71DFF10BDFFF70D
:104490002BFFFBE7F0B585B005000E0010220021D0
:1044A000684604F0D1FE202303932F68391D684627
:1044B000FEF793FA78602B689D6931782A00684688
:1044C000FFF7D6FF286105B0F0BD0000F0B5C64685
:1044D00000B5A0B004000D00170046780F239E43DE
:1044E000702E32D00822002105A804F0ADFE002372
:1044F00003930493002D30DB2B0062781209042A09
:104500005ED02ED8012A4DD9202E28D0544910AA89
:10451000022084461090119103A941CA41C118AEEE
:10452000624600923D326A441F2169443000FCF724
:10453000E0FA05AB03CE03C32378DB0669D5039A03
:10454000002A5ED11F266E4465E0FF2903D8C9B258
:10455000FFF7B9FE78E059F0F1FD6B42CDE7414934
:10456000D5E7502E1CD0404814AA02211491159072
:1045700003A941CA41C11EAE102200922F326A44E3
:104580001F2169443000FCF7B4FA05AB03CE03C326
:1045900063780F229343602BCED11F266E442CE00C
:1045A0003248E1E71AAE0A22009235326A441F21EE
:1045B00069443000FCF79DFA05AB03CE03C3BBE7AB
:1045C000002D07D012AA012112912949139103A9A4
:1045D00041CA41C11CAE0822009237326A441F21F1
:1045E00069443000FCF785FA05AB03CE03C3A3E7AB
:1045F00030785BF00BFE30700136059BB342F7D18B
:104600009AE71F266E44B61A0499300004F022FE81
:1046100001E01F266E4423781B079B0F721E002D9E
:1046200005DB012B14D0032B16D0320001E02D2323
:1046300013700599891A169117921F236B449B1AC0
:1046400000972000FFF710FD20B080BCB846F0BDF9
:10465000013E2A333370ECE7013E1D333370E8E747
:1046600078F6061074F6061080F606107CF6061032
:10467000A8FF0610F0B585B005000E00102200213D
:10468000684604F0E1FD202303932F68391D0122C1
:104690006846FDF73FFB78602B689D6931682A000A
:1046A0006846FFF713FF286105B0F0BDF0B5A1B073
:1046B00004000D00170046780F239E43702E2ED065
:1046C0000822002105A804F0BFFD002303930493F2
:1046D00063781B09042B5DD02BD8012B4BD9202EDE
:1046E00025D0524A10AB02211091119203AA41CB5E
:1046F00041C218AE00912B003F226A441D3169442B
:104700003000FCF7F6F905AB03CE03C32378DB06D4
:104710006AD5039A002A5FD11F256D4466E0FF2900
:1047200003D8C9B2FFF7CFFD74E059F007FD404A46
:10473000D8E7502E1DD03F4914AB02221492159198
:1047400003AA41CB41C21EAE102300932B003F228F
:104750006A441F2169443000FCF7CBF905AB03CE56
:1047600003C363780F229343602BCFD11F256D4481
:104770002EE03149E0E71AAE0A2300932B003F22D6
:104780006A441F2169443000FCF7B3F905AB03CE3E
:1047900003C3BBE7002D07D012AB01221292274AB8
:1047A000139203AA41CB41C21CAE082300932B00F5
:1047B0003F226A441F2169443000FCF79AF905AB97
:1047C00003CE03C3A2E728785BF020FD28700135F3
:1047D000059BAB42F7D199E71F256D44AD1A0499AB
:1047E000280004F037FD01E01F256D4423781B07E6
:1047F0009B0F6A1E012B0FD0032B11D00599491B6B
:10480000169117951F236B445B1B00972A0020000D
:10481000FFF72AFC21B0F0BD15002A331370EDE735
:10482000013D1D332B701500E8E7C04678F60610F1
:1048300074F6061080F606107CF60610A8FF061027
:10484000F0B585B005000E0010220021684604F086
:10485000FBFC202303932F68391D01226846FDF7D6
:1048600059FA78602B689D6931682A006846FFF71D
:104870001DFF286105B0F0BDF0B5C64600B5AAB071
:10488000070015001C0046780F229643702E35D085
:104890000822002107A804F0D7FC00230593069303
:1048A000002C38DB2A0023007978090904296DD00F
:1048B00039D801295AD9202E33D05E481AA90225A9
:1048C000AC461A951B9005A860C960C022AD614630
:1048D00002910092019367226A44253169442800BD
:1048E000FCF7A6FA07AB03CD03C33B78DB0678D50C
:1048F000059A002A6DD127256D4474E0002C08D15B
:1049000005D0E9B2309A3800FFF7DDFC85E0FF2DD5
:10491000F7D959F013FC28002100002342428B41B3
:10492000C2E74548CAE7502E1ED0444D1EA90220BA
:104930001E901F9505A860C960C028AD1021029186
:104940000092019367226A44173169442800FCF7FA
:104950006FFA07AB03CD03C37B780F229343602B21
:10496000C3D127256D4430E0354DDFE724AD0A2162
:1049700002910092019367226A441D316944280024
:10498000FCF756FA07AB03CD03C3AEE7254307D0C8
:104990001CA901201C902B481D9005A860C960C06F
:1049A00026AD082102910092019367226A441F31CB
:1049B00069442800FCF73CFA07AB03CD03C394E736
:1049C00028785BF023FC28700135079BAB42F7D1B8
:1049D0008BE727256D44AD1A0699280004F03AFCB0
:1049E00001E027256D443B781B079B0F6A1E002CB6
:1049F00005DB012B15D0032B17D02A0001E02D2356
:104A000013700799891A2091219227236B449B1ACE
:104A1000309800903800FFF727FB2AB080BCB846DA
:104A2000F0BD013D2A332B70EBE7013D1D332B70A8
:104A3000E7E7C04678F6061074F6061080F6061012
:104A40007CF60610A8FF0610F0B587B005000E0032
:104A500002AC10220021200004F0F6FB2023059375
:104A60002F68391D01222000FDF754F978602B686A
:104A70009D693268736800952000FFF7FDFE28618C
:104A800007B0F0BDF0B5ABB0040015001E004778CC
:104A90000F239F43702F2FD00822002107A804F076
:104AA000D3FB00230593069363781B09042B65D081
:104AB00031D8012B52D9202F2BD0574A1AAB0221C3
:104AC0001A911B9205AA81CB81C222AF0291009557
:104AD000019667226A44253169443800FCF7A8F939
:104AE00007AB03CF03C32378DB0673D5059A002AEF
:104AF00068D127256D446FE0002E08D105D0E9B2BA
:104B0000309A2000FFF7DFFB7BE0FF2AF7D959F04E
:104B100015FB424AD2E7502F1ED041491EAB02225C
:104B20001E921F9105AA81CB81C228AF1023029348
:104B30000095019667226A44272169443800FCF7F2
:104B400077F907AB03CF03C363780F229343602B3E
:104B5000C9D127256D4431E03249DFE724AF0A236C
:104B600002930095019667226A4427216944380020
:104B7000FCF75EF907AB03CF03C3B4E72B00334365
:104B800007D01CAB01221C92274A1D9205AA81CB9B
:104B900081C226AF082302930095019667226A44DA
:104BA000272169443800FCF743F907AB03CF03C35F
:104BB00099E728785BF02AFB28700135079BAB4208
:104BC000F7D190E727256D44AD1A0699280004F027
:104BD00041FB01E027256D4423781B079B0F6A1ECC
:104BE000012B10D0032B12D00799491B209121953E
:104BF00027236B445B1B309A00922A002000FFF7AA
:104C000033FA2BB0F0BD15002A331370ECE7013DE9
:104C10001D332B701500E7E778F6061074F60610C2
:104C200080F606107CF60610A8FF0610F0B587B0D7
:104C300005000E0002AC10220021200004F004FB4D
:104C4000202305932F68391D01222000FDF762F80B
:104C500078602B689D693268736800952000FFF7C3
:104C600011FF286107B0F0BDF0B5C64600B592B09F
:104C700004000E00150043780F221900914370299B
:104C800026D00F2B2AD803AB05AA03920022049248
:104C90001A7203789B0627D4002E4AD0264903AE09
:104CA0003000FEF7CBFB049A03AE039904981090F2
:104CB00011910123019300942B00FFF7DDFA04000A
:104CC0003000FBF753FB200012B080BCB846F0BDAB
:104CD0002A003100FFF7F7FA0400F4E72A00310058
:104CE000FFF702FB0400EEE709AB98462900180025
:104CF000FEF70DFA404620F099FD0700404617F0F8
:104D0000F7F9002E0FD03B685B6939000AA8984775
:104D10000AAF03AE39003000FCF764FE3800FBF741
:104D200025FB049AC0E73B689B6939000AA89847AD
:104D3000EEE70249B3E7C04684F606108CF606108B
:104D4000F0B585B005000E0010220021684604F081
:104D50007BFA202303932F68391D6846FDF72EFE4A
:104D600078602B689D6931782A006846FFF77CFFE0
:104D7000286105B0F0BD30B585B004000291039202
:104D80001D0043781A0714D00C221A4216D02900AD
:104D9000FEF77DFA010002A8FEF746FF020001239C
:104DA000019300942B0002980399FFF765FA05B070
:104DB00030BD2869039AFEF7F9FAF8E702980399DB
:104DC000FEF76FFF0200EAE770B582B005000C0045
:104DD000160008005FF0E6F801000090019433002F
:104DE00022002800FFF7C7FF02B070BDF0B585B004
:104DF00005000E0010220021684604F025FA202349
:104E000003932F68391D6846FEF720F878602B68F9
:104E10009D6931682A006846FFF7D6FF286105B012
:104E2000F0BDF0B587B006000C0002AD10220021E5
:104E3000280004F009FA202305933768391D28005B
:104E4000FEF704F8786033689E696B4603CC03C3B1
:104E500033000099019A2800FFF78DFF306107B0F9
:104E6000F0BD0000F0B5DE4657464E464546E0B57B
:104E7000D7B00400099115003FAB41AA3F92002230
:104E800040921A72083200211DA804F0DDF90623B1
:104E90001C9363780C261E403200531E9A415F23F8
:104EA00004A98C4663441A70002E07D100231A937C
:104EB00063781B099B00CE4AD3589F4629002000E7
:104EC000FEF7E5F91C90F1E76523029300275F23C5
:104ED00004AA9446634401221A7003231A93023BE6
:104EE0009B4628E000275F2304AA944663440122DE
:104EF0001A7002231A936333029300239B461AE02D
:104F000065230293002701235F2204A98C46624493
:104F100013701A9300239B460DE06523029300272C
:104F200063780F229343202B01D070230293042334
:104F30001A9300239B465F2204A98C466244169272
:104F400009AA17921AAA18921CAA19921DAE3FAB71
:104F50006D22624416A906A8FEF735F806AB3200AA
:104F600003CB03C21E9B8B2B32D03FAB04936D2629
:104F700004AB9C466644002F6ED1099B002B79DB65
:104F800022780C231340042B68D00C2B6CD0002308
:104F9000039371E0502302930127C1E74523029355
:104FA0000127B0E701279EE74523029301278EE7FB
:104FB000002E07D003231A936233029300239B46EB
:104FC0000027B8E76523029300239B460027B2E73A
:104FD0001C9E08361A9B022B1FD0802E2ED9310022
:104FE0003FA8FCF705F916AB0A931DAB0B933F9A4C
:104FF00041AB9A4225D0419949003FAE0A9A0B9B9A
:105000003000FEF798F83F9B591C409A9B18049378
:105010001E9B8B2BE7D00E00ADE700230A93099867
:105020000AA96AF071F80A9B002BD6DD7148584333
:10503000714903F0FBFB86190136CEE78026760026
:10504000CDE70F21D8E738785BF0E0F8387001370A
:105050001D9BBB42F7D190E73700F9E7013E2733AC
:1050600033702A3B039307E0013E143333701F3B38
:10507000039301E0012303931D9B98469F1B149704
:1050800015962378DB0600D4E0E0099B5B005B0803
:1050900099465A49181C04F024F8002800D0D5E09D
:1050A0005649484604F018F8002800D0CEE00822FF
:1050B00014A90AA804F0CEF800222E210AA8FBF7B2
:1050C0003DFA0590431C28D0431C9A461A000299C9
:1050D0000AA8FBF733FA8146030001330AD05B4686
:1050E000002B34D0039AB35C302B05D04B469B1A6F
:1050F000013B20E0B946F2E753469F4204D9F25CF7
:10510000302A08D10133F8E701235B429A464B4627
:1051100052469B1A0FE09A46F9E7002202990AA824
:10512000FBF70CFA8146030001330ED04B46039A7D
:105130009B1A4A4605925A46002A0BD01C9A93465F
:10514000002A09D0D31A9B4606E0B946EEE70023B1
:105150009B4601E000239B464B46059A9B1A5A4208
:1051600053415B449A46002B70D0409B002B04D1E6
:10517000049B42469B1A534516D2390051443FAE18
:105180003000FCF735F8409B002B39D030235246D5
:1051900049463FA8FEF7ECFC059B99454DD13F9B46
:1051A0002E2249465A5448E0484650443018B046EA
:1051B000C8444B46FA1A41465BF0F2FE059B9945FE
:1051C0000FD0300048445A46302104F03DF80B9986
:1051D0000A9A524445AB4592469114AA41CB41C22A
:1051E00034E001239C46E1442D3342461370E8E746
:1051F00090600710A40F0000F5330000FFFF7F7FD1
:1052000047AE4B4600220AA93000FCF789FF310067
:105210003FA8FDF762FF059B994560D05B46002BD8
:1052200062D149AE01235B424A460AA93000FCF72D
:1052300077FF31003FA8FDF75FFF3F9B409A52A9DF
:1052400052924B60082214A804F004F80EAA10AB86
:105250000E9300230F9313720CA80C934360082243
:1052600014A903F0F7FF23789B060ED5099E76005C
:1052700076084B49301C03F034FF002805D148491B
:10528000301C03F029FF002834D029002000FDF74E
:10529000E8FF0C9FB84252D9E16822789207930F39
:1052A000C61B2D69002A62D123785B065DD5099C57
:1052B000640064083A49201C03F013FF00286CD1F5
:1052C0003749201C03F008FF002866D1159B1B7886
:1052D000344AD35C0F2B39D80223302147E02E21EA
:1052E0003FA8FDF74EFE99E7302259463FA8FEF74A
:1052F0000DFC96E751AE29003000FDF708FF4BAFDB
:105300000196029B00930C9A0D9B21003800FEF73A
:105310004BF939000EA8FCF765FB3800FBF726F8BF
:10532000300016F0E5FE0F9B002BAED00E9A54A96C
:1053300054934A6008220CA803F08CFFA5E7286963
:1053400039000D9AFEF732F8040018E00CAB9846CD
:105350000D9C21782800FEF797F9013443465C60E4
:10536000013F0C970223302101E00223202101910B
:1053700000960C990D9A2800FEF7C0FD04000EA8B7
:10538000FAF7F4FF3FA8FAF7F1FF200057B0F0BC9E
:10539000BB46B246A946A046F0BD02232021E6E75F
:1053A000FFFF7F7F80610710F0B585B005000E001C
:1053B00010220021684603F047FF202303932F6843
:1053C000391D6846FDF73CFC78602B689D693168A3
:1053D0002A006846FFF746FD286105B0F0BD0000D1
:1053E000F0B5DE4657464E464546E0B5D7B0040018
:1053F000089209933FAB41AA3F92002240921A7251
:10540000083200211DA803F01FFF06231C936378B8
:105410000C251D402A00531E9A415F2304A98C4687
:1054200063441A70002D07D100231A9363781B0977
:105430009B00CA4AD3589F4660992000FDF727FF7A
:105440001C90F1E76523029300265F2304AA94468B
:10545000634401221A7003231A93023B9B4628E0FF
:1054600000265F2304AA9446634401221A70022393
:105470001A936333029300239B461AE06523029339
:10548000002601235F2204A98C46624413701A93FC
:1054900000239B460DE065230293002663780F22CC
:1054A0009343202B01D07023029304231A930023EB
:1054B0009B465F2204A98C466244169208AA179262
:1054C0001AAA18921CAA19921DAD3FAB6D22624414
:1054D00016A906A8FDF7B9FD06AB2A0003CB03C247
:1054E0001E9B8B2B32D03FAB9A466D2504AB9C465E
:1054F0006544002E6ED1099B002B79DB22780C23AA
:105500001340042B68D00C2B6CD00023049371E063
:10551000502302930126C1E7452302930126B0E7F9
:1055200001269EE74523029301268EE7002D07D032
:1055300003231A936233029300239B460026B8E7A5
:105540006523029300239B460026B2E71C9D083585
:105550001A9B022B1ED0802D2ED929003FA8FBF7C5
:1055600047FE16AB0A931DAB0B933F9A41AB9A4291
:1055700025D0419949003FAF0A9A0B9B3800FDF7AF
:10558000FCFD3F9B5D1C409A9B181E9A8B2AE8D01D
:105590009A46AEE700230A93089809990AAA69F087
:1055A000DBFD0A9B002BD6DD6D4858436D4903F0A7
:1055B0003DF945190135CEE780256D00CDE70F2176
:1055C000D8E730785AF022FE307001361D9BB34286
:1055D000F7D190E72E00F9E7013D27332B702A3BE6
:1055E000049307E0013D14332B701F3B049301E04B
:1055F000012304931D9B99465B1B984614931595B4
:105600002378DB0600D4D7E0089E099B5B005F0887
:1056100001225242544B3000390003F0C8FB0028ED
:1056200000D0C9E0012252424F4B3000390003F054
:10563000B9FB002800D0BFE0082214A90AA803F093
:1056400009FE00222E210AA8FAF778FF0590431CD4
:1056500023D0471C3A0002990AA8FAF76FFF060008
:10566000431C09D05B46002B2ED0049AAB5C302B38
:1056700004D0B31A013B1BE04646F3E74246BA4268
:1056800004D9EB5D302B06D10137F8E790460127AE
:105690007F42F31B0CE09046FBE7002202990AA828
:1056A000FAF74CFF0600431C0CD0049BF31A059636
:1056B0005A46002A0BD01C9A9346002A09D0D31AC6
:1056C0009B4606E04646F0E700239B4601E00023A8
:1056D0009B46059BF71A7B425F415F44002F6BD0CE
:1056E000409B002B04D153464A469B1ABB4215D21D
:1056F0004346D9193FAD2800FBF77AFD409B002BAC
:1057000034D030233A0031003FA8FEF731FA059B30
:105710009E4248D13F9B2E229A5544E0F01928180A
:10572000AB19994643469A1B49465BF039FC059BE9
:105730009E420ED0A8195A46302103F085FD0B99E0
:105740000A9AD21945AB4592469114AA21CB21C29F
:1057500032E001362E234A461370EBE7B46007109F
:10576000A40F0000F5330000FFFFEF7F47AD3300CB
:1057700000220AA92800FCF7D3FC29003FA8FDF766
:10578000ACFC059B9E4276D05B46002B78D149ADA0
:1057900001235B4232000AA92800FCF7C1FC290062
:1057A0003FA8FDF7A9FC3F9B409A52A952924B603B
:1057B000082214A803F04EFD0EAA10AB0E9300238E
:1057C0000F9313720CA80C934360082214A903F0E2
:1057D00041FD23789B0615D5089E099B5B005F0859
:1057E00001225242534B3000390003F0E0FA002806
:1057F00008D1012252424F4B3000390003F0D2FA57
:10580000002843D060992000FDF72BFD0C9FB84283
:1058100061D9E16822789207930FC51B60980069EF
:105820008146002A6DD123785B0668D500230024C9
:1058300002930394089B0293099B5B005B0803930C
:10584000012252423B4B0298039903F0B0FA002820
:105850006DD101225242374B0298039903F0A2FA0C
:10586000002864D1159B1B78334AD35C0F2B3AD8A0
:105870000223302145E02E213FA8FDF782FB83E77C
:10588000302259463FA8FEF741F980E751AD6099B3
:105890002800FDF73CFC4BAE0195029B00930C9A4F
:1058A0000D9B21003000FDF77FFE31000EA8FCF7B4
:1058B00099F83000FAF75AFD280016F019FC0F9BF2
:1058C000002B9FD00E9A54A954934A6008220CA82A
:1058D00003F0C0FC96E7609B186939000D9AFDF74C
:1058E00065FD040015E00D9C21784846FDF7CCFECF
:1058F00001340D947B1E0C930223302101E002231E
:105900002021019100950C990D9A4846FEF7F6FA70
:1059100004000EA8FAF72AFD3FA8FAF727FD200099
:1059200057B0F0BCBB46B246A946A046F0BD022324
:105930002021E6E7FFFFEF7F80610710F0B587B019
:1059400005000E0002AC10220021200003F07CFCB8
:10595000202305932F68391D2000FDF771F9786029
:105960002B689D693268736800952000FFF738FD49
:10597000286107B0F0BDF0B587B005000E0002AC9D
:1059800010220021200003F05FFC202305932F68E4
:10599000391D2000FDF754F978602B689D69326845
:1059A000736800952000FFF71BFD286107B0F0BD6C
:1059B000F0B5C64600B58EB005000B00170007AC69
:1059C0001022009216326A441E21694405A8FBF792
:1059D00090F8059E331B984630232370483363703C
:1059E0006B780F229343102B1AD003AB0022039243
:1059F000049246460AAC0A9607AA0B9203CC03C34C
:105A00002B785B0636D539002800FDF72AFC040008
:105A1000864212D338690399049AFDF7C7FC32E035
:105A2000493262701E246C4404E020785AF0EEFB88
:105A300020700134A642F8D1D7E73F690CAE03AD20
:105A40000223002229003000FCF76AFB0C990D9A12
:105A50003800FDF7ABFC049A023204920399023934
:105A600003914346E41A3023019300942E3BFEF742
:105A700045FA08E00223019300953B004246039853
:105A80000499FEF7F9FB0EB080BCB846F0BDF0B546
:105A900085B005000E0010220021684603F0D4FBFB
:105AA000202303932F68391D6846FCF7F4FF7860C4
:105AB0002B689D6931682A006846FFF779FF2861E5
:105AC00005B0F0BD10B50300080092001D498A58CA
:105AD000974658F033FB1900FFF732F910BD190053
