:020000041000EA
:1000000000B5324B212058609868022188439860DF
:10001000D860186158612E4B002199600221596106
:100020000121F02299502B49196001219960352056
:1000300000F044F80222904214D00621196600F024
:1000400034F8196E01211966002018661A6600F04E
:100050002CF8196E196E196E052000F02FF8012189
:100060000842F9D1002199601B49196000215960AB
:100070001A491B48016001219960EB211966A021F2
:10008000196600F012F800219960164914480160C1
:100090000121996001BC002800D000471248134993
:1000A000086003C880F30888084703B5996A0420EC
:1000B0000142FBD001200142F8D103BD02B5186610
:1000C0001866FFF7F2FF186E186E02BD00000240BE
:1000D000000000180000070000035F00212200005C
:1000E000F4000018222000A00001001008ED00E03C
:1000F00000000000000000000000000074B24E7A12
:1001000000200420F7010010CB010010CD010010E9
:10011000C9010010C9010010C9010010C901001077
:10012000C9010010C9010010C9010010CF01001061
:10013000C9010010C9010010D1010010D301001045
:10014000C1010010C1010010C1010010C101001067
:10015000C1010010C1010010C1010010C101001057
:10016000C1010010C1010010C1010010C101001047
:10017000C1010010C1010010C1010010C101001037
:10018000C1010010C1010010C1010010C101001027
:10019000C1010010C1010010C1010010C101001017
:1001A000C1010010C1010010C1010010C101001007
:1001B000C1010010C1010010C1010010C1010010F7
:1001C000EFF30580103800BE00BE00BE00BE00BECA
:1001D00000BE00BEF2EB88713CB30D1060B30D1091
:1001E0003802001090A31AE71E481F49086006C88D
:1001F00081F3088810471D480068002801D019487D
:10020000F3E70DA40ECC002902D000F012F8F9E7B4
:100210001749184A002000E001C19142FCD116495B
:100220008847164988471649884700BEFDE701C937
:1002300001C29A42FBD3704760B30D10E00000206A
:1002400070320020F0E40D100000042000000420B3
:10025000F0E40D1000100420001004200000000045
:10026000704700000000000008ED00E0000000D032
:100270007032002068130120CDA1001095220010DB
:100280008DA10010F8B5C04606480749091A8B1021
:10029000C90FC91810B5491003D0044B002B00D06A
:1002A000984710BD7032002070320020000000001E
:1002B000054B10B5002B03D00449054800E000BFF2
:1002C000FFF7E2FF10BDC04600000000FCFF002069
:1002D00028C90610704730B585B004000D0043688A
:1002E000C268D31A8168CB1A009201939D4201D84B
:1002F00005B030BD8D420DD803681B689847626811
:10030000E1688A1AA3689B1A029103939D4201D85F
:100310002000EDE70020EBE7C3685B18C36070477F
:10032000F0B585B00500140063200AF0ADF8002C8C
:1003300019D10F480AF0B6F80E4C01270197002694
:100340000096002301222100280006F0E7F80A4A5F
:10035000039602960196009711232100280006F0CB
:1003600033F805B0F0BD054821000AF0CBF8F8E7F6
:1003700028C9061050C906105CC9061070C90610BD
:1003800010B5030000681A000832904203D0996843
:10039000013108F081FD10BDF0B5C64600B50C0076
:1003A0000E004E43884637004F437C43012580456D
:1003B0000BD8B04208D3B8420BD3A0420BD32100D4
:1003C00008F06CF80435F2E70135280080BCB84627
:1003D000F0BD0235F9E70335F7E7F0B583B0140057
:1003E000150055432B00534301931E00564301272C
:1003F00000290CD000290DD0019B002910D0002924
:1004000012D03200002308F087F80437F0E7844266
:10041000F0D902E08542EFD90137380003B0F0BDD2
:100420008342ECD90237F8E78642EAD90337F4E78A
:100430008B000168C91801607047F0B583B00600F1
:100440001700091A8D1000E02500002D0FDD6C103B
:1004500001960022210001A8FFF7EAFF019B3968FD
:100460001A689142F0D31E1D2C1B013CECE73000B2
:1004700003B0F0BD10B582B0019088235B019842B3
:1004800002D2012002B010BD0849094BCC1800234C
:1004900001AA2000FFF7D1FF031B9A10DB0FD2182F
:1004A00001201040C01A0130ECE7C046046007107C
:1004B000E0FCFFFF10B582B00190A82802D8002010
:1004C00002B010BD0649074BCC18002301AA20003A
:1004D000FFF7B3FF001B8010C007C00FF0E7C04656
:1004E000283C071090FDFFFF10B50400037A032B92
:1004F00007D0012B11D00A2A04D0042A00D00323EC
:10050000237210BD022B01D10123F9E70068FFF728
:10051000D1FF00280CD10323F2E7002A01D00323E6
:10052000EEE70800FFF7C6FF002803D10323E7E743
:100530000123E5E70223E3E770B513000468944262
:100540000AD9A21A4568E8189C4208D061F03CF824
:10055000002807D0401B70BD01204042FBE701206E
:100560004042F8E701204042F5E730B543680268B1
:1005700031CB31C21B68136030BD10B503681B68F6
:1005800042681268934204D01B787D2B01D0002072
:1005900010BD8068FFF7E9FF0120F9E710B584B0CE
:1005A000124B039306F060F8114B1860002819D025
:1005B000104C1C220021200008F052FC0E4B23603E
:1005C000612009F061FF0D4B094A10680194002277
:1005D00000920B4A03A906F04FF8622009F054FF7D
:1005E00004B010BD074809F05DFFF9E70A0000EA12
:1005F0003C50002040500020B8C9061021030010D4
:100600005B07000098C9061010B582B0104C114964
:1006100020000CF061FF03210E2006F023FA0321D5
:100620000F2006F01FFA00220121022006F034FA02
:1006300000220121032006F02FFA0748002303724D
:1006400000943C334022802105F056F802B010BDE2
:1006500078210020801A0600845A002010B582B04C
:100660000068064C019000930123200005F04BF92F
:10067000200005F06DF902B010BDC046845A00207C
:10068000F0B5B5B007000E0014001449C92201A846
:1006900008F0ECFB013E11E06421200007F0FEFEB3
:1006A0004D006421200007F0F9FE04006A1C01AB34
:1006B0009A5CBA55721E5B5DBB54023E632CEBD84C
:1006C000092C08D96400621C01AB9A5C7A701B5D2E
:1006D0003B7035B0F0BD30343C70FAE7C0C906104D
:1006E000B0B507000C00083038600B680D00083505
:1006F0009D420AD03B608B68BB6063687B6025606D
:100700000023636023723800B0BD4B685A1C01336C
:10071000F3D0290008F0AAFBEFE70000F0B5CE46C1
:10072000474680B5B7B080460E0014001D00294929
:10073000C92203A808F09AFB731E994628E0642298
:1007400000232000290007F0E7FE00920193009AA1
:10075000019B16001F00B6185F4164220023200091
:10076000290007F0D9FE04000D0001220023921990
:100770007B4103A882181278434649465A544A1EC0
:1007800083191B7841468B5402235B429C46E1440B
:10079000002DD4D101D1632CD1D8002D02D115D197
:1007A000092C13D924196D410122002312196B4120
:1007B00003A98A18127843465A700B191B784246CF
:1007C000137037B0C0BCB946B046F0BD30344346B4
:1007D0001C70F6E7C0C9061010B50B68002B0DDBC6
:1007E000934205D95200934202D20A60002A08DBE4
:1007F0000868013008D408F03FFB10BD03482FF013
:10080000B1FA034B0B60F3E72FF074FA8CCA0610B1
:10081000FFFFFF7FF0B5C64600B584B006000D00AF
:1008200017001C1E12D0180007F0ECFD2323181A25
:1008300083089C467B1B63450AD36A46194B83CBCE
:1008400083C21B68136063465A1E12E02020EDE746
:1008500037608B2373601CE00F231F0027402009A3
:100860006946CF5DAF540340240A501ECB5C2B5425
:10087000023AFF2CF0D80F2C10D90F232340240963
:100880006A46D35C6B70135D2B7065443560002342
:100890007360300004B080BCB846F0BD6B461B5D91
:1008A0002B70F2E7A4CA0610F0B5C64600B50600E4
:1008B0000C0090461F000A211800FFF76DFD05008F
:1008C00043461B1B83420CD33A0001002000FFF774
:1008D000D7FE6419346000237360300080BCB846D2
:1008E000F0BD434633608B237360F6E7F8B506002E
:1008F0000D0017001C1E0CD0180007F083FD2223EA
:10090000181A032107F0CAFD7B1B834203D3431E41
:1009100011E02020F3E737608B2373601AE0072291
:1009200011002140E7083031E9543A40A409591E2A
:1009300030326A54023B3F2CF1D8072C0CD90723E4
:100940002340E40830336B7030342C702D18356040
:10095000002373603000F8BD30342C70F6E7F8B532
:1009600007000E0014001D1E0AD0180007F04AFDF3
:1009700020231B1AA21B9A4204D31F24241A0BE023
:100980002020F5E73C608B237B600DE001222A40AC
:10099000303232556D08013C002CF7D131223270D3
:1009A000F6183E6000237B603800F8BDF0B5D646EF
:1009B0004F464646C0B58AB08146884615001C00A1
:1009C000129E31001800FFF7E7FC82464346EB1AFF
:1009D00083420AD3471E01A9184B0A0023CB23C226
:1009E00023CB23C223CB23C214E04B461D608B23B1
:1009F0004A4653601AE03100200007F04FFD050021
:100A00003100200007F04AFD01AB5B5C4246D35544
:100A1000013F2C00A642EED901AB1B5D424613708C
:100A2000434653444A4613600023536048460AB085
:100A3000E0BCBA46B146A846F0BDC046B8CA0610EA
:100A400010B582B0040091420AD0002B0CD1303393
:100A50000B700131016000234360200002B010BD23
:100A600002608B234360F8E704980A280FD007DC64
:100A7000022810D0082812D12000FFF737FFECE73A
:100A8000049810280BD12000FFF7C4FEE5E72000F2
:100A9000FFF70AFFE1E72000FFF761FFDDE70498B9
:100AA00000902000FFF782FFD7E710B582B0040066
:100AB00091420AD0002B0CD130330B700131016010
:100AC00000234360200002B010BD02608B2343600E
:100AD000F8E704980A280FD007DC022810D008286D
:100AE00012D12000FFF702FFECE7049810280BD189
:100AF0002000FFF78FFEE5E72000FFF7D5FEE1E7D6
:100B00002000FFF72CFFDDE7049800902000FFF79E
:100B10004DFFD7E7F0B5D6464F464646C0B584B040
:100B200082460E0090460C9C0D9D23002B4314D052
:100B30002000290007F072FC4323181A83089C4602
:100B400043469B1B63450AD36A46244B83CB83C22F
:100B50001B68136063465A1E1AE04020ECE75346B8
:100B600042461A608B23524653602BE00F20270029
:100B70000740290723090B436946CF5DB75403405B
:100B80002806240A04432D0A501ECB5C3354023A33
:100B9000002DEBD101D1FF2CE8D8002D02D118D1C6
:100BA0000F2C16D90F2323402D0724092C436A4606
:100BB000D35C7370135D3370664453461E6000232C
:100BC00052465360504604B0E0BCBA46B146A8460F
:100BD000F0BD6B461B5D3370EEE7C046A4CA06103D
:100BE000F8B505000C0017000A2206980799FFF7D0
:100BF000F4FB06003B1B83420BD3069A079B0100C4
:100C00002000FFF78BFDA4192C6000236B602800E7
:100C1000F8BD2F608B236B60F9E7F8B5CE464746E9
:100C200080B581460E009046089C099D23002B4309
:100C30000FD02000290007F0F1FB4223181A0321EE
:100C400007F02CFC844643469B1B834203D3421E81
:100C500019E04020F1E74B4642461A608B234A4692
:100C6000536029E00720210001406F07E3083B4360
:100C70003031B1540340A906A4090C43AD09511EFB
:100C800030337354023A002DECD101D13F2CE9D816
:100C9000002D02D115D1072C13D9072323406D074E
:100CA000E4082C43303373703034347066444B4660
:100CB0001E6000234A4653604846C0BCB946B04651
:100CC000F8BD30343470F1E7F0B5C64600B5070022
:100CD0000E009046069C079D23002B430CD020005D
:100CE000290007F09BFB4021091A43469B1B8B42BE
:100CF00004D33F22121A0FE04020F4E743463B6042
:100D00008B237B6010E0012323403033B354EB0787
:100D100064081C436D08013A002AF4D13123337072
:100D200076183E6000237B60380080BCB846F0BD7A
:100D3000F0B5DE4657464E464546E0B58DB0824694
:100D400089461700169E179D189C22003000290026
:100D5000FFF743FB83464B46FB1A83420CD3030049
:100D6000013B009303A91F4B0A0083CB83C283CBB3
:100D700083C283CB83C21EE053461F608B2352463F
:100D8000536026E0E317984622003000290007F060
:100D9000C3FB01900F00220043463000290007F0FA
:100DA000BBFB03AB9B181B784A460099535401398F
:100DB0000091019E3D00002DE4D1B442E2D903AB85
:100DC0009B5D4A4613704B465B44524613600023BA
:100DD000536050460DB0F0BCBB46B246A946A04693
:100DE000F0BDC046B8CA061030B585B004000898FA
:100DF000099B91420BD005001D430CD130230B7091
:100E00000131216000236360200005B030BD226005
:100E10008B236360F8E70A9D0A2D13D009DC022DAD
:100E200016D0082D1AD1009001932000FFF7F5FE8F
:100E3000EAE70A9D102D11D1009001932000FFF7E1
:100E400069FEE1E7009001932000FFF7C9FEDBE7B0
:100E5000009001932000FFF737FFD5E70A9D029528
:100E6000009001932000FFF763FFCDE7F0B583B05A
:100E700006000F000C7801235C40E4B204346A469B
:100E80000E4B21CB21C23368186803685B682100D0
:100E90009847051E0FD0C0683B789B006A4699585A
:100EA000220007F0E3FF2B689B6821002800984789
:100EB000736801221A7003B0F0BDC04608600710C5
:100EC00070B504000D000368186803685B680121B1
:100ED0009847002809D02A78C3681A7003689B686D
:100EE00001219847636801221A7070BDF8B5CE469B
:100EF000474680B507000E68F30F9846002E22DBA8
:100F00000A213000FFF748FA05003B688146C144DA
:100F1000186803685B6849469847041E0FD0C0688C
:100F20002D230370404432002900FFF7A9FB2368FA
:100F30009B684946200098477B6801221A70C0BC14
:100F4000B946B046F8BD7642DAE7F8B506000F6854
:100F50000A213800FFF720FA050033681868036893
:100F60005B6829009847041E0ED0C0682D230370CB
:100F70003A002900FFF784FB23689B6829002000C2
:100F80009847736801221A70F8BDF0B5D6464F46EF
:100F90004646C0B505000A684B68D90F8946002B44
:100FA00027DB16001F000A2230003900FFF715FA70
:100FB00080462B68CA46C244186803685B6851467D
:100FC0009847041E10D0C0682D2303704844320097
:100FD0003B004146FFF7A2FB23689B685146200077
:100FE00098476B6801221A70E0BCBA46B146A84621
:100FF000F0BD10001900002746428F41D3E7F0B53D
:10100000C64600B580460E684F680A223000390097
:10101000FFF7E3F9050043461B68186803685B683F
:1010200029009847041E10D0C0682D230370320099
:101030003B002900FFF772FB23689B682900200012
:10104000984743465B6801221A7080BCB846F0BDE1
:10105000F0B583B006000F68380060F0F3FA0400C2
:10106000009001973368186803685B68210098470F
:10107000051E0CD0C0682200390007F0F7FE2B686F
:101080009B68210028009847736801221A7003B0FA
:10109000F0BD70B582B005006B4611C911C32B6855
:1010A000009E186803685B6831009847041E0CD0E6
:1010B000C0680199320007F0D9FE23689B683100AF
:1010C000200098476B6801221A7002B070BD0000C2
:1010D00010B503000800920011498A58974619007C
:1010E000FFF7C4FE10BD1900FFF7EAFEFAE719008A
:1010F000FFF7FCFEF6E71900FFF727FFF2E71900FC
:10110000FFF743FFEEE71900FFF779FFEAE7190061
:10111000FFF79EFFE6E71900FFF7BBFFE2E7C046D7
:10112000C835071010B5012A04D0002A04D007F0F2
:101130009DFE01E00B78037010BD70B582B0040015
:101140000E00551A01950F2D0ED8009420682A0024
:101150003100FFF7E7FF00220092019961602368E8
:101160005B181A7002B070BD002201A9FFF734FBB2
:101170002060019BA360E8E770B504000D00030048
:101180000833036000290AD0080060F05BFA2A18CF
:10119000002329002000FFF7D0FF200070BD014888
:1011A0002EF0C8FDE0CA061030B583B004000191EE
:1011B0000368020008329A4205D08268019B93427C
:1011C00003D803B030BD0F22F8E701A92000FFF7D4
:1011D00003FB0500216862680132FFF7A3FF2000CE
:1011E000FFF7CEF82560019BA360EAE770B5030026
:1011F0000D1A2D1101E01033013D002D10DD18688E
:101200001468844226D0181D5E68B44223D004308E
:101210009E68B4421FD00430DE68B442EBD11AE0BD
:10122000C81A801002280AD0032803D001280BD046
:10123000080010E01C68106884420DD004331C685C
:10124000106884420AD0043318681268904207D0AC
:10125000080000E0180070BD1800FCE71800FAE76D
:101260001800F8E710B50023FFF7C0FF10BD00001D
:1012700030B583B005000191064C2000183801AA52
:101280002100FFF7EFFF844201D00123AB7203B0CE
:1012900030BDC04654420710F0B5DE4657464E46B4
:1012A0004546E0B585B00500884617001E003F237F
:1012B00018003040334207D007F0A4F82023181A52
:1012C000103B0090444632E02020F7E73988019136
:1012D0000021884631148A4631B2029100208146AD
:1012E0000021785EC01384460299090C300C8142BB
:1012F00035D1604681B289452AD169460420085E0D
:101300000299414388B281426FD189B23980404607
:10131000C00772D400208446521891B28A4267D125
:101320003A806246D20766D42A6801322A602A6867
:10133000A24275D01278303AD2B2B24200DB77E0E6
:1013400000995B1AC2D43988714352183A80EBE78E
:1013500001990391494668460181B14609E0614619
:1013600089B289452BD1039651466846018181880F
:101370008946B1B2019848438446494688B26946D5
:1013800009898A460100504641430298000402D56B
:1013900048460004091A4846000401D50398091A72
:1013A0006046000C8146494408B2000C8146080C96
:1013B000814515D10904604680B20143A2E7019935
:1013C00071430120504480B201280BD8504680B2AE
:1013D000814502D1002995DC04E0002992DB01E07F
:1013E00001997143012080468CE7012080468CE7FB
:1013F00001218C4694E7210006E0210004E0002052
:1014000000E0002000280CD02A68531C2B608B427F
:10141000F5D05378303BDBB2B342F2DA0120F1E78A
:10142000012005B0F0BCBB46B246A946A046F0BDBF
:101430000120F6E730B585B0040001911100019D4F
:101440000E226A44002313800A3301A8FFF724FF09
:10145000002808D0019B9D4205D00E226A441288C4
:101460002280636002E0002323806360200005B0D7
:1014700030BD70B504000B78302B11D01800313816
:10148000C0B2082816D8303B9BB24D1C954204D000
:1014900048783038C0B2092808D92380656003E055
:1014A0000131002303804160200070BD2000FFF760
:1014B000C1FFF9E7002323806360F5E710B582B030
:1014C000040043681A787D2A0CD03A2A25D1027B81
:1014D000012A20D00222027301694A1C02610133F1
:1014E000436007E0037B012B13D0022303730169E0
:1014F0004B1C036123685B68200098476368A268FF
:101500009A422BD01A787D2A28D10133636002B029
:1015100010BD5AF063F95AF061F982681900684603
:10152000FFF7A7FF019B002B10D01A787D2A01D06E
:101530003A2A0BD16A461188227B022A08D001225E
:1015400022731A783A2A05D06360D3E75AF046F935
:101550005AF044F9013301936360CBE75AF03EF946
:10156000F0B5CE46474680B589B00500426883682D
:101570009B1A00930192022B0CD000227B2168461B
:10158000FEF7DAFF060000227D216846FEF7D4FF51
:10159000040043E013787B2BEFD153787D2BECD103
:1015A00013000133436003685B68027B012A06D0A5
:1015B0000222027301694A1C026198473DE05AF019
:1015C0000DF9012300E0002359B200292ED01B069B
:1015D00038D40134944200D181E0019B1B5D7D2B06
:1015E00000D07CE06F683F192B681B683900280029
:1015F000984701376F60AA68D21B06A906924F6010
:101600000822684607F032FC731C01D0361B013EED
:1016100000227D216846FEF78FFF0400009A002A11
:101620000BD0A642CFD0CCD2FF23CDE7A9682B6840
:101630001B6828009847AB686B6009B0C0BCB9460E
:10164000B046F0BD731C93422DD0621C27D0019A86
:10165000D35C98461A007B3A53425A416F689219FC
:10166000BF182B681B6839002800984701376F6046
:10167000AA68D21B02A902924F600822684607F0AE
:10168000F5FB43467B2B10D1631C01D0A41B023C0D
:1016900000227B216846FEF74FFF0600BEE7019A55
:1016A000D25C7B2AD3D05AF099F82800FFF706FFC6
:1016B0006A68AB689B1A04A904934A6008226846CA
:1016C00007F0D4FB00227B216846FEF735FF0600B9
:1016D00000227D216846FEF72FFF04009EE75AF0A6
:1016E0007DF8000030B583B00C0015000278254964
:1016F000895C092903D97B2A0FD003B030BD2200B1
:1017000001006846FFF796FE0198002803D06B465B
:101710001B882B80F1E75AF061F87A3A1A70411C65
:10172000A14210D043787D2B11D1069B1B7A012B4F
:101730000BD00223069A1372D3685A1C0698C26013
:101740002B80481CD9E75AF049F85AF047F8220094
:101750006846FFF78EFE019900290FD0A1420DD0F7
:101760000B787D2B0AD16B461B88069A127A022AC7
:1017700006D00122069802722B80E2E75AF02EF87A
:101780005AF02CF8B838071030B585B005000C00B9
:1017900011000F226A44002010702278302A15D0E0
:1017A000AA1D00930F236B442000FFF79BFF844288
:1017B0000AD00F236B441B78002B09D002226B78D0
:1017C00003218B4313436B7005B030BD5AF006F80C
:1017D0000122F4E770B586B004000D00684600925F
:1017E000019302A90B0044C844C30B4B236004AE11
:1017F0000822300007F03AFB059B6360049A9B18AF
:10180000A360002323732361013B6361034B2360C7
:10181000A561200006B070BD8C380710B0380710E5
:10182000F0B5C64600B5C8B00500009101929846D3
:1018300046A919AE1DAF469780234B6004AC082221
:10184000200007F013FB524B19931AAA0ACC0AC2C4
:101850001C97504B1993504B19939023F550043318
:1018600001225242F25000239932B3501893189536
:10187000009B022B2BD04E9B002B00D172E004ADBD
:1018800010224146280007F0F1FA189E10AC1022F1
:101890002900200007F0EAFA14964E9915A819F0CD
:1018A000BFFB0123237610AC09AD009A019B2100F8
:1018B0002800FFF78FFF2800FFF752FE149D237EBC
:1018C000002B61D1280048B080BCB846F0BD019B18
:1018D0001A787B2ACFD15B787D2BCCD100236C3A50
:1018E0006A44137018AA40920F226A44419242AA95
:1018F000137243461B781B071ED043461B681B0907
:101900001F22134042AA137243469B681A685B6801
:101910004292439304AC102242A9200007F0A6FA99
:10192000227A40A92000FFF7D3FB0F236B441B78DA
:10193000002BA0D0189DC5E743461B781B07E9D1B3
:1019400043461A6812091B791B0713434246526823
:1019500012091343DED043469968092242A807F0D2
:1019600085FAD7E704AD10224146280007F07EFA39
:10197000189E10AC10222900200007F077FA149668
:101980000023237523768EE715A819F03FFD99E70C
:1019900050380710643807109C38071003685B182C
:1019A0000360704770B586B0049085680595691C22
:1019B00081602B780F226A440124147001900292F6
:1019C0005AB2002A0BDB0F226A441278827300227B
:1019D0000273036001234373856006B070BDC12BA1
:1019E00000D88FE00469A14200D18DE0DF2B13D82D
:1019F0001F221A4069780B00803BDBB23F2B00D9D5
:101A000084E093013F220A4013430F226A440221DB
:101A10001170AA1C8260D6E7EF2B2FD8E02B2AD0BA
:101A2000ED2B25D08021BF260F221A406B789942DA
:101A30006ED89E426ED30F21694402260E70A91CF7
:101A400081608C4268D092013F210B401A43A978F3
:101A50000B00803BDBB23F2B60D893013F220A4052
:101A600013430F226A4403211170EA1C8260AAE723
:101A700080219F26D8E7A021BF26D5E7F42B4FD899
:101A8000F02B3CD0F42B37D08021BF2607221A4000
:101A90006B78994246D89E4246D30F21694402266C
:101AA0000E70A91C81608C4240D092013F210B40F6
:101AB0001A43A9780B00803BDBB23F2B38D80F23A9
:101AC0006B4401361E70EB1C83609C4232D0920145
:101AD0003F230B401A43E9780B00803BDBB23F2BDE
:101AE0002AD893013F220A4013430F226A4404215B
:101AF00011702A1D826066E780218F26C6E790213B
:101B0000BF26C3E70D4B5EE70C4B5CE70B4B5AE778
:101B10000A4B58E7094B56E7084B54E7074B52E787
:101B2000064B50E7054B4EE7044B4CE7034B4AE7A7
:101B3000024B48E7014B46E7004B44E7FDFF00003E
:101B400070B50400037B591C427B914203D0914243
:101B500016DB200070BD856800698542F7D0200043
:101B60000830A17B0022FFF719FFA26823699A427F
:101B700003D02000FFF716FFEBE700232373E8E70D
:101B800001332373E5E70000F0B5CE46474680B544
:101B90008FB081460C0015000B787B2B5FD007AB14
:101BA000079108926A4681CB81C28D4238D01700D6
:101BB0005160916000231373537393731561100088
:101BC000FFF7F0FE09AB98463A0043CA43C303CA85
:101BD00003C33800FFF7B4FF43461B7B9B0042461C
:101BE0009A58D8231B029A4214D2049B9D4217D0C4
:101BF00019783E291DD05E291DD03C2910D1012025
:101C00004946CA600A7803218A43024349460A705A
:101C1000581C1FE081214903134BD3188B42E4D396
:101C200023783E2B09D05E2B09D03C2B19D1012201
:101C300006E00220E4E70320E2E7022200E00322BC
:101C400020234946CB600B7803218B4313434A463C
:101C50001370601C0FB0C0BCB946B046F0BD0800A0
:101C6000F8E72000F6E7C0460020FFFFF0B58DB092
:101C700007000D00160008AC10220021200007F01C
:101C8000EFF820230B93113B1A00324012016178C8
:101C90000B40134363706B6807932B68069304AB88
:101CA0000497059401A806AA019207AA42608360DE
:101CB000FEF763FC002802D006980DB0F0BD079A2D
:101CC000069908A8FFF760FF069001A8FEF755FCEB
:101CD000002809D1069A13782B2B07D02D2B2AD058
:101CE000202B0CD1032102E00698E6E7012108A889
:101CF000890003780C24A3430B430370013206923E
:101D000001A8FEF73AFC002817D1069B1A78232A6F
:101D100015D0069301A8FEF730FC002816D1069BCB
:101D20001A78302A14D0069301A8FEF726FC002862
:101D300015D00698C1E70221D9E70698BDE708A9A2
:101D40000A78102002430A700133E2E70698B4E7EC
:101D500008A90A78402002430A700133E3E7079A92
:101D600006992B0008A8FFF70FFD069001A8FEF7C3
:101D700004FC00280BD1069B1A784C2A09D0069344
:101D800001A8FEF7FAFB00280AD0069895E7069806
:101D900093E708A90A78202002430A700133EEE78E
:101DA000069A1378423BD9B236290CD88B002E49BB
:101DB000CB589F4608A841780F23194011330B4395
:101DC00043700132069201A8FEF7D7FB002849D0E4
:101DD000069872E708A841780F23194021330B4376
:101DE000437001320692EEE7002EECD008A841784D
:101DF0000F23194061330B43437001320692E2E72F
:101E000008A841780F23194001330B434370013276
:101E10000692D8E708A841780F23194031330B43C5
:101E2000437001320692CEE708A841780F2319408B
:101E300041330B43437001320692C4E708A841784E
:101E40000F23194051330B43437001320692BAE716
:101E5000002EB8D108A94B780F2003404B700132F7
:101E60000692B0E759F0BAFC0036071010B5012A07
:101E700004D0002A04D05CF0E3FB01E00B7803708F
:101E800010BDF0B5CE46474680B583B004000E00C5
:101E9000170099464068431A9B1A98460A9B9C462D
:101EA0006044801A01902368220008329A421BD0B5
:101EB000A26801A92000FEF78FFC0500002E15D1B5
:101EC0004B46002B02D00A9B002B14D14346002B1B
:101ED00017D12000FEF754FA2560019BA36003B0E0
:101EE000C0BCB946B046F0BD0F22E2E7216832001F
:101EF000FFF718F9E4E7A8191A004946FFF712F9A5
:101F0000E4E70A9BF0182168F61989192818424657
:101F1000FFF708F9DDE70000F0B5C64600B584B06C
:101F2000040002930A9E4568531B26488446634476
:101F30009E4224D87719BF1A23682000083098429F
:101F400020D0A068B84236D358188046691A891A3A
:101F500002980390984202D35B19984214D9002941
:101F600001D0B24218D1002E1FD167602368DB195F
:101F700000221A70200004B080BCB846F0BD1248A0
:101F80002DF0F0FE0F20DDE70191009603004146A1
:101F900020003AF091F8E8E71300434442469019D4
:101FA0000A001900FFF762FFDDE7320002994046A0
:101FB000FFF7B8F8D9E70096029B2000FFF761FF12
:101FC000D3E7C046FFFFFF7F14CB06108B000168EC
:101FD000C91801607047F0B583B006001700091AF0
:101FE0008D1000E02500002D0FDD6C100196002201
:101FF000210001A8FFF7EAFF019B19683A689142A6
:10200000F0D21E1D2C1B013CECE7300003B0F0BDEC
:1020100010B582B003010F24234301930549064BF9
:10202000C818002301AAFFF7D6FF04380068204033
:1020300002B010BDE45C071070E5FFFF10B582B080
:1020400080000A4B984202D8002002B010BD032441
:10205000204301900649074BC818002301AAFFF747
:10206000BAFF043800682040EFE7C046010C0000CA
:102070003C420710ECF9FFFF10B50C68A24207D8EC
:10208000A41A9C4209D3496889180360416010BDB5
:102090000349044823002DF07DFE2300F3E7C046EA
:1020A00030CB06104CCB061070B582B004000B008C
:1020B00041685518006826000836B0420CD0A66862
:1020C000AE4210D3002A09D1656023685B19002253
:1020D0001A70200002B070BD0F26F1E740181900F9
:1020E000FFF720F8F0E7009200222000FFF7C9FE7A
:1020F000EAE7000010B54468044B1B1B9A4202D863
:10210000FFF7D2FF10BD02482DF02CFEFFFFFF7F2E
:1021100080CB061010B582B004004168C268521A24
:102120000091019204D09030FFF7E4FF6368E36010
:1021300002B010BD30B583B005000C004A68CB6812
:102140009B1A0092019307D1210090312800FEF7DD
:10215000C7FA280003B030BD0800FFF7DBFFF3E744
:10216000F0B5D6464F464646C0B5B6B0814602AE3B
:102170000291039234A90AAC0EAF349780234B60CE
:1021800006AD0822280006F071FE1A4B0A930BAB2D
:102190002A0003CA03C30D97174B0A93174B9A469D
:1021A0000A93902330AAE25000270433E750043307
:1021B000E75404AB984606CE06C310223EA9280079
:1021C00006F054FE00972B00049942465268200006
:1021D000FFF726FB21004846FFF7ACFF53460A9362
:1021E0002EA8FEF7CDF8484636B0E0BCBA46B14658
:1021F000A846F0BD5038071064380710783807102B
:1022000070B598B0040004A80491059212AD2A009C
:1022100042C842C21B780421017206930AA8069A9A
:10222000079B0A920B931C9B1B780693069A079BAD
:102230000C920D931D9B1B780693069A079B0E929A
:102240000F931E9B1B780693069A079B109211937F
:1022500014A90A780F239A43042632430A70149E65
:102260001E400B4A324314920A799A430A714A6813
:1022700013404B6088601022684606F0F7FD129903
:10228000139A2000FFF76CFF200018B070BDC04605
:1022900040082100F0B5C64600B5A2B008F0F0F83D
:1022A00014F0FEFE002800D0A4E014F0E5FD58482C
:1022B00008F0F8F857495848584B594A14F09EFE10
:1022C000002800D09FE0574808F0ECF8564B574ADA
:1022D0001A605748574BC15C574BC25C574BC35CA5
:1022E000574C045D5748009408F00CF9FEF756F976
:1022F000FEF78AF914F0E6FD534A544E544F3868FD
:10230000002503950295012401940094052390462D
:10231000310004F059F84F4938680395029501944B
:1023200000940523424604F04FF84B4A4B49386865
:102330000395029501940094052304F045F8484A5A
:10234000386803950295019400940623310004F047
:102350003BF8444905AD0BAA2800FEF70DFF424C9F
:102360002300002200212800FEF778F92800FEF75C
:1023700007F83E490CAD12AA2800FEF7FDFE230027
:102380000A2200212800FEF769F92800FDF7F8FF6E
:10239000374913AD19AA2800FEF7EEFE23001422D8
:1023A00000212800FEF75AF92800FDF7E9FF20AACE
:1023B000304B110021CB21C11B4B1B68591C981CB1
:1023C000DE1C1AAD0296019000912099219A2800F6
:1023D000FFF716FF2300282200212800FEF73EF910
:1023E0002800FDF7CDFF244805F020FC234803F02A
:1023F000EFF97FE7224808F055F80120404222B06B
:1024000080BCB846F0BD1F4808F04CF80120F6E744
:10241000ACCB0610C4CB0610D4CB06103075000030
:1024200004004000F4CB06104C6300206C590020DF
:1024300094500020D8080000D9080000DA080000F5
:10244000DB08000000CC061018CC061020CC0610CB
:102450003C50002038CC061050CC061058CC06104A
:102460006CCC061074CC0610D81E002088CC061048
:1024700098CC06101060071088130000845A0020C2
:1024800098CB0610E0CB061010B504000022FFF731
:10249000EDFB63780F2B03D823785C221A4200D11E
:1024A00010BD59F09BF910B504000722FFF7DEFBC1
:1024B00063780F229343702B01D0F02B03D1237844
:1024C0005C221A4200D110BD59F088F930B543683A
:1024D000026831CB31C21B68136030BD10B5036890
:1024E0001B6842681268934204D01B787D2B01D090
:1024F000002010BD8068FFF7E9FF0120F9E730B543
:102500004368026831CB31C21B68136030BD10B51F
:1025100003681B6842681268934204D01B787D2BC5
:1025200001D0002010BD8068FFF7E9FF0120F9E726
:1025300030B54368026831CB31C21B68136030BDCF
:1025400010B503681B6842681268934204D01B7878
:102550007D2B01D0002010BD8068FFF7E9FF01202E
:10256000F9E770B58CB006000C0008AD1022002110
:10257000280006F075FC20230B93636807932368FB
:10258000069304AB0496059501A806AA019207AA32
:1025900042608360FFF7D4FF002802D006980CB099
:1025A00070BD079A069908A8FFF7EEFA069001A8F1
:1025B000FFF7C6FF00280BD1069B1A78302A09D0F6
:1025C000069301A8FFF7BCFF00280AD00698E6E7AB
:1025D0000698E4E708A90A78402002430A7001330C
:1025E000EEE7079A0699230008A8FFF7CDF80690B2
:1025F000079B984204D00378702B08D0502B09D049
:1026000001A8FFF79DFF00280ED00698C7E701300C
:102610000690F5E708AA5178413B0B4010210B4387
:10262000537001300690EBE759F0D8F8F8B5040084
:10263000002303720B781B071B0F9A4220D20D68F0
:102640002D090879000705434B681B099000801885
:102650000600203E0CD4F3401F20034023728B68F9
:10266000D2009A1853681268226063602000F8BD97
:102670002026361AB3401E002B00C3403343EBE73D
:102680000B781B07F2D100270E6836090B791B0760
:1026900033434868000903D1B842E7D19342E5D9F2
:1026A0008968120189180922200006F0DFFBDDE7A6
:1026B00030B585B004000800110002782E2A1CD124
:1026C000451C1F3A6A44002010708D4217D022002A
:1026D000083200930F236B442800FFF703F8A84249
:1026E0000FD00F236B441B78002B0CD002229200DA
:1026F00063780C218B431343637005B030BD280011
:10270000EDE759F06BF80122F1E7000070B58CB0ED
:1027100006000C0008AD10220021280006F0A0FBE6
:1027200020230B93636807932368069304AB0496F6
:10273000059501A806AA019207AA42608360FFF7E7
:10274000CDFE002802D006980CB070BD079A0699FD
:1027500008A8FFF719FA069001A8FFF7BFFE0028A6
:1027600009D1069A13782B2B07D02D2B07D0202BBD
:102770000ED1032104E00698E6E7012100E00221E2
:1027800008A8890003780C25AB430B430370013282
:10279000069201A8FFF7A2FE00283AD1069B1A78FC
:1027A000232A38D0069301A8FFF798FE002839D1D4
:1027B000069B1A78302A37D0069301A8FFF78EFEC1
:1027C000002838D106990B782E2B0AD0079A2300BF
:1027D00008A8FEF7D9FF069001A8FFF77FFE0028A2
:1027E0002BD1079A0699230008A8FFF761FF0690EE
:1027F00001A8FFF773FE002821D1069B1A784C2A06
:102800001FD0069301A8FFF769FE002820D0069884
:102810009AE7069898E708A90A78102002430A70F8
:102820000133BFE706988FE708A90A7840200243E2
:102830000A700133C0E7069886E7069884E7069891
:1028400082E708A90A78202002430A700133D8E7FA
:10285000069A1378413BD9B226290CD88B002D4912
:10286000CB589F4608A841780F23194001330B43EA
:1028700043700132069201A8FFF730FE002847D0CE
:10288000069861E708A841780F23194011330B43DC
:10289000437001320692EEE708A841780F231940F1
:1028A00021330B43437001320692E4E708A84178D4
:1028B0000F23194031330B43437001320692DAE79C
:1028C00008A841780F23194041330B43437001326C
:1028D0000692D0E708A841780F23194051330B43E3
:1028E000437001320692C6E708A841780F231940C9
:1028F00061330B43437001320692BCE708A841786C
:102900000F2319408F3B0B43437001320692B2E70D
:1029100058F064FFDC36071070B58CB006000C0070
:102920000B680B934B680A9306AD10220021280018
:1029300006F096FA2023099304AB0496059501A8A6
:102940000BAA01920AAA42608360FFF7E0FD00280B
:1029500002D00B980CB070BD0A9A0B9906A8FFF72D
:1029600013F90B9001A8FFF7D2FD002801D00B98B6
:10297000F0E70A9A0B99230006A8FEF705FF0B90D3
:1029800001A8FFF7C4FD002801D00B98E2E70A9ADE
:102990000B99230006A8FFF78BFE0B9001A8FFF709
:1029A000B6FD002801D00B98D4E70B9B1A78732A48
:1029B00006D001A8FFF7ABFD002804D00B98C9E7AB
:1029C00001330B93F5E758F009FF70B582B00500AD
:1029D0000C00FEF7E9FB08220021684606F040FAE9
:1029E000009501946C602B681B1900221A7002B0CC
:1029F00070BD30B583B06C4600910192021D22CCAF
:102A000022C2009AD218C26003B030BDF0B585B0C2
:102A100004000D004268C3689B1A0092019313D111
:102A2000260090367768E91900223000FFF7CDFFC5
:102A30009023E1587268029103923B002000FFF757
:102A4000D8FF200005B0F0BDFFF764FBE8E7F0B564
:102A500083B004000E0047687D1C03680200083242
:102A60009A420BD083689D420AD82368DE55656080
:102A700023685B1900221A7003B0F0BD0F23F2E740
:102A8000012300930023002239002000FFF7F9F909
:102A9000EBE770B582B006000C0011001A00256843
:102AA0002D78002D0CD1A3681868002814D0636815
:102AB0001B68009030004AF095FA300002B070BDFB
:102AC00063681B68E06800680190A0680068009077
:102AD00030004AF09DFAF0E763681B6830004AF066
:102AE00075FAEAE7F0B583B004000E00013A4768D2
:102AF0006D468B184A1C01686846FFF7CAFF06CD71
:102B000006C763685A68002A03D11868801B03B09F
:102B1000F0BD0020FBE770B584B006000C0011008A
:102B20001A0025682D78002D0ED1A3681B68002B94
:102B300018D0029363681C685D68009401954CF09E
:102B400059F8300004B070BDE3681B680393A368B4
:102B50001B68029363681C685D68009401954AF0E5
:102B600065FAEEE763681C685D68009401954CF0B7
:102B700033F8E6E7F0B583B004000E00013A476889
:102B80006D468B184A1C01686846FFF7C4FF06CDE6
:102B900006C763685A68002A03D11868801B03B00F
:102BA000F0BD0020FBE730B585B002AB1A0030C99C
:102BB00030C2039B0299426800910021FFF7ACF9F3
:102BC00005B030BD30B583B06A4630C930C2019916
:102BD000009AFFF78FFA03B030BD70B505000C0006
:102BE0000B7E002B06D021001431280018F018FAB3
:102BF000280070BD0800143039F034F90123237621
:102C0000F1E770B505000C00036808300968220080
:102C100008328A4211D098421FD0AE68296061689C
:102C20006960A168A960002B19D02360A660002309
:102C3000636022681370280070BD6268A542F6D0F8
:102C4000002A06D162686A602B689B1800221A70FD
:102C5000EDE71800FEF766FAF4E70023DEE72260EE
:102C6000E5E7F0B5C64600B584B004000D0000925B
:102C70000193FEF799FA2368984602AE08220021D4
:102C8000300006F0EDF802942A0041466846FFF74E
:102C900029FF0390606023681B1800221A7004B09B
:102CA00080BCB846F0BDF0B5C64600B584B004009F
:102CB0000D0000920193FEF777FA2368984602AE62
:102CC00008220021300006F0CBF802942A00414689
:102CD0006846FFF74FFF0390606023681B180022CF
:102CE0001A7004B080BCB846F0BD10B504004B6843
:102CF0000A689A18436083600021017341738173ED
:102D000002619A4203D0FEF74DFE200010BD002361
:102D10000360FAE710B59200144B9B589F4658F099
:102D20005DFD58F05BFD58F059FD0068002800DBA0
:102D300010BD58F053FD0068FAE703684268002AA6
:102D400001DB1800F4E758F049FD0068F0E758F09F
:102D500045FD58F043FD58F041FD58F03FFD58F057
:102D60003DFD58F03BFD58F039FDC046783707105F
:102D700010B586B001006C461022684606F076F861
:102D8000227A05A96846FFF7C5FF06B010BD10B549
:102D900084B0427803231340012B04D0022B04D0CB
:102DA000002004B010BDC088FBE7C2886846FFF76A
:102DB0003DFC6846FFF7DCFFF3E710B584B04278CE
:102DC0000C231340042B05D0082B05D001204042D2
:102DD00004B010BD0089FBE702896846FFF726FCB6
:102DE0006846FFF7C5FFF3E770B504000D004668BD
:102DF00008005EF027FC864201D0002070BD2068EC
:102E0000002E07D0320029005BF0F6FB002803D12A
:102E10000130F3E70120F1E70020EFE770B505008E
:102E2000080014001A002B689A4208D89B1AA34283
:102E300009D369688918002C07D1200070BD0549A5
:102E400005482CF0A7FF1C00F3E7220006F00EF85F
:102E5000F3E7C046ACCC06104CCB061070B586B07C
:102E60000400009101924268C1688A1A83689B1A23
:102E7000029103931EE0029900232A006846FFF79F
:102E8000CDFFE3685B19E360019B5B190193009B35
:102E90005B1B009323681B68200098476268E0680A
:102EA000821AA3689B1A04A904904B60082202A806
:102EB00005F0DCFF039D009AAA42DCD2002A01D172
:102EC00006B070BD029900236846FFF7A7FF009A7D
:102ED000E3689B18E360F3E730B585B00400009128
:102EE0000192002902D1200005B030BD02AB6A4634
:102EF000190021CA21C10299039A2000FFF7AEFFF1
:102F0000F1E7F0B583B006000D001700002909D1E4
:102F10000EE0386821686268FFF7DEFF38603368CA
:102F20001B68ED1A346823689D42F2D8002D01D148
:102F300003B0F0BD2B00002221006846FFF79CF88B
:102F400038680099019AFFF7C7FF3860F0E710B5BD
:102F500082B04268891A0091019284692069FFF762
:102F6000BBFF206102B010BD70B582B004000D003F
:102F7000466808005EF066FB00902B0032000021DE
:102F80002000FEF7C9FF02B070BDF0B5CE4647463F
:102F900080B5884616009946079B089D00270024A7
:102FA00000E00137E91A32199446325D91420FDD93
:102FB00051B200290CDDFF2A0AD0AD1A4A46013A67
:102FC000A242EED90134EDE71A78027001330130E4
:102FD000AB42F9D107E019780170013AD2B201335E
:102FE0000130002AF7D13A00013F002A0DD04246B5
:102FF0000270624612780130F3E719780170013AE5
:10300000D2B201330130002AF7D12200013C002A5C
:1030100004D042460270325D0130F4E7C0BCB946CC
:10302000B046F0BD70B582B004000E0000680368C1
:10303000DB689847010063681A685B68A0684568A8
:10304000E06800682818019000953000FFF79DFFA8
:10305000050023691B68002B0FD063691B680133CF
:1030600007D0A3691B7803700135E2681368013348
:10307000136023691B68012B02D8A81B02B070BD26
:10308000E3681B680122A06852422900FFF7C6FED0
:103090002D18F2E782B0F0B583B004000D0008925D
:1030A0000993FEF781F8276808220021684605F099
:1030B000D7FE00942A00390008A8FFF7B3FF01905B
:1030C000606023681B1800221A7003B0F0BC08BCB3
:1030D00002B01847F0B5C64600B59AB00400069293
:1030E000079320AB1F78030008330360002343607D
:1030F000037238F099FE0100219818F0A3F8002817
:1031000004D020001AB080BCB846F0BD219821F050
:10311000FBFC050003689B68984767236B441870A5
:103120002B681B6913AE290030009847149B002BB5
:1031300004D167336B441B782E2B32D006AB9846F4
:1031400000222E211800FDF7F7F906001290002248
:1031500039004046FDF7F0F9864226D8119601362F
:1031600025D006991198091A1091099513AB0A9365
:1031700006AE0B9611AE0C9610AE0D9612AE0E96D4
:1031800067266E440F9640008C4684440BAA68461E
:10319000C2CAC2C0C0CAC0C02A0061462000FFF730
:1031A00079FF13A8FDF7ECF8ABE70600D6E7069B1E
:1031B0001193D6E710B5C3685A1CC26019704268F3
:1031C000C3689B1A82689A4200D010BD03681B68CE
:1031D0009847FAE770B586B00B6801A90C300A0071
:1031E00070C870C212C812C20398181A42425041E5
:1031F000C0B206B070BD000082B0F0B5D6464F46F2
:103200004646C0B592B005000E0014001B934B1E3D
:10321000012B00D8BFE003290FD0012A00D1C4E060
:10322000032A00D1C3E0022A00D1C2E0CB1F052B44
:1032300021D89B00664AD3589F46023C631E9C419E
:10324000E0B2A9E0082C04DC072C00DAB3E000208F
:10325000A2E00B3C012C00D8AFE001209CE0083C30
:10326000012C01D9012097E0002095E0093C631E64
:103270009C41E0B290E0042C00D1A0E00A2C00D1E7
:103280009FE0062C00D19EE0052E00D19DE0AB7A98
:103290009A46002B05D10A2E6DD00D2E70D001203C
:1032A0007AE02868FEF7CAFE0128F4D11BAA137B36
:1032B0009B009858FEF7C2FE0128ECD103A92B0011
:1032C0000C330A0083CB83C203CB03C200230193D8
:1032D0001CE04046FEF7B2FE012802D0022815D0BD
:1032E0002EE00023019311E003AA137B9B009B585F
:1032F00098460D93374B9946180018380DAA1900B7
:10330000FDF7B0FF8145E4D05346019303A8FEF7D3
:1033100017FC08AA130086C886C306C806C319008E
:103320001BAB0A0083CB83C203CB03C20A9A0F9B59
:103330009A42D9D108AB1A7B0DAB1B7B9A42D3D1F1
:1033400008A903AB0A0083CB83C203CB03C21BAB28
:1033500083CB83C203CB03C20A9A0F9B9A429AD1B2
:1033600008AB1A7B0DAB1B7B9A4294D1019B002BBF
:1033700091D0002010E02B7A022B8ED100200BE0A0
:10338000A64201D0012007E0687AC007C00F0123E0
:103390005840C0B200E0012012B0E0BCBA46B146CD
:1033A000A846F0BC08BC02B018470120F4E7012091
:1033B000F2E70120F0E70120EEE70020ECE7002033
:1033C000EAE70020E8E70020E6E70020E4E7C0465F
:1033D000B037071054420710F0B5CE46474680B5C7
:1033E0008FB00500C369994609A903000C330A0090
:1033F00051CB51C203CB03C20B9B4B454CD06B68E6
:10340000984604A92B000C330A0051CB51C203CBC0
:1034100003C216E06B7A01336B7222003100280080
:10342000FDF726FF05AB6A4683CB83C21B6813609A
:10343000049B220041462800FFF7DEFE00281ED133
:10344000A04604A8FEF77CFB09AA130052C852C389
:1034500006C806C30B9B994517D004AA137B9B0093
:103460009E583000FEF7D4FD040002003100280011
:10347000FDF73AF80D2CCDD000236B72CDE72E600E
:103480006C6000232B726B72AB7204AA2B000C339E
:1034900013CA13C303CA03C328000FB0C0BCB94684
:1034A000B046F0BDF8B507000C001E00551A05E047
:1034B00021783000FFF77EFE0134013D002DF7DC5E
:1034C0003C607E603800F8BD30B583B004006846CB
:1034D000FFF7E8FF009B2360019B6360200003B0BF
:1034E00030BD10B50400116852688A18FFF7ECFF70
:1034F000200010BD30B58BB004004068E3681B1A93
:10350000029003939422A258002A25DB9821615847
:10351000914218D2521A0021009101919A4228D268
:1035200008A908904A600822684605F09FFC23001D
:10353000903306AD1B6812496A462800FFF7D1FF99
:10354000079A9023E2506368E36003999822A35896
:103550005B18A3500BB030BD2300903304AD1B6843
:10356000074902AA2800FFF7BCFF059A9023E25002
:10357000E9E7082202A9684605F078FCD7E7C046CB
:103580000460071010B50B001100012B05D0002BB3
:1035900004D01A0005F064FC00E0027010BD0000C9
:1035A000F0B5C64600B582B004000F001D0008ABA0
:1035B0001B7898464368D11A1D48844661448D4261
:1035C00017D8EE18B61A206821000831814213D0AE
:1035D000A168B14212D3C019DB1B991A934213D0D0
:1035E000AA4211D0831840190A001900FEF73EFCC8
:1035F0000AE010482CF0B6FB0F21EAE70095002303
:1036000039002000FEF73DFC002D09D166602368DB
:103610009B1900221A70200002B080BCB846F0BD91
:103620002068C01942462900FFF7ACFFEEE7C0460C
:10363000FFFFFF7FC4CC061000B583B00B004168CC
:1036400000920022FFF7ACFF03B000BD10B5436845
:103650008B4206D304D9416003685B1800221A70BC
:1036600010BDC91AFFF7E8FFFAE710B584B00400EF
:103670004268C3689B1A009201939030C9180022D7
:10368000FFF7E4FF21001031029180230393002310
:1036900080222000FFF7ADF904B010BD10B582B054
:1036A0004468A14206D8009313000022FFF778FF78
:1036B00002B010BD024823000A0002492CF06AFB48
:1036C000FCCC0610E4CC061084B0F0B587B0050041
:1036D0000DAC0D910E920F9300230372437283720F
:1036E00003000C33220043CA43C303CA03C3119926
:1036F00001AA1300C1CCC1C305CC05C3039B9942E9
:1037000007D00DAA137B9B0098582860FEF780FC19
:103710006860280007B0F0BC08BC04B0184730B59A
:103720008DB0040002AB0291039205A90A0021CBDF
:1037300021C215001000FFF7D8FA0AAB6A4603CB86
:1037400003C207996A68AB682000FFF7BDFF20003D
:103750000DB030BD70B596B006000D000468002CA9
:1037600029D00AAC016842682000FFF7D8FF202268
:10377000210002A805F07AFB119B01930298FCF747
:1037800079FE0400A8420FD802A8FFF725FE01A980
:10379000FFF720FD00280ED10298FCF76BFE001900
:1037A00085420BD30400EFE712AB00221292139272
:1037B00003CB03C60024200016B070BD7168079AC1
:1037C000521A14AB1492159103CB03C6F3E710B54C
:1037D00094B000900191041E1DD00CAC0100019A20
:1037E0002000FFF79CFF2022210004A805F03EFBEB
:1037F000139B03930498FCF73DFE040003E0049838
:10380000FCF738FE241804A8FFF7E6FD03A9FFF72C
:10381000E1FC0028F3D0200014B010BD70B5040006
:103820000D00827300230373002906D0080004F002
:10383000E9FD2023181A072807DC25700023E37010
:10384000A37063700133637370BD0B2810DCAA0989
:1038500040235B42134323703F222A4080235B4274
:10386000134363700023E370A37002336373EBE7C9
:10387000102813DC2A0B20235B4213432370AB096F
:103880003F210B40802252421343637029400A4378
:10389000A2700023E37003336373D5E7AB0C0722F8
:1038A0001A4010235B4213432370290B3F2211401F
:1038B00080235B4219436170A90911401943A1702B
:1038C0002A401343E37004236373BDE730B583B02C
:1038D00004000090856801952B1D83602968D8231A
:1038E0001B02994206D201222000FFF797FFA56034
:1038F00003B030BD81225203024BCB189342F2D366
:103900000149F0E70020FFFFFDFF000070B5040053
:10391000037B591C427B914203D0914216DB20006D
:1039200070BD856800698542F7D020000830A17B12
:103930000022FCF77DFDA26823699A4203D0200093
:10394000FFF7C4FFEBE700232373E8E7013323739A
:10395000E5E784B0F0B58DB005001391149215938E
:103960000F230B9300240BE00B9BA3421CD913A83D
:10397000037BC35C661C2C192372FFF7C7FF34005E
:1039800013AB6A46C1CBC1C203CB03C2C1CBC1C218
:1039900003CB03C2029B079A9A42E5D16B461B7B7D
:1039A00005AA127B9A42DFD10A951EE0631C0B9395
:1039B00022000BA92800FCF70FFF0600296822004F
:1039C000FDF7B0FB2800FCF7DBFC2E600B9BAB6027
:1039D00002E00B9BA342E9D02B68661C13A8027B74
:1039E000825C1A55FFF792FF340013AB6A46C1CBD5
:1039F000C1C203CB03C2C1CBC1C203CB03C2029A73
:103A0000079B9A42E5D16B461A7B05AB1B7B9A421A
:103A1000DFD100220A926C602B681B191A700DB05E
:103A2000F0BC08BC04B01847F0B5D6464F46464631
:103A3000C0B5B4B00B9009910A923C9A20A800211D
:103A400001701EA920241E941F901D91032B0CD0E1
:103A5000022B10D0150000243D9B7E2B0ED81F2A70
:103A600077D81E92002A7BD074E05408023B1A409B
:103A700012191500F0E714000025EDE70C9328AEAD
:103A80000CAB994629932A9300239846337373739A
:103A9000B3730DAB9A462C933000FFF717FF2DAB95
:103AA0004A462E9252462F9242461A735A739A737E
:103AB0005246319242462D92524683CE83C203CE65
:103AC00003C21100C1CBC1C141CB41C10E0019AB32
:103AD000179343464B6007AB0021197002A90B00F6
:103AE00083CA83C303CA03C310AB6A4603CB03C2B2
:103AF0000D9953465A689B683000FFF72AFF179BC1
:103B0000726832A932924B6008221EA805F0AEF905
:103B100006E00B981E991F9AFFF7DEF90B90340010
:103B2000661E002CF5D10B9809990A9AFFF7D4F973
:103B30000B9006E00B981E991F9AFFF7CDF90B909A
:103B400025006C1E002DF5D10B9C17A8FCF718FC66
:103B500019E02022FF213D9B194020A805F080F9A3
:103B60000BAF1DAE3A0021003000FFF7CAF90B98E9
:103B700009990A9AFFF7B0F90B903A002900300032
:103B8000FFF7BFF90B9C200034B0E0BCBA46B14649
:103B9000A846F0BDF0B5DE4657464E464546E0B570
:103BA0009BB002AF040008203E18B96072607B60D1
:103BB00080231B18DB1919682000FFF7E8F80500BF
:103BC000242308201B18DB190022FA625A6003CE56
:103BD00003C323789B061ED4F96A8D4200D8A0E067
:103BE000E06822789207930F691A88468021082599
:103BF0004919C91909680E69B446002A00D0BEE007
:103C000023785B0600D4B8E07B68002B00D092E0FC
:103C100002233020B3E0542399464C3B9C46BC44DD
:103C2000E144783308329B18DB1919684846FEF7DF
:103C3000D4FF2C239A46243B9C46BC44E24449468C
:103C4000504617F0FBF956495046FFF7CDF881462C
:103C50005046FCF795FB4B46002B06D05423082218
:103C60009B18D81917F0D2FBB6E7543308229B18DB
:103C7000D81920F049FF814603681B690C2292463F
:103C8000043A9446BC44E2440100504698475346E7
:103C90005B68002B39D0FB6A98467A689B1A5B00F8
:103CA000944663440733DB08DB006946CB1A9D4624
:103CB0000F236B44DB08DB009A463B6B9B46002AD4
:103CC0002AD17B681A005A443A601E0056444B467B
:103CD0001B68DB684846984701007A69BB69C344A2
:103CE00058460190386800903000FFF74EF953466F
:103CF000C01A442308215B18DB19F86452465A6045
:103D000024225218D21903CB03C20C2308229B1879
:103D1000D819FCF735FBA1E71900504605F0A6F8C5
:103D2000CFE7802308229B18DB191B6818693A6BC0
:103D3000FFF7D2F82BE04C239946443B9C46BC4409
:103D4000E1441C3308329B18DC197D682B000022EB
:103D500021004846FEF790F9796D4B465A683000CD
:103D6000FFF7BAF884466368A9464B446360FB6A70
:103D70005B1BFB620223302001E002232020019024
:103D800042460092F96A3A6B6046FFF74DFEBD4627
:103D900019B0F0BCBB46B246A946A046F0BDC0462D
:103DA0007CDD0610F0B585B00290039115001C0073
:103DB0000AAB40CB1F7821003000FEF7E8FFA84295
:103DC00011D9451B33789B0702D03778BF07BF0F47
:103DD0002069F368019300953B000299039AFFF76D
:103DE00023FE05B0F0BD20690299039AFFF774F82D
:103DF000F7E710B586B00C0013000F2169440C7072
:103E0000012204920591019200900120FFF7CAFF60
:103E100006B010BDF0B59BB004000F001600457849
:103E20000F239D43702D2ED00822002105A805F0F8
:103E300017F800230393049363781B09042B58D0CD
:103E400026D8012B46D9202D20D04F4A0AAB02217B
:103E50000A910B9203AA21CB21C212AD00913B0023
:103E600027226A441D3169442800FCF7E9FD05ABAF
:103E700003CD03C32378DB0665D5039A002A5AD104
:103E80001F256D4461E0FFF7B4FF72E03F4ADDE7B4
:103E9000502D1DD03E490EAB02220E920F9103AA67
:103EA00021CB21C218AD102300933B0027226A4486
:103EB0001F2169442800FCF7C3FD05AB03CD03C3F4
:103EC00063780F229343602BD4D11F256D442EE0DD
:103ED0003049E0E714AD0A2300933B0027226A44EF
:103EE0001F2169442800FCF7ABFD05AB03CD03C3DC
:103EF000C0E7002F07D00CAB01220C92264A0D928E
:103F000003AA21CB21C216AD082300933B00272230
:103F10006A441F2169442800FCF792FD05AB03CDDC
:103F200003C3A7E7287859F0C1FC28700135059B29
:103F3000AB42F7D19EE71F256D44AD1A04992800C6
:103F400004F094FF01E01F256D4423781B079B0FAD
:103F50006A1E012B0FD0032B11D00599491B10911C
:103F600011951F236B445B1B00962A002000FFF76E
:103F700011FE1BB0F0BD15002A331370EDE7013DB3
:103F80001D332B701500E8E738CD061034CD061030
:103F900040CD06103CCD061010D7061010B5437862
:103FA0000F2B07D90F24A343702B03D0F02B04D180
:103FB000106901E0FFF71DFF10BDFFF72BFFFBE7C6
:103FC000F0B585B005000E0010220021684604F00F
:103FD00047FF202303932F68391D6846FEF763FAD5
:103FE00078602B689D6931782A006846FFF7D6FF14
:103FF000286105B0F0BD0000F0B5C64600B5A0B020
:1040000004000D00170046780F239E43702E32D017
:104010000822002105A804F023FF00230393049342
:10402000002D30DB2B0062781209042A5ED02ED8D6
:10403000012A4DD9202E28D0544910AA02208446A6
:104040001090119103A941CA41C118AE6246009275
:104050003D326A441F2169443000FCF726FD05AB60
:1040600003CE03C32378DB0669D5039A002A5ED109
:104070001F266E4465E0FF2903D8C9B2FFF7B9FED9
:1040800078E057F0ABFB6B42CDE74149D5E7502EC6
:104090001CD0404814AA02211491159003A941CACA
:1040A00041C11EAE102200922F326A441F21694482
:1040B0003000FCF7FAFC05AB03CE03C363780F2294
:1040C0009343602BCED11F266E442CE03248E1E7AB
:1040D0001AAE0A22009235326A441F216944300028
:1040E000FCF7E3FC05AB03CE03C3BBE7002D07D011
:1040F00012AA012112912949139103A941CA41C170
:104100001CAE0822009237326A441F2169443000F5
:10411000FCF7CBFC05AB03CE03C3A3E7307859F023
:10412000C5FB30700136059BB342F7D19AE71F26D5
:104130006E44B61A0499300004F098FE01E01F2680
:104140006E4423781B079B0F721E002D05DB012B8D
:1041500014D0032B16D0320001E02D2313700599E3
:10416000891A169117921F236B449B1A00972000FF
:10417000FFF710FD20B080BCB846F0BD013E2A33E9
:104180003370ECE7013E1D333370E8E738CD06109D
:1041900034CD061040CD06103CCD061010D70610C9
:1041A000F0B585B005000E0010220021684604F02D
:1041B00057FE202303932F68391D01226846FDF71F
:1041C00055FD78602B689D6931682A006846FFF7C5
:1041D00013FF286105B0F0BDF0B5A1B004000D00DB
:1041E000170046780F239E43702E2ED00822002100
:1041F00005A804F035FE00230393049363781B099C
:10420000042B5DD02BD8012B4BD9202E25D0524A20
:1042100010AB02211091119203AA41CB41C218AEFA
:1042200000912B003F226A441D3169443000FCF7A5
:104230003CFC05AB03CE03C32378DB066AD5039AA7
:10424000002A5FD11F256D4466E0FF2903D8C9B25B
:10425000FFF7CFFD74E057F0C1FA404AD8E7502E7F
:104260001DD03F4914AB02221492159103AA41CBF1
:1042700041C21EAE102300932B003F226A441F212F
:1042800069443000FCF711FC05AB03CE03C363782F
:104290000F229343602BCFD11F256D442EE031496F
:1042A000E0E71AAE0A2300932B003F226A441F2145
:1042B00069443000FCF7F9FB05AB03CE03C3BBE751
:1042C000002D07D012AB01221292274A139203AAA3
:1042D00041CB41C21CAE082300932B003F226A440D
:1042E0001F2169443000FCF7E0FB05AB03CE03C39C
:1042F000A2E7287859F0DAFA28700135059BAB421D
:10430000F7D199E71F256D44AD1A0499280004F0F0
:10431000ADFD01E01F256D4423781B079B0F6A1E2E
:10432000012B0FD0032B11D00599491B169117951E
:104330001F236B445B1B00972A002000FFF72AFC19
:1043400021B0F0BD15002A331370EDE7013D1D3398
:104350002B701500E8E7C04638CD061034CD0610A6
:1043600040CD06103CCD061010D70610F0B585B034
:1043700005000E0010220021684604F071FD202384
:1043800003932F68391D01226846FDF76FFC7860A2
:104390002B689D6931682A006846FFF71DFF286178
:1043A00005B0F0BDF0B5C64600B5AAB007001500CF
:1043B0001C0046780F229643702E35D0082200212B
:1043C00007A804F04DFD002305930693002C38DB6D
:1043D0002A0023007978090904296DD039D80129E8
:1043E0005AD9202E33D05E481AA90225AC461A9518
:1043F0001B9005A860C960C022AD61460291009281
:10440000019367226A44253169442800FCF7ECFCDB
:1044100007AB03CD03C33B78DB0678D5059A002AAA
:104420006DD127256D4474E0002C08D105D0E9B288
:10443000309A3800FFF7DDFC85E0FF2DF7D957F003
:10444000CDF928002100002342428B41C2E74548B4
:10445000CAE7502E1ED0444D1EA902201E901F9563
:1044600005A860C960C028AD102102910092019397
:1044700067226A44173169442800FCF7B5FC07AB92
:1044800003CD03C37B780F229343602BC3D1272531
:104490006D4430E0354DDFE724AD0A2102910092F2
:1044A000019367226A441D3169442800FCF79CFC93
:1044B00007AB03CD03C3AEE7254307D01CA90120FA
:1044C0001C902B481D9005A860C960C026AD08212E
:1044D00002910092019367226A441F3169442800C7
:1044E000FCF782FC07AB03CD03C394E7287859F0AF
:1044F000DDF928700135079BAB42F7D18BE7272503
:104500006D44AD1A0699280004F0B0FC01E027259F
:104510006D443B781B079B0F6A1E002C05DB012BAB
:1045200015D0032B17D02A0001E02D231370079913
:10453000891A2091219227236B449B1A309800906E
:104540003800FFF727FB2AB080BCB846F0BD013D1C
:104550002A332B70EBE7013D1D332B70E7E7C04694
:1045600038CD061034CD061040CD06103CCD0610D7
:1045700010D70610F0B587B005000E0002AC10226F
:104580000021200004F06CFC202305932F68391DC6
:1045900001222000FDF76AFB78602B689D69326874
:1045A000736800952000FFF7FDFE286107B0F0BD9D
:1045B000F0B5ABB0040015001E0047780F239F43F1
:1045C000702F2FD00822002107A804F049FC0023F7
:1045D0000593069363781B09042B65D031D8012B12
:1045E00052D9202F2BD0574A1AAB02211A911B9275
:1045F00005AA81CB81C222AF029100950196672264
:104600006A44253169443800FCF7EEFB07AB03CF61
:1046100003C32378DB0673D5059A002A68D12725C2
:104620006D446FE0002E08D105D0E9B2309A200029
:10463000FFF7DFFB7BE0FF2AF7D957F0CFF8424ABC
:10464000D2E7502F1ED041491EAB02221E921F916D
:1046500005AA81CB81C228AF102302930095019651
:1046600067226A44272169443800FCF7BDFB07AB89
:1046700003CF03C363780F229343602BC9D127254F
:104680006D4431E03249DFE724AF0A2302930095FD
:10469000019667226A44272169443800FCF7A4FB8D
:1046A00007AB03CF03C3B4E72B00334307D01CABE6
:1046B00001221C92274A1D9205AA81CB81C226AFF6
:1046C000082302930095019667226A4427216944D2
:1046D0003800FCF789FB07AB03CF03C399E72878C1
:1046E00059F0E4F828700135079BAB42F7D190E709
:1046F00027256D44AD1A0699280004F0B7FB01E0A8
:1047000027256D4423781B079B0F6A1E012B10D0B1
:10471000032B12D00799491B2091219527236B4425
:104720005B1B309A00922A002000FFF733FA2BB06F
:10473000F0BD15002A331370ECE7013D1D332B70DB
:104740001500E7E738CD061034CD061040CD061031
:104750003CCD061010D70610F0B587B005000E004E
:1047600002AC10220021200004F07AFB20230593E4
:104770002F68391D01222000FDF778FA78602B6838
:104780009D693268736800952000FFF711FF28616A
:1047900007B0F0BDF0B5C64600B592B004000E00FB
:1047A000150043780F2219009143702926D00F2B52
:1047B0002AD803AB05AA0392002204921A72037846
:1047C0009B0627D4002E4AD0264903AE3000FEF7C0
:1047D000CBFB049A03AE0399049810901191012326
:1047E000019300942B00FFF7DDFA04003000FBF783
:1047F000C7FD200012B080BCB846F0BD2A003100D1
:10480000FFF7F7FA0400F4E72A003100FFF702FB94
:104810000400EEE709AB984629001800FEF7DDF921
:10482000404620F071F90700404616F0EFFD002EDB
:104830000FD03B685B6939000AA898470AAF03AEFE
:1048400039003000FEF7DDF93800FBF799FD049AD6
:10485000C0E73B689B6939000AA89847EEE7024920
:10486000B3E7C04644CD06104CCD0610F0B585B078
:1048700005000E0010220021684604F0F1FA202302
:1048800003932F68391D6846FDF7FEFD78602B689D
:104890009D6931782A006846FFF77CFF286105B0E2
:1048A000F0BD30B585B00400029103921D0043783D
:1048B0001A0714D00C221A4216D02900FEF77DFAEE
:1048C000010002A8FEF746FF0200012301930094B5
:1048D0002B0002980399FFF765FA05B030BD2869EF
:1048E000039AFEF7F9FAF8E702980399FEF76FFFCB
:1048F0000200EAE770B582B005000C00160008005F
:104900005CF0A0FE0100009001943300220028001A
:10491000FFF7C7FF02B070BDF0B585B005000E000F
:1049200010220021684604F09BFA202303932F688D
:10493000391D6846FDF7F0FF78602B689D69316886
:104940002A006846FFF7D6FF286105B0F0BDF0B534
:1049500087B006000C0002AD10220021280004F0F0
:104960007FFA202305933768391D2800FDF7D4FF0F
:10497000786033689E696B4603CC03C333000099AB
:10498000019A2800FFF78DFF306107B0F0BD0000ED
:10499000F0B5DE4657464E464546E0B5D7B0040072
:1049A000099115003FAB41AA3F92002240921A7232
:1049B000083200211DA804F053FA06231C936378E3
:1049C0000C261E403200531E9A415F2304A98C46D8
:1049D00063441A70002E07D100231A9363781B09D1
:1049E0009B00CE4AD3589F4629002000FEF7E5F9E8
:1049F0001C90F1E76523029300275F2304AA9446E5
:104A0000634401221A7003231A93023B9B4628E059
:104A100000275F2304AA9446634401221A700223EC
:104A20001A936333029300239B461AE06523029393
:104A3000002701235F2204A98C46624413701A9355
:104A400000239B460DE065230293002763780F2225
:104A50009343202B01D07023029304231A93002345
:104A60009B465F2204A98C466244169209AA1792BB
:104A70001AAA18921CAA19921DAE3FAB6D2262446D
:104A800016A906A8FEF705F806AB320003CB03C251
:104A90001E9B8B2B32D03FAB04936D2604AB9C4600
:104AA0006644002F6ED1099B002B79DB22780C2302
:104AB0001340042B68D00C2B6CD00023039371E0BF
:104AC000502302930127C1E7452302930127B0E752
:104AD00001279EE74523029301278EE7002E07D08A
:104AE00003231A936233029300239B460027B8E7FF
:104AF0006523029300239B460027B2E71C9E0836DD
:104B00001A9B022B1FD0802E2ED931003FA8FCF714
:104B10004BFB16AB0A931DAB0B933F9A41AB9A42EA
:104B200025D0419949003FAE0A9A0B9B3000FEF711
:104B300098F83F9B591C409A9B1804931E9B8B2B03
:104B4000E7D00E00ADE700230A9309980AA967F0A1
:104B50002BFE0A9B002BD6DD71485843714903F0A8
:104B60009DFC86190136CEE780267600CDE70F2121
:104B7000D8E7387858F09AFE387001371D9BBB4251
:104B8000F7D190E73700F9E7013E273333702A3B2E
:104B9000039307E0013E143333701F3B039301E09E
:104BA000012303931D9B98469F1B1497159623780A
:104BB000DB0600D4E0E0099B5B005B0899465A499C
:104BC000181C04F0C0F8002800D0D5E0564948462B
:104BD00004F0B4F8002800D0CEE0082214A90AA8F6
:104BE00004F044F900222E210AA8FBF7A5FC059049
:104BF000431C28D0431C9A461A0002990AA8FBF7C6
:104C00009BFC8146030001330AD05B46002B34D065
:104C1000039AB35C302B05D04B469B1A013B20E036
:104C2000B946F2E753469F4204D9F25C302A08D1D4
:104C30000133F8E701235B429A464B4652469B1AE2
:104C40000FE09A46F9E7002202990AA8FBF774FCE4
:104C50008146030001330ED04B46039A9B1A4A4605
:104C600005925A46002A0BD01C9A9346002A09D076
:104C7000D31A9B4606E0B946EEE700239B4601E0C7
:104C800000239B464B46059A9B1A5A4253415B446C
:104C90009A46002B70D0409B002B04D1049B4246C7
:104CA0009B1A534516D2390051443FAE3000FCF7F1
:104CB0007BFA409B002B39D03023524649463FA80F
:104CC000FEF7ECFC059B99454DD13F9B2E224946B2
:104CD0005A5448E0484650443018B046C8444B4601
:104CE000FA1A414659F0ACFC059B99450FD03000AB
:104CF00048445A46302104F0B3F80B990A9A5244BA
:104D000045AB4592469114AA41CB41C234E0012300
:104D10009C46E1442D3342461370E8E7C83707103C
:104D2000A40F0000F5330000FFFF7F7F47AE4B4626
:104D300000220AA93000FDF79FF931003FA8FDF7D6
:104D400032FF059B994560D05B46002B62D149AE8E
:104D500001235B424A460AA93000FDF78DF9310074
:104D60003FA8FDF72FFF3F9B409A52A952924B60FC
:104D7000082214A804F07AF80EAA10AB0E930023B0
:104D80000F9313720CA80C934360082214A904F02B
:104D90006DF823789B060ED5099E760076084B4960
:104DA000301C03F0D0FF002805D14849301C03F027
:104DB000C5FF002834D029002000FDF7E8FF0C9F34
:104DC000B84252D9E16822789207930FC61B2D6929
:104DD000002A62D123785B065DD5099C64006408D3
:104DE0003A49201C03F0AFFF00286CD13749201C42
:104DF00003F0A4FF002866D1159B1B78344AD35CCE
:104E00000F2B39D80223302147E02E213FA8FDF790
:104E10001EFE99E7302259463FA8FEF70DFC96E7A3
:104E200051AE29003000FDF7D8FE4BAF0196029B32
:104E300000930C9A0D9B21003800FEF74BF93900C6
:104E40000EA8FDF7DEFE3800FBF79AFA300016F0E8
:104E5000DDFA0F9B002BAED00E9A54A954934A60F2
:104E600008220CA804F002F8A5E7286939000D9A79
:104E7000FEF732F8040018E00CAB98460D9C217840
:104E80002800FEF797F9013443465C60013F0C9718
:104E90000223302101E002232021019100960C9988
:104EA0000D9A2800FEF7C0FD04000EA8FBF768FA73
:104EB0003FA8FBF765FA200057B0F0BCBB46B246EE
:104EC000A946A046F0BD02232021E6E7FFFF7F7F31
:104ED000B8380710F0B585B005000E00102200218B
:104EE000684603F0BDFF202303932F68391D6846F1
:104EF000FDF70CFC78602B689D6931682A006846D4
:104F0000FFF746FD286105B0F0BD0000F0B5DE46B4
:104F100057464E464546E0B5D7B00400089209937F
:104F20003FAB41AA3F92002240921A720832002100
:104F30001DA803F095FF06231C9363780C251D40E4
:104F40002A00531E9A415F2304A98C4663441A70B9
:104F5000002D07D100231A9363781B099B00CA4ACE
:104F6000D3589F4660992000FDF727FF1C90F1E77A
:104F70006523029300265F2304AA9446634401221A
:104F80001A7003231A93023B9B4628E000265F23F6
:104F900004AA9446634401221A7002231A936333CD
:104FA000029300239B461AE0652302930026012307
:104FB0005F2204A98C46624413701A9300239B4617
:104FC0000DE065230293002663780F229343202B84
:104FD00001D07023029304231A9300239B465F227F
:104FE00004A98C466244169208AA17921AAA18922B
:104FF0001CAA19921DAD3FAB6D22624416A906A8EA
:10500000FDF789FD06AB2A0003CB03C21E9B8B2B49
:1050100032D03FAB9A466D2504AB9C466544002ECA
:105020006ED1099B002B79DB22780C231340042BD3
:1050300068D00C2B6CD00023049371E050230293B2
:105040000126C1E7452302930126B0E701269EE72A
:105050004523029301268EE7002D07D003231A93E0
:105060006233029300239B460026B8E76523029330
:1050700000239B460026B2E71C9D08351A9B022B95
:105080001ED0802D2ED929003FA8FCF78DF816AB35
:105090000A931DAB0B933F9A41AB9A4225D041999D
:1050A00049003FAF0A9A0B9B3800FDF7FCFD3F9B80
:1050B0005D1C409A9B181E9A8B2AE8D09A46AEE750
:1050C00000230A93089809990AAA67F095FB0A9B9E
:1050D000002BD6DD6D4858436D4903F0DFF94519C3
:1050E0000135CEE780256D00CDE70F21D8E7307878
:1050F00058F0DCFB307001361D9BB342F7D190E7CE
:105100002E00F9E7013D27332B702A3B049307E07B
:10511000013D14332B701F3B049301E001230493E2
:105120001D9B99465B1B9846149315952378DB06C7
:1051300000D4D7E0089E099B5B005F080122524221
:10514000544B3000390003F06AFC002800D0C9E05D
:10515000012252424F4B3000390003F05BFC002823
:1051600000D0BFE0082214A90AA803F07FFE0022A5
:105170002E210AA8FBF7E0F90590431C23D0471C19
:105180003A0002990AA8FBF7D7F90600431C09D098
:105190005B46002B2ED0049AAB5C302B04D0B31AA4
:1051A000013B1BE04646F3E74246BA4204D9EB5DB9
:1051B000302B06D10137F8E7904601277F42F31BD9
:1051C0000CE09046FBE7002202990AA8FBF7B4F92D
:1051D0000600431C0CD0049BF31A05965A46002A7D
:1051E0000BD01C9A9346002A09D0D31A9B4606E09E
:1051F0004646F0E700239B4601E000239B46059BC3
:10520000F71A7B425F415F44002F6BD0409B002B1D
:1052100004D153464A469B1ABB4215D24346D9197C
:105220003FAD2800FBF7C0FF409B002B34D030235C
:105230003A0031003FA8FEF731FA059B9E4248D163
:105240003F9B2E229A5544E0F0192818AB19994635
:1052500043469A1B494659F0F3F9059B9E420ED0EE
:10526000A8195A46302103F0FBFD0B990A9AD2196E
:1052700045AB4592469114AA21CB21C232E00136BA
:105280002E234A461370EBE7EC370710A40F0000FB
:10529000F5330000FFFFEF7F47AD330000220AA97E
:1052A0002800FCF7E9FE29003FA8FDF77CFC059BE0
:1052B0009E4276D05B46002B78D149AD01235B42FC
:1052C00032000AA92800FCF7D7FE29003FA8FDF705
:1052D00079FC3F9B409A52A952924B60082214A835
:1052E00003F0C4FD0EAA10AB0E9300230F931372AC
:1052F0000CA80C934360082214A903F0B7FD23788F
:105300009B0615D5089E099B5B005F08012252424F
:10531000534B3000390003F082FB002808D10122F2
:1053200052424F4B3000390003F074FB002843D049
:1053300060992000FDF72BFD0C9FB84261D9E16810
:1053400022789207930FC51B609800698146002A56
:105350006DD123785B0668D5002300240293039463
:10536000089B0293099B5B005B0803930122524256
:105370003B4B0298039903F052FB00286DD10122A8
:105380005242374B0298039903F044FB002864D142
:10539000159B1B78334AD35C0F2B3AD8022330215C
:1053A00045E02E213FA8FDF752FB83E73022594606
:1053B0003FA8FEF741F980E751AD60992800FDF75D
:1053C0000CFC4BAE0195029B00930C9A0D9B2100A7
:1053D0003000FDF77FFE31000EA8FDF712FC300013
:1053E000FAF7CEFF280016F011F80F9B002B9FD084
:1053F0000E9A54A954934A6008220CA803F036FD73
:1054000096E7609B186939000D9AFDF765FD040069
:1054100015E00D9C21784846FDF7CCFE01340D9433
:105420007B1E0C930223302101E0022320210191F5
:1054300000950C990D9A4846FEF7F6FA04000EA85E
:10544000FAF79EFF3FA8FAF79BFF200057B0F0BC89
:10545000BB46B246A946A046F0BD02232021E6E79E
:10546000FFFFEF7FB8380710F0B587B005000E00DA
:1054700002AC10220021200003F0F2FC202305934F
:105480002F68391D2000FDF741F978602B689D6970
:105490003268736800952000FFF738FD286107B077
:1054A000F0BDF0B587B005000E0002AC102200215F
:1054B000200003F0D5FC202305932F68391D200020
:1054C000FDF724F978602B689D6932687368009550
:1054D0002000FFF71BFD286107B0F0BDF0B5C64600
:1054E00000B58EB005000B00170007AC102200922B
:1054F00016326A441E21694405A8FBF7D6FA059EB8
:10550000331B984630232370483363706B780F2227
:105510009343102B1AD003AB002203920492464609
:105520000AAC0A9607AA0B9203CC03C32B785B063E
:1055300036D539002800FDF72AFC0400864212D334
:1055400038690399049AFDF7C7FC32E0493262706A
:105550001E246C4404E0207858F0A8F9207001342F
:10556000A642F8D1D7E73F690CAE03AD0223002273
:1055700029003000FCF780FD0C990D9A3800FDF7EA
:10558000ABFC049A02320492039902390391434618
:10559000E41A3023019300942E3BFEF745FA08E00D
:1055A0000223019300953B00424603980499FEF7BD
:1055B000F9FB0EB080BCB846F0BDF0B585B0050073
:1055C0000E0010220021684603F04AFC20230393BA
:1055D0002F68391D6846FCF7C4FF78602B689D6909
:1055E00031682A006846FFF779FF286105B0F0BDF1
:1055F00010B50300080092001D498A58974656F0DE
:10560000EDF81900FFF732F910BD1900FEF7D8FCCC
:10561000FAE71900FEF7C4FDF6E71900FEF7A6FE4B
:10562000F2E71900FEF7A6FFEEE71900FFF794F87E
:10563000EAE71900FFF74EFCE6E71900FFF714FF51
:10564000E2E71900FFF72DFFDEE71900FFF764F925
:10565000DAE71900FFF77BF9D6E71900FFF7ADFF8E
:10566000D2E70268101D91695C681A68A047CBE711
:105670001038071030B58BB00A000590816906AD6F
:105680002800FCF7D3FF6C4610222900684603F07F
:10569000EDFB227A05A96846FFF7AAFF0BB030BDE3
:1056A00010B582B00024009407F040FF831C07D09F
:1056B000013003D10548049904F024FF02B010BD65
:1056C0000348049904F01EFFF8E7C04668CD0610B1
:1056D00088CD061000B585B003AA00231370517061
:1056E000C1784068034B00930223FFF7D9FF05B050
:1056F00000BDC04698CD0610F0B589B005000E007B
:105700001400C8B22870D7B26F70D208D2B2AA7093
:10571000EB700E9B6B6050432861013003F080FBFF
:10572000E860002841D00130E86001ABAE221A7079
:1057300027325A70553A9A702832DA70013F1F7139
:105740002B325A7100229A714032DA714D321A723C
:105750002A7A002A2BD0102101AB5972A12199720B
:105760002731D972123119736400A64221DDD8396C
:1057700001AB5973812199737E31D973263919741C
:10578000002A18D0222201AB5A74DB229A74AB3A59
:10579000DA7474321A7502325A7509329A758F3A70
:1057A000DA7500221A7600240DE028610EE014213B
:1057B000D2E71221DCE7F122E5E701AB195D280011
:1057C000FFF788FF0134182CF7D9012009B0F0BD8C
:1057D00010B50300C0681A69002103F041FB10BD39
:1057E00010B503788B420DD9447894420AD9C46825
:1057F000D00843435918635C0720104001228240BF
:105800001343635410BDF0B5D6464F464646C0B567
:105810008146884617009A46089E002509E0E2194D
:105820004346E9184846FFF7DBFF0134B442F6D39C
:105830000135554501D20024F8E7E0BCBA46B1462F
:10584000A846F0BDF0B5DE4657464E464546E0B5A3
:1058500089B08246894693461E0012AA08CA10786B
:10586000DA78824248D81A79824245D31978CC082E
:1058700007220A40511E8A41A218059200254A4675
:10588000039204932B00079024E0013464B27F0854
:10589000072C10DCFB07F8D5EA00A21872435A4423
:1058A00049467143039B9C46614400963300504631
:1058B000FFF7A9FFE9E701239C46E0440135059B7A
:1058C0009D4204D2049B42469F5C0024E0E7069B75
:1058D0000133DBB2049A52789A420DD90499C978FF
:1058E0000798411A4A439946D21805994A43053206
:1058F000904600250693E2E709B0F0BCBB46B246ED
:10590000A946A046F0BDF0B5D6464F464646C0B5BE
:1059100082B08246914698460A9F0B9E0D000EE08B
:1059200001360193009743464A4629005046FFF747
:1059300089FF7C78BB78E41843465C432D193378A3
:10594000002BEDD102B0E0BCBA46B146A846F0BD8E
:1059500030B585B0050002AB21221A7000215970C4
:105960000278501E98702220D8701971A9780139D8
:105970005971402A01D000240AE0202159701F32B9
:105980009A70F8E702AB195D2800FFF7A3FE013417
:10599000052CF7D9EB68013B40221A70EA68013AFE
:1059A0002B690133E9786868024C0094FFF778FEB0
:1059B00005B030BDA8CD0610C288531C9BB2C38071
:1059C000002B01D10232C280C08870470388C21800
:1059D000117101339BB20380FF2B01D90023038097
:1059E00070474388C0180430704703884088181AED
:1059F00080235B02984201D30130FF3080B27047B0
:105A0000002800D00060704710B5FFF7DFFF10BD21
:105A100070B505000C00090AFFF7D8FFE1B22800B5
:105A2000FFF7D4FF70BDF8B507000E001500002485
:105A300005E0315D3800FFF7C9FF0134A4B2AC4284
:105A4000F7D3F8BDF8B506000F001500110AFFF7EF
:105A5000BDFFE9B23000FFF7B9FF002405E0395D72
:105A60003000FFF7B3FF0134A4B2AC42F7D3F8BD66
:105A700070B5050004A8007805AC2488D60008227B
:105A8000324009010A4352B2590006230B401A431F
:105A900052B2012101401143C9B22800FFF7B4FFFF
:105AA00007E000231943C9B22800FFF7ADFFE4095E
:105AB00006D07F2121407F2CF3D980235B42F1E780
:105AC00070BD10B54368002B04D08068022902D84D
:105AD0000021984710BD0D214942FAE770B5061E16
