:020000041000EA
:1000000000B5324B212058609868022188439860DF
:10001000D860186158612E4B002199600221596106
:100020000121F02299502B49196001219960352056
:1000300000F044F80222904214D00621196600F024
:1000400034F8196E01211966002018661A6600F04E
:100050002CF8196E196E196E052000F02FF8012189
:100060000842F9D1002199601B49196000215960AB
:100070001A491B48016001219960EB211966A021F2
:10008000196600F012F800219960164914480160C1
:100090000121996001BC002800D000471248134993
:1000A000086003C880F30888084703B5996A0420EC
:1000B0000142FBD001200142F8D103BD02B5186610
:1000C0001866FFF7F2FF186E186E02BD00000240BE
:1000D000000000180000070000035F00212200005C
:1000E000F4000018222000A00001001008ED00E03C
:1000F00000000000000000000000000074B24E7A12
:1001000000200420F7010010CB010010CD010010E9
:10011000C9010010C9010010C9010010C901001077
:10012000C9010010C9010010C9010010CF01001061
:10013000C9010010C9010010D1010010D301001045
:10014000C1010010C1010010C1010010C101001067
:10015000C1010010C1010010C1010010C101001057
:10016000C1010010C1010010C1010010C101001047
:10017000C1010010C1010010C1010010C101001037
:10018000C1010010C1010010C1010010C101001027
:10019000C1010010C1010010C1010010C101001017
:1001A000C1010010C1010010C1010010C101001007
:1001B000C1010010C1010010C1010010C1010010F7
:1001C000EFF30580103800BE00BE00BE00BE00BECA
:1001D00000BE00BEF2EB8871EC300B1010310B103A
:1001E0003802001090A31AE71E481F49086006C88D
:1001F00081F3088810471D480068002801D019487D
:10020000F3E70DA40ECC002902D000F012F8F9E7B4
:100210001749184A002000E001C19142FCD116495B
:100220008847164988471649884700BEFDE701C937
:1002300001C29A42FBD3704710310B10E00000203E
:10024000A02F0020D05F0B1000000420000004202D
:10025000D05F0B10001004200010042000000000EC
:10026000704700000000000008ED00E0000000D032
:10027000A02F0020F015012039480010690300105C
:10028000F9470010F8B5C04606480749091A8B100F
:10029000C90FC91810B5491003D0044B002B00D06A
:1002A000984710BDA02F0020A02F002000000000C4
:1002B000054B10B5002B03D00449054800E000BFF2
:1002C000FFF7E2FF10BDC0460000000084020120DD
:1002D000C835061010B51400632004F00BFC002C88
:1002E00003D1044804F014FC10BD0348210004F0BD
:1002F0003FFCF9E7C8350610F035061010B584B09C
:10030000124B039300F058FD114B1860002819D0D0
:10031000104C1C220021200003F0D8F80E4B236063
:10032000612004F0E7FB0D4B094A1068019400229C
:1003300000920B4A03A900F047FD622004F0DAFBAB
:1003400004B010BD074804F0E3FBF9E70A0000EA37
:10035000DC520020E052002038360610D502001092
:100360005B0700001836061010B582B004F0BEFB23
:1003700011F014F900283FD12548264907F036FB33
:100380000321082000F016FF0321092000F012FFCE
:1003900000220121082000F027FF0022012109206E
:1003A00000F022FF10F0E6FF1B4804F0B1FB1B49F0
:1003B0001B481C4B1C4A11F09FF8002823D11B48F6
:1003C00004F0A6FB1A481B4BC15C1B4BC25C1B4BC9
:1003D000C35C1B4C045D1B48009404F0C9FBFFF791
:1003E0008DFF642004F086FB174820212FF034FC99
:1003F00016492FF061FBFEE7154804F089FB012048
:10040000404202B010BD134804F082FB0120F8E71F
:10041000A81E0020801A0600543606106C360610FE
:100420007C36061030750000040040009C36061033
:1004300034530020D8080000D9080000DA08000072
:10044000DB080000A8360610FC440020C47A061021
:1004500040360610883606100388C2181171013321
:100460009BB20380FF2B01D9002303807047438890
:10047000C0180430704703884088181A80235B0234
:10048000984201D30130FF3080B27047002800D07D
:100490000060704710B5FFF7DFFF10BD70B50500B5
:1004A0000C00090AFFF7D8FFE1B22800FFF7D4FFDC
:1004B00070BDF8B506000F001500110AFFF7CCFF5C
:1004C000E9B23000FFF7C8FF002405E0395D3000D5
:1004D000FFF7C2FF0134A4B2AC42F7D3F8BD70B548
:1004E000050004A8007805AC2488D6000822324014
:1004F00009010A4352B2590006230B401A4352B273
:10050000012101401143C9B22800FFF7C3FF07E0F2
:1005100000231943C9B22800FFF7BCFFE40906D045
:100520007F2121407F2CF3D980235B42F1E770BD0E
:1005300010B54368002B04D08068022902D800213E
:10054000984710BD0D214942FAE7000010B54C1C38
:10055000A4B200280ED00134A4B2C909FBD1FFF720
:100560008AFF80235B001B1AE00FDA17A342504179
:10057000C0B210BD014800F009FFC046C0360610E9
:1005800010B5FF2909D84388591889B24180FF293D
:1005900002D90139FF39418010BD014800F0F6FE53
:1005A000E436061070B506000D00002801D004687E
:1005B00006E00F4800F0EAFE2000FFF767FF34680E
:1005C000002D13D0002C11D0E3899D420CD3DBB257
:1005D000ED1AEDB2236833606368002BECD0032181
:1005E000A06849429847E7E75B1BE38170BDC046BE
:1005F0002437061070B5051E01D0006806E00648D5
:1006000000F0C4FE0468FFF741FF20000028F9D184
:1006100000232B6070BDC0464C37061010B5041E79
:1006200009D000680022002808D083898B4205D0B9
:1006300002000068F7E70B4800F0A8FE00280CD085
:10064000002A0BD0036813600368002B03D0DA89FB
:10065000C1895218DA810023036010BD036823604A
:10066000F2E7C0467037061010B5002801D000230D
:1006700007E0054800F08AFE1A0182181260013373
:10068000DBB28B42F8D310BD90370610F0B583B0C3
:1006900005000E00FFF7EFFE6A8880235B009B1ABF
:1006A00098420DDA6423F75A0300002F21D0002B63
:1006B0001FD0BB420BD28342A44164421F0007E01B
:1006C00080235B009B1A9BB26422B75AEDE700249B
:1006D0002800FFF7CCFE0100002C0CD003233A00C9
:1006E00030000CF0EDFA002803D1002C05D10028D1
:1006F0002CD003B0F0BD0123F1E739002800FFF74B
:100700003FFF6423F75A3C002800FFF7B4FE019036
:10071000698880235B005B1A984213DA0200A242C8
:1007200006DC019A9A420FDB80277F007F1ABFB256
:100730002800FFF79CFE010001233A0030000CF076
:10074000BFFAD4E71A00EAE70700F1E7390028000A
:10075000FFF716FF30000CF05BFFCAE710B5837A95
:10076000032B01D0002010BDEC30FFF78FFFF9E71D
:1007700070B50500837A032B01D0002070BD0023E3
:100780000380838002E02000FFF780FE28001830FD
:100790000021FFF743FF041E06D06368002BF2D050
:1007A000A06800219847EEE7E9682800EC30FFF7E1
:1007B0006DFFE2E7F0B5C64600B582B0040088469A
:1007C00017001E000500EC3502212800FFF7BEFED1
:1007D000002816D002230193002300933300002247
:1007E00041462800FFF77BFE39002800FFF756FE40
:1007F000E1682800FFF74AFF002002B080BCB8463D
:10080000F0BD01204042F8E7F0B5DE4657464E46BF
:100810004546E0B583B0040015001E006C23C35CA0
:100820001F09806E81422CD801928A18802A2BDC05
:10083000022F2FD00D2F00D1EFE0032F49D0012D33
:1008400000D802E10C9B1B781B020C9A52781A43C9
:1008500000D1FDE00B2F00D9FDE00123BB40A92111
:1008600009010B4200D0BAE0590600D5B0E09B0662
:1008700000D4F3E0012306212000FFF79BFF0027AF
:100880000CE07A4800F082FD794804F071F9802785
:100890007F0003E0A37A022B08D00027380003B0C2
:1008A000F0BCBB46B246A946A046F0BD012D00D81B
:1008B000B0E00C9B5F78002FF0D10023238003333E
:1008C000A3726369002BE9D021693A0020009847A0
:1008D000E4E75B081F40B846904227D02F00002372
:1008E0009946002F01D1002ED8D14B46DB199D42ED
:1008F00000D2A3E0256E002D07D00C994944734225
:100900007341DBB2E06D3A00A847002E00D098E0BA
:100910004346002B00D196E0012B57D005212289B8
:1009200000232000FFF746FF0027B7E78020401A8A
:10093000002F32D002214B1C019A9A426FDD0C9B92
:100940001B781B020C9A52789B189BB28A1CAA1A1D
:10095000934267DC421A023A934266D80C9A911C81
:100960009A1C92B2914617004246002A17D00222E2
:10097000BA1882425CD84246002A12D0BA1C95426C
:1009800059D30C9AD25D12020C98C01940781218F3
:1009900022811A1D92B2914605E00021CBE7012287
:1009A000E6E700222281CA189246CB5C9B460023D0
:1009B00013704B46EF1ABFB2636E002B02D0BA1908
:1009C000E06D984753465A461A708AE70421A6E715
:1009D000002307212000FFF7EDFE00275EE720003F
:1009E00018301100FFF71AFE041E3AD0092F0AD062
:1009F0004368002B02D08068002198472000FFF751
:100A000045FD00274AE7022D2DD90C9B9978FFF769
:100A10008FFDF3E780277F0040E700273EE7802730
:100A20007F003BE780277F0038E780277F0035E79E
:100A300080277F0032E780277F002FE780277F0015
:100A40002CE700272AE7002728E780277F0025E7F3
:100A500080277F0022E780277F001FE780277F0015
:100A60001CE700271AE780277F0017E7B437061036
:100A7000D837061070B504000D00002829D0C068D2
:100A8000002811D0002109F03BFAE068002109F0AC
:100A900053FAE068002109F041FAE06809F008FE25
:100AA000002819D10023E36020001830FFF7A2FDD1
:100AB0000B4821000DF0B2F8A37A002B08D00023D8
:100AC000A3726369002B03D021692A002000984794
:100AD00070BD044800F05AFCE06809F027FCE1E72B
:100AE000090B0010F037061010B5002806D00023BF
:100AF000C36080214900FFF7BDFF10BD014800F031
:100B000045FCC0460C380610F0B583B0041E06D074
:100B1000837A022B06D0032B17D003B0F0BD2748F1
:100B200000F034FC038801339BB203809A00D31891
:100B3000632B05DC2249220022480DF009F8ECE77E
:100B40000221FF31FFF796FFE7E718300521FFF795
:100B500029FD6388002BEDD0A288013292B2A280D9
:100B600091008A1859085B189A420CDC01252388E9
:100B700001339BB223809A00D3186288934209DA2A
:100B8000002DCAD0D6E70221FF312000FFF772FF07
:100B90000025ECE72600EC3600213000FFF7D6FCFC
:100BA0000028EDD0002701970097002300220C2198
:100BB0003000FFF794FC2780E2E7C0462C3806108F
:100BC000090B001088130000F8B504000E00151E74
:100BD00001D02800F8BD002787660D49300009F0D4
:100BE0008FF90C49300009F099F90B4902223000C5
:100BF00009F0B0F90223A3720849220008480CF05A
:100C0000A7FF2780E1682000EC30FFF73FFDE0E719
:100C1000390D0010710700105D070010090B00105E
:100C200088130000F0B5D6464F464646C0B582B0A0
:100C300006008A460023994600249846002754E07F
:100C4000B36E9C421BD233196C331B789946013426
:100C5000E4B2012C49D97F234A461340A11ECA00A1
:100C6000521A934042461A4390464B461B063CD4C8
:100C7000131E13D0A218B36ED31A984635E07D1C0C
:100C8000ADB23900504608F0B3FE8146B36E5A1C2F
:100C9000B266F3186C3318702F00D8E70025009562
:100CA000002221003000FFF7AFFDB56600241CE0F4
:100CB00031006C31091900972B00504608F0A6FD51
:100CC000B36E5B19B3667F19BFB243465B1B984690
:100CD00000902A0021003000FFF796FD002824D163
:100CE0004346002B01D1B366002453461D89AF4211
:100CF0001AD2012CA4D94B461B06A1D4ED1BADB2D0
:100D0000454501D343469DB28022121B92B29542C3
:100D100000D91500B36E7F2BCAD953465B89D91B06
:100D20008D42C5DD8DB2C3E7002002B0E0BCBA46FB
:100D3000B146A846F0BD0000F0B583B0040008003D
:100D400015001E00002C1AD0E3688B421AD1002A2D
:100D50001BD0002E20D1118909F072F82900200043
:100D6000FFF760FF01900700280008F0EDFA002F60
:100D700018D16388002B12D00023A3800FE00C4809
:100D800000F004FB0B4800F001FB8021490020002B
:100D9000FFF770FE002602E0100008F0D5FA3000E0
:100DA00003B0F0BD01992000FFF764FEE1E7C04603
:100DB000503806107438061010B5F821490001208B
:100DC00007F076FF10BD0000F0B5DE4657464E46F0
:100DD0004546E0B589B00400029103921D00139EC0
:100DE000002800D1DDE0029B002B00D1DCE0002ECA
:100DF00000D1DCE03368002B00D1DBE0877A002FE4
:100E000000D08BE1036E9B46436E9A46C36D9846B5
:100E1000F8225200002102F059FB5B46236653463C
:100E200063664346E365129B23616561B389638012
:100E300020001C300421FFF717FC3069002800D186
:100E4000D7E073699846002B00D1D6E0727ED200BD
:100E50001823134004271F43FFB2B27E002A02D09A
:100E600024221343DFB257F047FB0500FF2800D9C7
:100E7000A3E0002800D1A7E0C3B20593337E9A46D1
:100E8000002B07D1404657F037FBFF2800D9A2E0DE
:100E9000C3B29A46FF231D400E35554480235B02A2
:100EA0009D4200D39EE0ADB27068002800D1BDE045
:100EB00080235B421F43FFB257F01EFB8022520289
:100EC000904200D39DE0002800D1A1E083B20793B7
:100ED00002350004000C451980235B029D4200D3BB
:100EE0009DE0ADB2B068002800D1B7E040231F43B9
:100EF000FFB257F001FB80225202904200D398E0EB
:100F0000002800D19CE083B2069302350004000C57
:100F1000451980235B029D4200D398E0ADB20223C5
:100F20003B43DBB20493306857F0E6FA80235B0260
:100F3000984200D395E083B2994602350004000C34
:100F4000451980235B029D4200D391E0ADB2EC23B2
:100F50009B46A34429005846FFF7F8FA002800D121
:100F6000E0E0002009F000FBE060002800D1DDE0B7
:100F7000210008F0C1FF6F49E068002208F0D4FEAC
:100F80008046002800D17AE0E06809F0CFF900231C
:100F9000E360404609B0F0BCBB46B246A946A04655
:100FA000F0BD654800F0F2F9644800F0EFF96448DC
:100FB00000F0ECF9634800F0E9F9634803F0D8FD6C
:100FC00006235B429846E4E7604803F0D1FD062320
:100FD0005B429846DDE75E4803F0CAFD06235B42AC
:100FE0009846D6E75B4803F0C3FD06235B4298466C
:100FF000CFE7BA4605970A2556E7BA4605970A2568
:1010000052E7554803F0B4FD06235B429846C0E71B
:10101000524803F0ADFD06235B429846B9E74D48C0
:1010200003F0A6FD06235B429846B2E70023079330
:1010300058E74B4803F09CFD06235B429846A8E71F
:10104000484803F095FD06235B429846A1E74148D6
:1010500003F08EFD06235B4298469AE70023069331
:101060005DE7414803F084FD06235B42984690E724
:10107000384803F07DFD06235B42984689E73B4BE9
:10108000E068039A029908F0A9FF8046002800D082
:101090007AE73749E06808F04FFF0123A372019512
:1010A00000230093002201215846FFF718FA314926
:1010B00004225846FFF7FDF904215846FFF7EAF9E4
:1010C00004995846FFF7E6F9B1895846FFF7E6F963
:1010D00031684A465846FFF7ECF97B070DD46B465A
:1010E0001B7C5BB2002B13DB7F0600D451E7B16899
:1010F000069A5846FFF7DDF94BE73169059A5846DD
:10110000FFF7D7F9716952465846FFF7D2F9E6E77B
:101110007168079A5846FFF7CCF9E5E70A235B4266
:10112000984636E701235B42984632E701235B424B
:1011300098462EE75CA506109C380610C0380610AD
:10114000E838061014390610483906108839061098
:10115000C8390610043A0610343A0610743A0610DC
:10116000B83A0610F83A06103C3B0610C90B0010BE
:10117000E90A0010783B061030B507240440A400AB
:10118000C008A14004003C34A400094D6151800016
:101190001B18002A05D080229201944663441960EE
:1011A00030BDC0229201944663441960F8E7C046FE
:1011B0000040014010B58300084A9A181468402284
:1011C000544080322240064CA44663441A60C0005A
:1011D000044B9C466044416010BDC04604C00140C1
:1011E00004D001400040014080000C4B9C4660440C
:1011F00000290ED00823002A0DD0042213430268D0
:1012000053400C22134080225201944660440360F4
:1012100070470023EFE70022F0E7C04604C001401A
:10122000002906D08000064B9C46604402230360E0
:1012300070478000034B9C46604402230360F7E73D
:1012400004E0014004F0014070B506000D00141EDA
:101250000BD1D0231B061B68002B11D0094B220099
:1012600029003000FFF788FF70BD0D2000F016FA4E
:101270000028EED1044B054A0548BD2103F0C0FA11
:10128000044BECE730410140803B0610CC9906103E
:10129000AC3B06100041014070B5D0231B061B6813
:1012A000094C9D002C59204207D1074D9B00044357
:1012B0005C510D2000F02CFA70BD044B044A054827
:1012C000DB2103F09DFAC04674120120F03B0610AA
:1012D00098990610AC3B061010B50400D0231B06ED
:1012E0001A680B4B9200D35818420BD00D2000F017
:1012F0001BFBD0231B061B6805499B005A58A243C1
:101300005A5010BD034B044A0448EF2103F078FA09
:10131000741201201C3C061074990610AC3B061098
:1013200010B501238340D0221206936293610521F8
:10133000FFF740FF10BD000010B58023DB051868E3
:1013400003051B0D0B4A934207D10B4B0340802230
:101350009201934207D1000F10BD084B084A09487B
:10136000132103F04DFA084B054A0648142103F0F7
:1013700047FAC0462709000000F0FF0F483C06105E
:10138000E49906106C3C0610B03C06100FB400B592
:1013900083B0084803F0BCFB049B002B07D005A9D1
:1013A0000191180003F0C4FB034803F0B1FB0120D6
:1013B00003F0CCF9C43C0610C47A0610EFF3108099
:1013C00072B6034B1B68002BFBD0BFF35F8F7047D7
:1013D0002C0100D0BFF35F8F024B00221A6080F314
:1013E000108870472C0100D0F8B506000C001500DD
:1013F000FFF7E4FFE308F718F15C0722224001231E
:1014000093400B4205D1DBB20B433B70FFF7E2FF89
:10141000F8BD21002800FFF7B9FFF0B583B0060042
:10142000019114001F00FFF7C9FF00E00134BC4226
:101430000CD8E308F518F35C0721214001228A400B
:101440001A42F3D1D2B21A432A7001E00124644255
:10145000FFF7C0FF002C02DB200003B0F0BD019BB2
:10146000002BF9D00898FFF791FF000070B5050038
:101470000C00FFF7A3FFE308EE18EA5C0721214008
:1014800001238B40134204D09A433270FFF7A2FF2E
:1014900070BD034B034A0448332103F0B1F9C04641
:1014A000D43C0610F8990610F43C0610054A107852
:1014B000431CDBB21370172B02D9130010221A70D1
:1014C0007047C046E81D002010B582B00100054CF1
:1014D000054B00931F2318222000FFF79EFF02B048
:1014E00010BDC046D0520020383D0610002307E052
:1014F000054A9A189200BFF35F8F002111600133F3
:101500001F2BF5D97047C04640000034074B9B683D
:10151000103080001950BFF35F8FBFF35F8F044B13
:101520000021196082F310887047C04600ED00E08A
:10153000240100D00048704700E400E010B5FFF738
:10154000F9FF002302E0034A04C00133072BFAD954
:1015500010BDC046808080801F23181A704700008D
:1015600010B50388DA0A1C2A05D15B055B15023326
:101570005B00C01810BD034B034A8E21034849008D
:1015800003F03EF9543D0610549A06106C3D0610C7
:1015900010B5091A0B1F0A4A88180A4A904208D83F
:1015A000C90706D45B105B055B0D0748184380B282
:1015B00010BD064B064A87210648490003F020F972
:1015C000FC070000FE0F000000E0FFFFB03D06102A
:1015D000489A06106C3D061010B5091A04394A08DD
:1015E000090B08D14905490D064B0B430380064BF7
:1015F0001343438010BD054B054A8B210548490024
:1016000003F0FEF800F0FFFF00F8FFFFE03D0610DA
:10161000249A06106C3D061001238340034A10688B
:101620001840431E9841C0B27047C04600E100E038
:10163000002A05D0044BC02252009950196070470F
:10164000014A8023D150FAE700E100E010B50A001A
:101650001F230340012199404009FFF7E9FF10BD16
:1016600001238340014A13607047C04600E200E056
:10167000024B9B6810308000C058704700ED00E0BE
:1016800010B5FFF7F5FF044BC31A00202F229A4232
:101690004041C0B210BDC046EC1D002010B5FFF7A0
:1016A000E7FF002806D0044B984201D0012010BD6E
:1016B0000020FCE70020FAE7C101001070B504002B
:1016C0000D00EFF3108672B60C4B1B68002BFBD09D
:1016D000BFF35F8F2000FFF7CBFF094B984201D08B
:1016E000A84205D1320029002000FFF70FFF70BD8E
:1016F000044B054A0548ED2103F082F8240100D08F
:10170000C1010010F03D06107C9A06106C3D0610D9
:10171000F0B5DE4657464E464546E0B589B08146AF
:1017200001911500EFF3108B72B66F4B1B68002B05
:10173000FBD0BFF35F8F6D4B00269E57002E40DB22
:101740007400A419A4006A4824180622A256674B04
:101750001A70684B9A684B4610339B00D3589846D2
:101760001B1A2F2B3BD9644B984531D105AF634BE6
:101770003B80634973009A46981980005C4B9846F9
:1017800040440230FFF704FF78805E4BBB80FF23AC
:10179000BB71FD71019B0793330053449B0043448D
:1017A00007CF07C301231C43A0465A46414648467B
:1017B000FFF7ACFE09B0F0BCBB46B246A946A04656
:1017C000F0BD514B514ABE215148490003F018F871
:1017D000504B4E4A84214E48FF3103F011F801234B
:1017E00042469A439246101A0C2101F0C5F900298D
:1017F0000FD153460027DA79AA4212D90621595649
:1018000000290DDB4A005218920039491F008B183D
:10181000F1E7414B3D4ACA213D48490002F0F0FF43
:101820001F00002F2ED005AB3C4A1A80813A5A8007
:101830000623FB560293002B17DA394805AB9A466C
:101840009880029A9A71DD71019A0792381D2100E1
:10185000FFF79EFEB880BE71254B72009219920070
:101860009B18524613CA13C39FE7381DFFF778FE33
:1018700001007000801980001D4BC0180430FFF774
:1018800087FEDBE705AF1D4B3B801D4973000293CC
:101890009B199B00164A90461A0042440392901CE2
:1018A000FFF776FE7880039A101D5146FFF770FE11
:1018B000B8801C4B52464146521A524153431B0DAD
:1018C000BB71FD71019A0792029B9B199B004344D7
:1018D00007CF07C3114B52461380813B538001232E
:1018E0001C43A04661E7C046240100D0E115012059
:1018F000EC1D002000ED00E0C101001000A1FFFF81
:101900001C1E002001BDFFFF283E0610649A061031
:101910006C3D0610503E0610783E0610014800004F
:1019200001BD0000AAAA0000F0B5CE46474680B52A
:1019300083B006000D00EFF3108872B64F4B1B68A2
:10194000002BFBD0BFF35F8F4D4B9A6834001034EF
:10195000A300D7584B4B9F4207D0AF4200D18AE03B
:101960000197494BFB1A2F2B09D942463900300009
:10197000FFF7CCFD03B0C0BCB946B046F0BD3000A7
:10198000FFF74AFE814600213000FFF75FFEBFF3FC
:101990005F8FEFF30581002901D08C4211D1012323
:1019A000019C9C430020A3689D4211D00622A256B0
:1019B000002A0CDB53009B189B00334A2000D418EC
:1019C000F1E7324B324A3348334902F019FF200025
:1019D0009D4249D106256557002D2BDB2A4B6A0015
:1019E000521992009B189A68A260DA79E2719B7989
:1019F0005BB2A371002B0FDA2848A080224B6A004B
:101A0000521992009B18264A11789971157049460F
:101A10003000FFF71BFEA8E76800401980001A4B52
:101A2000C0180430FFF79CFD0100231D1800FFF7CC
:101A3000AFFDE2E7002912D100280ED0FF23837109
:101A4000184B838016490B78A3710F4A164BA41AC2
:101A5000644163431B0D0B70D9E70A4FF2E713494A
:101A6000201DFFF7B9FDD2E7114B094A9121094822
:101A7000890002F0C5FE034F77E7C046240100D07D
:101A800000ED00E0C1010010EC1D0020FC3E06103E
:101A9000349A06106C3D06100202000001BD0000E1
:101AA000E115012001BDFFFFAAAA0000261E0020AB
:101AB000303F061070B505000C00FFF73BFDAB088A
:101AC0009B00C218116803232B40DB00FF209840C5
:101AD00081439C402143116070BD0000F8B5012294
:101AE00002432C4BD31A2F2B28D8EFF30583002B5E
:101AF0002AD0EFF3108472B6274909680029FBD079
:101B0000BFF35F8F234D25490600761B7641714355
:101B1000090D4DB2224989689B00C958914219D0DC
:101B20000021032930D81B4B4A00521892009B1801
:101B30009B795BB2AB421DD00131F2E7194B1A4AD7
:101B40001A481B4902F05CFE1A4B174A17481A49FB
:101B500002F056FE124A92681849D150184B1A7872
:101B600082711D70BFF35F8F0B4B00221A6084F3EC
:101B70001088F8BD074B4A005618B6009E19FF277B
:101B8000B771104AB280E9E70F4B074A07480F497F
:101B900002F036FEEC1D0020240100D0AAAA0000AD
:101BA00000ED00E0383F0610089A06106C3D061064
:101BB0007F020000603F061082020000C101001099
:101BC000E115012001BDFFFF6C3F061093020000EC
:101BD00010B5FFF7C1FC0100024B1800FFF746FCEF
:101BE00010BDC046EC15012010B582B00100074CB5
:101BF000074B0093052300222000FFF70EFC00286E
:101C000001DB1F23181A02B010BDC046EC150120DD
:101C1000743F061070B504000E001500FFF746FC77
:101C20000100200000F006F8A680E580BFF35F8F7A
:101C300070BD0000024B9C46614489000160704702
:101C40004000003410B50400FFF730FC0100200014
:101C5000FFF7F0FFFF232371BFF35F8F10BD10B5B7
:101C60000400FFF723FC01002000FFF7E3FFFF2340
:101C7000237100236371BFF35F8F10BD10B50D4C4E
:101C800009E00D4B0D4A0E481A2102F0B9FD200063
:101C9000FFF7D8FF08340B4B9C4209D22368002B76
:101CA000F5D0012BEDD12000FFF7D9FF0834F2E782
:101CB00010BDC046982F0020903F0610109B0610C4
:101CC000B03F0610A02F0020034B9C4661448900C2
:101CD0000160BFF35F8F70474000003410B504000F
:101CE0000120FFF7F1FB01002000FFF7EDFF10BD21
:101CF00030B5846A151B0B1D9B001B581B1B9D4296
:101D000004D3046A01238B40234202D104318900A9
:101D10000A5030BD00040843704700000A4B1968A0
:101D2000EFF3108372B60A68002AFCD0BFF35F8F0E
:101D3000054A1268BFF35F8F0021116083F310889A
:101D400040BF00200021704778150120F0B5DE4625
:101D500057464E464546E0B587B0EFF3058303226C
:101D60001A409246AE4B9200D7583B78534507D164
:101D70000123524693409946AA4B4A461A6025E1F0
:101D8000A94BAA4AAA48922102F03AFD7A69730047
:101D90009B19DB009046984443469C68DD68A54843
:101DA00000F092FB001BA941002900DA16E1002D8A
:101DB00074DB43461B699B469F4B9B454FD00823D2
:101DC000F85E4346598889B2FFF7A4FF4346596934
:101DD000D847029003910299039A0B001000134315
:101DE0005CD013000A00002847DAA41A9D41009431
:101DF00001954346009C019D9C60DD600021595E79
:101E0000002900DAEAE078694B005B18DB00C318B0
:101E10009A68DB68A41A9D41002D00DADEE0398162
:101E20003D000835844604912A000597B346009E7C
:101E3000019F049B002B2ADB0023D45E63001B1947
:101E4000DB0063449C68DD6830003900001BA94159
:101E500000291CDB1A000021595E0491E9E7434682
:101E60005B699B461B6958469847002816D05B461D
:101E70001A685B6802920393ADE76E4800F024FB9A
:101E8000029B039C1B184C4100930194B1E70499F9
:101E9000059F5E464346198016809FE04346002218
:101EA0009B5E3B813A69EFF3108372B6116800299B
:101EB000FCD0BFF35F8F02217A5E41460A807E80AC
:101EC0003A69BFF35F8F0021116083F3108885E0CA
:101ED0003969EFF3108372B60A68002AFCD0BFF3A9
:101EE0005F8FB88800B201225242BA803A69BFF3CC
:101EF0005F8F0021116083F310880500BC461CE051
:101F0000049300229A5E002A0EDB049B0021595E96
:101F10004B005B18DB0063449868D96834003D00CF
:101F2000241A8D41002DEBDA04995D46009B9C46F6
:101F300044460D800023E55E2280002D12DB6346BF
:101F400058696C006419E4000419A668E7686146E2
:101F5000083108229A5EAB46049163460093A0467E
:101F60008446D0E767463EE00023BB713900083164
:101F70000823F85E0EE001246442E5179460D56002
:101F800008243B5F834204D00E8008243B5F13800B
:101F900038813000431C29D07C6943001B18DB00CA
:101FA000E218E65E53881BB2002BE4DB1100F0E779
:101FB00022002B0051461F48FFF79AFE1D4800F0F3
:101FC00083FA241A8D41002D22DC1FD0194B4A467A
:101FD0005A630823FE5E002E00DBD7E6BB881BB2E7
:101FE000002B00DB74E7BB79002BBDD10823FA5E20
:101FF000002A0DDB796953009B18DB00CB189C6825
:10200000DD68631CD4D16B1CD8D0D1E7002CDDD0A7
:1020100040BF07B0F0BCBB46B246A946A046F0BDE3
:10202000A40201203C700540444006103C9B061071
:1020300070400610004005404D1D001070B50400B2
:102040000D0011000126AE4006622800FFF736FBA6
:1020500001212800FFF7FAFA024B9C4664442660EF
:1020600070BDC04638200000F8B5CE46474680B562
:102070000600894690461F00C160FFF717FA154B0E
:102080009C4660448000306143463370BBB273812C
:10209000D022120612787270012252423281B2802E
:1020A0009B187380002406E0621E736965002D1979
:1020B000ED005A530134BC42F6D3074B424692001E
:1020C000D650064A41464846FFF7B8FFC0BCB9465D
:1020D000B046F8BD40000034A40201204D1D0010A0
:1020E00010B5064B1B69002B01D0044810BD044BF2
:1020F000044A0548652102F083FBC046341E0020D7
:10210000AC400610249B061070400610F8B5040081
:102110000569EFF3108072B629680029FCD0BFF37F
:102120005F8F0221665E656971008919C9006D18AB
:10213000002E02DB0027E95F61802169BFF35F8F1A
:1021400000270F6080F31088002E2CDB0699296190
:1021500007996961AA60EB606B8801335B04590CD5
:10216000002B00D1012169803000FFF7D3FD2169E8
:10217000EFF3108372B60A68002AFCD0BFF35F8FBA
:10218000A2882A80A6802269BFF35F8F0021116098
:1021900083F31088E368217801228A4003498C4642
:1021A00063441A60F8BD01204042FBE73C20000078
:1021B00070B582B0060014001D0008AB1B78002B20
:1021C00007D100F0B3F922002B00121A8B41002B2B
:1021D0000ADB079B0193069B009322002B00300033
:1021E000FFF794FF02B070BD0020FBE7F0B5C646D4
:1021F00000B584B00500884616001F000AAB1C78A5
:10220000FFF76EFF0294019700962A004346FFF7FE
:10221000CFFF04B080BCB846F0BD000030B504006C
:102220000A1443899A422EDA406953009B18DB0056
:10223000C3182569EFF3108272B628680028FCD015
:10224000BFF35F8F588885B20904090C884212D009
:1022500000202369BFF35F8F0021196082F310888B
:10226000002811D0E368217801228A4007498C4672
:1022700063441A6008E00649294389B25980012362
:10228000A3710120E5E7002030BDC0463C200000DE
:102290000080FFFF10B50400FFF722FF2100FFF7C9
:1022A000BDFF10BD40787047F0B583B006000F0049
:1022B000EFF30583002B1AD106246442E517A41915
:1022C0007D418D4202D803D1844201D900240025EA
:1022D00000F02CF922002B00121A8B41002B0BDC92
:1022E00008D03000390000F033F903B0F0BD1648D3
:1022F000FFF74CF8002AF4D0144A00230093200082
:102300002900FFF773FF002813DAEAE7104B19687A
:10231000EFF3108372B60A68002AFCD0BFF35F8F18
:102320000B4A1268BFF35F8F0021116083F310889E
:1023300020BF084B5B6A9D42E8D80649896AA142E2
:10234000CFD29D42CDD1E1E7D04006101D1D001037
:102350007815012000400540F0B5CE46474680B5CF
:1023600083B005000C00EFF30583002B15D03F4B25
:102370005B6A8B4209D33D4A926A82420BD28B42FE
:1023800001D0012002E0002000E0002003B0C0BC2A
:10239000B946B046F0BD0120F8E7FFF7A1FEC368DB
:1023A0009946037898462E002700484600F08CF89E
:1023B00002000B00B61A9F41434604339B004A4675
:1023C0009B581B1A0022BA420FDC0CD020BF274BAF
:1023D0005B6A9C422DD8254A926AAA422BD29C4223
:1023E00025D00120D2E7B342F0D9214A002300933F
:1023F00028002100FFF7FAFE00281EDD1B4B5B6A58
:102400009C4205D8194A926AAA4202D29C4200D143
:1024100020BFFFF73FFF154B5B6A9C4221D8134A50
:10242000926AAA421FD29C4219D00120AEE7002036
:10243000ACE70020AAE70120A8E70C4B5B6A9C42AE
:1024400009D80A4A926AAA4207D29C4201D00120C6
:102450009CE700209AE7002098E7012096E70020FB
:1024600094E7002092E7012090E7C0460040054035
:102470001D1D0010004870470040054010B50B4B73
:102480001B69002B04D00A480A21FFF7D3FB10BDBB
:10249000FFF7F0FF0400032100F00CF803481023BD
:1024A00003222100FFF7E0FDEDE7C046341E0020C7
:1024B0007815012010B5024A0248FEF795FF10BDBD
:1024C00020410610D45200200200436A906A19008D
:1024D000536A9942FAD17047416A00E0416A9942D1
:1024E000FCD300E0416A994202D1816A9142F9D35A
:1024F0007047F0B5C64600B5804614001D00FFF7D2
:10250000E3FF06000F0022002B0092197B41994245
:1025100002D804D1904202D901225242D317404638
:10252000FFF7DAFF80BCB846F0BD000010B50248E6
:10253000FFF7CAFF10BDC0460040054010B50200BD
:102540000B000248FFF7D5FF10BDC0460040054014
:1025500010B502000B000248FFF7BEFF10BDC046D9
:1025600000400540F8B5D646474680B506000D0048
:102570001700984644002418A400294B9C46644444
:102580006368089A934200D26260331FDBB29A46B6
:10259000012B2ED980221201C0239B01E3181A605F
:1025A000204BB200D158002907D0586900F0E4FA56
:1025B000013043001B18033BFDD27F0123685F40BD
:1025C000E0233B4080225201A21813605346012BA6
:1025D0001AD980239B01E318802212011A60089BFC
:1025E0006360104BB6004246F250C0BCBA46B046DB
:1025F000F8BD012DCED10322C0239B01E3181A6040
:10260000A368DB07FCD5D8E72168694003230B40AA
:102610001360A3680122AA401A42FAD0D9E7C04643
:1026200000800040FC520020F0B583B005000E0091
:1026300017001800089900F09FFA0300089A140286
:1026400000943A0031002800FFF78CFF03B0F0BD82
:1026500010B582B0802464000094FFF783FF02B0BD
:1026600010BD0000014B8000C0587047FC52002094
:10267000F0B5C64600B504000E0017001D0037482F
:1026800000F07AFA8046364BFA18364B9A4239D81F
:102690000100380000F070FA0200103A98235B0045
:1026A0009A4235D86B1E062B38D8069B013B062B69
:1026B00034D83F09474537D32D04069B1B031D43E0
:1026C0002368002B36DB284B9C4244D00C2201238C
:1026D0009340264A1360264A1360264A126819005E
:1026E00091430A1EF9D12660A060234BE3182132E2
:1026F0001A602268002AFCDAE56008221A6080BCB1
:10270000B846F0BD1D4B1E4A1E48112102F078F854
:102710001D4B1B4A1B48192102F072F81B4B184A2B
:1027200018481C2102F06CF8194B154A1548232152
:1027300002F066F822683F231340B342C3D1A36876
:102740001B051B0D8342BED1E368EE22D20213406B
:10275000AB42B8D1D3E70D22B9E7C046001BB700A2
:1027600080E84BD380F8A93200C0024000E000406E
:1027700000F0004008C00040043000004441061052
:10278000609B061094410610D8410610F4410610D3
:1027900040420610024B1A68024B5A607047C0460E
:1027A000F46500200080054010B5174B8022D2054B
:1027B0001A60164B164A1A6000290AD0154BE022FF
:1027C000D2041A60002809D1124B802212061A6026
:1027D00010BD0D4BE022D2041A60F3E743011B1A2F
:1027E0009B00181800010C4B186080235B04984272
:1027F00002D3094B094A1A60FFF7CCFF054B802230
:10280000D2051A60E4E7C04600B005400820014048
:10281000FCFF010000A00540F4650020FFFFFF0061
:1028200010B5030010000C4A8024E4051460002B4E
:102830000DD001221343094A094CD461094C5C4074
:102840001462516293620021FFF7AEFF10BD034B8B
:102850000022DA61F7E7C04600B00540008005407D
:10286000D3C007B02D3FF84F80239B000B43014A94
:10287000D36270470080054010B5010018231B8803
:1028800014221088984710BD10B5010018231B882A
:1028900016221088984710BDF0B5C64600B507004F
:1028A0000E0000250123984600E00135B5420AD20A
:1028B000AC003C192068FFF7DFFF20600028F4D14E
:1028C00000239846F1E7404680BCB846F0BD0000C2
:1028D00070B504000D000648FFF7CEFF0300002C82
:1028E00003DB0120A040290098470020FBE7C046F9
:1028F00055420000074BAA2212011A608D22520095
:10290000DA60054B054A1A60024B5B68002BFBDA64
:102910007047C046004002400060024000B0FA002C
:1029200010B5040001E008CC9847024B9C42FAD352
:1029300010BDC0469C3506107047000010B5024817
:10294000FFF7EEFF10BDC04660350610054B064A86
:102950001A60064B064A1A60064B1A68044B9343EA
:10296000FAD1704700E00040BFCDFBFE00F0004010
:10297000FE7F3C0008C00040044BDB6C002B03D101
:10298000034B8022D2021A607047C04600001150EB
:102990004C201150044B054A1A60054B1B68DB4361
:1029A000DB01FAD17047C04600F00040FFFFFF0195
:1029B00008C00040034B40229A675A671A67DA66DC
:1029C0007047C04600F0014010B5FEF78FFD10BD06
:1029D00010B50C4A0C4BD21A92101400302A00D9B0
:1029E000302292000948084900F076FD04E0084AC8
:1029F000064BA100CA5001342F2CF8D9034B054ACD
:102A0000936010BDC0010010000100100000002004
:102A1000C101001000ED00E070B50420FFF722FEB8
:102A2000064900F0A9F805000024002C00DD70BD67
:102A3000E0B22900FFF718FF0134F6E740420F002B
:102A400030B583B0274B00229A67FFF753FF264B20
:102A500001221A60234B5B6C012BFBD1234B032219
:102A60001A60204B9B6B012BFBD101330093043385
:102A70001F4A01211F48FFF7FBFD052300931E4A53
:102A800001211E48FFF7F4FD1D4B00220221042006
:102A9000FFF7DEFD1B4D2B00002201210520FFF773
:102AA000D7FD194C2300002200210720FFF7D0FD9D
:102AB0002300002200210820FFF7CAFD8023DB004D
:102AC00000932300002200210920FFF7ADFD2B0019
:102AD000002200210620FFF7BBFDFFF79DFF03B09A
:102AE00030BDC046008000403CB0004030B00040E7
:102AF000002F685900800240008C864700C00240C9
:102B0000001BB70040597307006CDC020148042128
:102B1000014B1847501E002099280010014B9B685C
:102B200018470000501E0020124A936F9B0815D2D0
:102B30009066D166002905D0FFE7FFE7FFE7516FF8
:102B4000106F704704B580210906C2175140002854
:102B500000D0C84360F06CFC002104BDF0B5146ED9
:102B6000556E576F166FFFF7E3FF1466556657678C
:102B70001667F0BD000000D0114A936F9B0813D276
:102B800010665166002905D0FFE7FFE7FFE7516FA8
:102B9000106F704704B5002801D00020C04360F0DA
:102BA00047FC002104BDC046F0B5146E556E576F4A
:102BB000166FFFF7E5FF1466556657671667F0BD99
:102BC000000000D094464A4A926F9208624601D2B1
:102BD00028E0C046F0B5464E346E756E776F366F9E
:102BE00000F020F89446424A146655665767166707
:102BF0006246F0BD94463E4A926F9208624601D208
:102C000054E0C046F0B53A4E346E756E776F366F4D
:102C100000F04CF89446364A1466556657671667B6
:102C20006246F0BD002B24DB11D000293EDA00B54E
:102C3000C943404200D1013100F038F8C943404255
:102C400000D10131DB43524200D1013300BD002AE3
:102C5000EBD1002801D1002905D00020C90FC907F8
:102C600001D1C043410800B560F0AAFB0022002357
:102C700000BD00B500290ADBDB43524200D101331D
:102C800000F014F8C943404200D1013100BDC943EE
:102C9000404200D10131DB43524200D1013300F008
:102CA00005F8DB43524200D1013300BD002923D196
:102CB000002B18D1002A0CD0BC460D4F38667A661E
:102CC00000210023FFE7FFE7FFE77A6F386F6746D1
:102CD0007047002801D00748010000B560F070FB84
:102CE0000022002300BD02000B00002000217047DD
:102CF000000000D0FFFFFFFF002B00D0BFE0130C4F
:102D000028D1002AE7D080B4114F39667A66FFE7F0
:102D1000FFE730B4040C7B6F396F1B0423433B6621
:102D20007A66FFE7FFE7FFE7C04684B27B6F3D6F3F
:102D30001B0423433B667A66FFE7FFE7C046002398
:102D40002C042D0C7A6F386F00196941B0BC7047A4
:102D5000000000D0F0B594460025140E01D11202F7
:102D60000835140F01D112010435940F01D19200DE
:102D70000235D40F01D152000135D40B0134254F57
:102D80007C66254C3C660E0C93B2FFE7FFE7FFE73D
:102D90003C6F6643360C7703BE467343DF0B5B0420
:102DA000C01AB941130C7343DB18C91ACE08664325
:102DB000360CB64493B273431F0F1B01C01AB941BE
:102DC000130C73431F0B1B05C01AB941860D8F02EC
:102DD0003E436643360C092D24DB520A7243801AA7
:102DE0007703460A6643360C16235B1BDE40DF4042
:102DF000BF1964466643821B7046043506330100E2
:102E0000D940A840C01900D30131A24206D2002304
:102E1000F0BD0000000000D0FFFFFFFF121B0130DB
:102E2000F3D3F1E709277F1BFE406446A2B2724349
:102E3000801A00D20139220C7243130C1204821A38
:102E400099410B007046043513370100F940A84042
:102E5000801900D30131002B02D1A2420AD2F0BD69
:102E6000013000D30131121BFAD2013BF8D1A2424A
:102E700000D2F0BD013000D30131121BF7E7F0B5ED
:102E80001C0C00D080E00CB400251C0A04D11B02ED
:102E9000160E3343120208351C0B04D11B01160F0A
:102EA0003343120104359C0B04D19B00960F33432E
:102EB00092000235DC0B02D192185B4101351C00F7
:102EC000971864410134464F7C66464C3C660E0CB4
:102ED000FFE7FFE7FFE7C0463C6F6643360C77032A
:102EE000BE4697B27743C01B00D20139C01B00D247
:102EF00001399FB27743C91BC91B170C77437E0466
:102F0000FF0B801BB941CE086643360C0C2D33DB1A
:102F1000B644120B1F053A431B0B97B27743C01BF5
:102F200000D201399FB27743C91B170C77433E0487
:102F30003F0C801BB941860D8F023E436643292713
:102F40007F1BFE400C3D7746AF40BF1930BCA2B29C
:102F5000ABB272437343801A9941220C7243130C33
:102F60001204801A994102000B000137001BA9418D
:102F7000F9D2781E0021F0BD0C277F1BFE4077465A
:102F80007F0BAF40FF19E0E700245D1C07D0144F12
:102F90007D663966FFE7FFE7FFE7FFE73C6F95B225
:102FA0009EB265436643401BB141150C1E0C654340
:102FB000664336042F0C3E432D04401BB141994219
:102FC00004D202000B0020000021F0BD01D190428C
:102FD000F7D3801A994101349942F2D3F6E7000001
:102FE000000000D0FFFFFFFF48404140484018B4B8
:102FF000134B5B68019308BD18B4114B1B68019318
:1030000008BD94460F4A926F920805D2624618B4E2
:103010000B4BDB68019308BD0A4AF0B5146E556E80
:10302000576F166F6246FFF7F2FF064A1466556641
:1030300057671667F0BD18B4014B9B68019308BD34
:1030400070130120000000D0FFB5504042405040B6
:1030500059404B40594000E0FFB5154F4C00640DFE
:1030600003D0BC4204D10C0314D80020090D09057B
:103070005C00640D03D0BC4204D11C030AD80022BA
:103080001B0D1B0501264B4009D44B4003D58B4239
:1030900000D18242FFBD9942FCD19042FFBD0B435B
:1030A000DB1803431343F5D0C9434918FFBD0000A3
:1030B000FF07000000B5FFF7CFFF01D0002000BDE3
:1030C000012000BD00B5FFF7C7FF804100BDC0462D
:1030D00000B5FFF7C1FF01D9002000BD012000BDF0
:1030E00000B5FFF7B1FF01D9002000BD012000BDF0
:1030F00000B5FFF7A9FF804100BD012040054A004F
:10310000121804D85A00121801D800207047012064
:10311000704700000021002805D17047C1174840C2
:10312000401AFAD0C90713B5064B1B6898470CBC68
:10313000441CA2401005120B0349091B0905194341
:10314000114310BD741401201F04000010B54C0081
:10315000620D8023D218DB00D21A5B057E2A10DDB7
:103160009E3A13DACC170903490819435242D14059
:10317000640001341532202A05DAD0400843604348
:1031800010BD002010BD0846604310BDC80FC01818
:10319000013810BD18B4024B5B6A019308BD0000F2
:1031A0007013012018B4024BDB6D019308BD0000C1
:1031B00070130120C94211D300B54900490800220B
:1031C00000F014F8002904D4002240428A4111463C
:1031D00000BD80210906002000BD000018B4024B8C
:1031E000DB6E019308BD00007013012018B4024B80
:1031F0009B6F019308BD00007013012018B4024BAF
:10320000DB6F019308BD00007013012010B5014869
:10321000FEF7BCF85C42061070B513231C78012C35
:1032200012D0012C12DC214B214A93642148FFF774
:1032300023FB214B186070BD20491D4A9800815026
:1032400001331F2BF8D9ECE70023FAE71C48FFF7FE
:103250001BFB05001B48FFF717FB023803789B0098
:103260007F2B09DD12488022290000F035F9022C5D
:1032700008D0022CDADCD6E7134B144A1448332169
:1032800001F0BEFA134B1A88B5231B029A4209D1EA
:10329000114B1A88114B9A4204D1114B1A88114BC9
:1032A0009A42E6D00020FEF771F8C046E9320010DD
:1032B000701301204C330000741401200D320010F3
:1032C0005344000053460000744206106C9B0610E5
:1032D000B842061054380000D838000049460000B3
:1032E0009C3800005946000007B56046002800D110
:1032F00000BE01880A0A0230DF2AFAD1C9B2820868
:1033000004D3028840880004104300E00068024AA9
:103310005050039007BD00007013012051434343F8
:10332000C9188C46110C83B24B4310B4040C614392
:1033300092B280B2504362431C041B0C001910BCB3
:1033400059411304120CC0185141614470470000E8
:1033500007B548404140484001E0C04607B542003B
:10336000120E03D0FF2A03D1420218D8C00DC005A7
:103370004A00120E03D0FF2A03D14A020FD8C90D0A
:10338000C9050122414005D4414001D5814207BD14
:10339000884207BD0143491801D0C043001807BD4A
:1033A00000B5FFF7DBFF01D0002000BD012000BD0C
:1033B00000B5FFF7D3FF01D9002000BD012000BDFB
:1033C00001231B064200D21804D84A00D21801D8A3
:1033D000002070470120704710B50148FDF7D6FF67
:1033E000FC77061070B513231E781848FFF74CFAC7
:1033F0000500012E11D0012E09DDAB1E1B789B00AC
:103400007F2B1DDD12488022290000F065F811484D
:10341000FFF732FA104B186070BD0D485422290096
:1034200000F05AF8002300E001331F2BE3D8084ACC
:103430009C00A258002AF7D10849054AA150F3E799
:10344000074B084A0848422101F0DAF953460000C8
:10345000781401204C33000074140120D93300107B
:103460000C430610809B06104043061010B5002840
:1034700004D04018034B984200D810BD0248FDF715
:1034800085FFC046000004209443061070B5050077
:103490004EF070F904002900FFF7E8FF200070BD2E
:1034A00070B50D004EF070FC04002900FFF7DEFF40
:1034B000200070BD10B54EF067F910BD0148042121
:1034C000014B1847601E002099280010014B1B6813
:1034D00018470000601E0020014B5B681847000081
:1034E000601E002010B5FFF7D1FF10BD10B5FFF72B
:1034F000CDFF10BD10B5FFF7DDFF10BD10B5FFF714
:10350000D9FF10BD10B5FFF7D5FF10BD9A4200D20C
:1035100088547047704710B5002802D00B6849687E
:10352000984710BD0100002007E083001B185B00D6
:10353000501C08601078C01830380A681378303B87
:10354000DBB2092BF1D97047F0B5DE4657464E463F
:103550004546E0B583B093461F000C9B9A460D9CF0
:103560000E9B99460F9B9B0717D0B8460F0006008D
:1035700022E0551C4B4641462020B84701342A0022
:10358000B442F6D33D004F465C46019B9B46B14694
:103590004646B84637002E000EE00192A346884604
:1035A0004E46B9460700EBE7013C551C5346185DF3
:1035B00043463900B0472A00002CF5D135003E00C3
:1035C00047460F9B9B0711D4100003B0F0BCBB46CD
:1035D000B246A946A046F0BD541C4B4641462020A9
:1035E000B8472200531BB342F6D3EDE7B0464E4630
:1035F000B9462F005D46F5E7F0B5CE46474680B5A3
:1036000085B0944698460C9D0D9C0EAB1B78994650
:10361000109A119B129EB7071CD4002B0CD0F707F1
:103620000AD54F46002F02D10C37374204D0013B58
:1036300002E030272F550134944201D21F2CF8D9D3
:10364000F70707D59C4205D21F2C03D830272F55EA
:103650000134F5E7F70612D5770505D4002C03D021
:10366000944221D09C421FD00F9A102A2FD00F9A3B
:10367000022A36D01F2C0AD830222A5501341F2C9A
:1036800005D84A46002A32D02D222A550134039605
:1036900002930194009543466246FFF755FF05B03B
:1036A000C0BCB946B046F0BD621E012C17D00F9FBA
:1036B000102F0BD014000F9A102AD8D1B206D6D5ED
:1036C0001F2CD4D858222A550134D3E7023CB20625
:1036D000F1D41F2CEFD878222A550134CAE7140000
:1036E000C2E71F2CD3D860322A550134C2E77207D3
:1036F00003D52B222A550134C9E73207C7D520222A
:103700002A550134C3E7F0B5DE4657464E464546D6
:10371000E0B593B081468A46089209931CAB10CB62
:103720001B789B461E9D219B9846002C03D110239D
:1037300042469A4390468023DB0046461E4042465E
:103740001A4218D0002C22D0002614E042469206DD
:103750001BD54121C918C9B20A39C9B2771C0AABB5
:10376000995529002000FFF707FAAC4210D31F2F0C
:103770000ED83E00040029002000FFF7FDF9CBB26F
:10378000092BE3D83033D9B2E8E76121E2E727001B
:1037900043460693209B05931F9B049303955B462A
:1037A000029301970AAB0093099B089A5146484639
:1037B000FFF722FF13B0F0BCBB46B246A946A046B5
:1037C000F0BDF0B5DE4657464E464546E0B597B0EB
:1037D0000A900B910C929A46209B9946219F22AA0F
:1037E00013789B46249B0993259C289B98464A4620
:1037F0003A4302D11032934398468022D200454684
:103800001540434613420AD04A463A4341D0002568
:103810002E0053460D934D46099B9A4621E02E00FB
:1038200053460D934D46099B9A461AE0424692062E
:1038300023D54122D218D2B20A3AD2B2731C994689
:103840000EAB9A555246230028003900FFF7D2F9F3
:10385000BC4220D813D04B461F2B16D84E4605002D
:103860000F005246230028003900FFF7C3F9D3B2F6
:10387000092BDBD83033DAB2E0E76122DAE7AA4578
:10388000E9D94E460D9B9A4608E04E460D9B9A4656
:1038900004E0002602E04E460D9B9A4643460693FE
:1038A000279B0593269B0493099B03935B460293F6
:1038B00001960EAB009353460C9A0B990A98FFF7AA
:1038C0009BFE17B0F0BCBB46B246A946A046F0BD71
:1038D000F0B5DE4657464E464546E0B591B08046C7
:1038E00089460C929A461A9C1B9D22002B002000B0
:1038F0002900FFF702FC002800D0F2E0012252422A
:10390000D54B20002900FFF7F3FB002800D0E8E0AA
:1039100001225242D14B20002900FFF7D3FB00289F
:1039200000D0DEE00022002320002900FFF7CAFBC0
:10393000002800D0EAE0069407958023DB001E9A59
:103940001A400D921E9A1A4201D106231C93069822
:10395000079902000B000892099303000A00024332
:1039600000D1DFE0080D4005400DBD4EB446604477
:10397000079E3203120B1E00BA4B13431F00FFF7C2
:10398000CDFBB94AB94BFFF756FBB94AB94BFFF724
:1039900033FB089009910022B74B30003900FFF744
:1039A00026FBB64AB64BFFF746FB02000B00089811
:1039B0000999FFF721FBFFF7C9FB8346FFF7AEFB31
:1039C00006000F00AF4AB04BFFF735FB0022AF4BAC
:1039D000FFF712FBFFF7BAFB0890AD4AAD4B300082
:1039E0003900FFF728FB06000F000898FFF796FB49
:1039F000A94AAA4BFFF71FFB02000B003000390059
:103A0000FFF7F5FA06000F0002000B00FFF713FBAB
:103A10000A900B91089BA24A94466344002100221D
:103A2000089109921B0509930023089332003B007B
:103A300030003900FFF7E0FA0E900F9132003B00A2
:103A400000208021C905FFF7D2FA06000F000022EE
:103A5000944B0A980B99FFF7D4FA0022924BFFF788
:103A6000CBFA02000B000A980B99FFF7CAFA002262
:103A70008E4BFFF7C1FA02000B000A980B99FFF773
:103A8000C0FA02000B0030003900FFF7B5FA02005F
:103A90000B000E980F99FFF7B4FA0022714BFFF755
:103AA000ABFA089A099BFFF7C6FA06000F000896C2
:103AB0000997069A079BFFF71BFB00280BD00123F1
:103AC0005B429C46E3440022774B30003900FFF70D
:103AD00098FA089009915B466333C62B45D80426B3
:103AE00023E01E9B04931D9B03931C9B0293009455
:103AF000019553460C9A4946404600F0FBF811B038
:103B0000F0BCBB46B246A946A046F0BD002100224B
:103B100006910792069480231B069C46AC4463469C
:103B200007930AE700239B4604261E9B1B0528D506
:103B3000089A099B190011430FD05D4A5D4B069806
:103B40000799FFF7CDFA00287AD000225A4B069841
:103B50000799FFF7B7FA002872D01C9B5B4506DD7A
:103B60005A469B1A013B1C9303E00526DDE7002320
:103B70001C938023DB001E9A1A431E92002600230A
:103B80009B461D9B9E4265D29F1B02231E9A1A4094
:103B90000A921E9A134202D0002E00D000275B46E4
:103BA000002B07D0089A099B06980799FFF729FA76
:103BB000069007910022002320002900FFF782FAD7
:103BC000002800D07CE03D4B1E9A134004930397DD
:103BD0001C9B0293069B079C0093019453460C9AEE
:103BE0004946404600F086F8002E00D187E71E9B2C
:103BF0009B0671D54525441C5346020049462800C2
:103C0000C0475A46D317D2185A4005230593013EA0
:103C10000496002303930A3302935B46DB0F019360
:103C200000925346220049464046FFF76CFD0A9B2E
:103C3000002B00D163E7020047460C9E1D9D53E018
:103C40001C9B002B9DD00D9B002B9AD01C9B013BF5
:103C50001C9396E7002798E7FFFFEF7FFFFFEFFF3A
:103C600001FCFFFF0000F03FFB799F501344D33F5E
:103C7000B3C8608B288AC63F0000F83F61436F637A
:103C8000A787D23F71A379094F930A400000E03F14
:103C90001655B5BBB16B0240EF39FAFE422EE63F36
:103CA000FF03000000002C400000244000001840EA
:103CB0002D431CEBE2361A3F80842E41FFF7FFFFB5
:103CC000069C079D2200290080200006844661444E
:103CD0000B000692079376E765258CE7541C534644
:103CE00049462020B8472200931BAB42F6D3100070
:103CF00005E7C046F0B5DE4657464E464546E0B5B8
:103D000095B00690079193469946209F1E9A1F9B57
:103D100010001900FFF7F1F9002831D101225242B9
:103D2000BC4B1E981F99FFF7CDF9002837D101220F
:103D30005242B94B1E981F99FFF7DAF900283DD17E
:103D40000022B64B1E981F99FFF7D2F900284AD1DE
:103D50000022B34B1E981F99FFF7B4F9002842D1F7
:103D6000002200231E981F99FFF7ACF900284AD1C2
:103D700000239846229B5B0500D4B0E0002452E06B
:103D8000229B0393219B029303230193A54B009352
:103D90004B465A4607990698FFF7D6FB08E1229B47
:103DA0000393219B0293042301939F4B00934B4663
:103DB0005A4607990698FFF7C7FBF9E0229B5B0775
:103DC0000ED59A4B042222990391219902910192D6
:103DD00000934B465A4607990698FFF7B5FBE7E074
:103DE000934B0322EFE7229B0493219B03930297BB
:103DF0001E9B1F9C009301944B465A4607990698B8
:103E0000FFF766FDD4E01E9A1F9B00200021FFF7FC
:103E1000EEF81E901F9101239846ABE70CAB3022C1
:103E20001A55013F01341F2C01D8092FF6D81E98CE
:103E30001F99FFF78BF90500FFF770F902000B00DF
:103E40001E981F99FFF7D3F87A4BFA009B181A684F
:103E50005B680A920B93FFF7EEF808900991FFF761
:103E600099F90600FFF756F902000B000898099926
:103E7000FFF7BDF80890099100226F4BFFF738F962
:103E800000282ED001363000FFF744F902000B0065
:103E90000A980B99FFF71CF9002801D0013500267C
:103EA000002F2CD12800FFF739F902000B001E98D3
:103EB0001F99FFF79CF806000F0000225E4BFFF7EA
:103EC00001F9002846D100225B4B30003900FFF792
:103ED0000FF900283ED1EB073CD501353AE0062723
:103EE0004CE70022544B08980999FFF7EBF800289B
:103EF000D6D1002E01D0F307D2D50136D0E7AA469D
:103F00001F2C11D8013F0A213000FEF735FE651C39
:103F100030310CAB19550A213000FEF72DFE092E69
:103F20000ED906002C00EBE755461F2C0CD87B1E43
:103F3000002F09D00CAA302111551F000134F4E7DD
:103F40002B0055461C00F0E71F2C03D80CAB2E228B
:103F50001A5501341F2C10D80A212800FEF7E4FD61
:103F6000661C30310CAB19550A212800FEF7DCFD28
:103F7000051E01D03400EDE734000323229A1340DC
:103F8000012B1CD01F2C06D84346002B32D00CAB83
:103F90002D221A550134229B0393219B02930194F5
:103FA0000CAB00934B465A4607990698FFF7CCFA9C
:103FB00015B0F0BCBB46B246A946A046F0BD219B59
:103FC000002B13D04346002B02D10C3313420FD0E9
:103FD000219B013B2193190003E00CAB30221A55C1
:103FE00001348C42CED21F2CF7D9CBE72199F8E7C8
:103FF0002199F6E7229B5B0704D50CAB2B221A55BF
:104000000134C8E7229B1B07C5D50CAB20221A55EB
:104010000134C0E7FFFFEFFFFFFFEF7F65CDCD412C
:1040200065CDCDC1F4430610F8430610E8430610F1
:10403000F0430610909D06100000E03FF0B5DE460C
:1040400057464E464546E0B593B007008A4693462C
:104050001193002900D12CE3002508E06C1C5B467D
:104060002A005146B847119B013311932500119B3B
:104070001878002800D11EE32528EFD101331193D1
:104080000023180020E0012318430132119201247B
:1040900018E00223184301321192012412E0042394
:1040A00018430132119201240CE008231843013215
:1040B0001192012406E010231843013211920124C9
:1040C00000E00024002C09D0119A1378203BD9B2CB
:1040D0001029F6D88B00C449CB589F468146119BC6
:1040E0001A781300303BDBB2092B10D92A2A13D0DF
:1040F0000B94119B1A782E2A20D0119A1378683BC2
:10410000D9B2122965D88B00B849CB589F4611A85F
:10411000FFF708FA0B90ECE71C9B1A1D1C921B681A
:10412000002B04DB0B93119B01331193E1E7022277
:104130000100114389465B420B93F4E78022D200D1
:104140004946114389465A1C11925A781300303B54
:10415000DBB2092B0BD92A2ACFD11C9B1A1D1C922A
:104160001C68002C08DB119B01331193C5E711A8D3
:10417000FFF7D8F90400C0E70024F4E780235B00D0
:1041800049460B43511C119151786C2901D0994635
:104190001FE0C0239B004946194389460232119211
:1041A00017E0802349460B43511C1191517868292F
:1041B00001D099460DE0C023494619438946023291
:1041C000119206E080235B0049461943894601327B
:1041D0001192119B187867281CD8252800D25EE21E
:1041E0000300253BDAB2422A00D958E29300804A04
:1041F000D3589F4680239B00494619438946013284
:104200001192E6E780235B00494619438946013253
:104210001192DEE7782800D941E2692800D23EE217
:104220000200693AD2B201239340724A134210D17C
:104230001A0600D50CE25B0500D430E21C9B1A1D67
:104240001C921E68002C00D0BAE1012252423300B9
:1042500096E16F2842D005D8582841D0622803D172
:10426000022606E078283DD010234A469A4391461C
:104270000A26582838D0692805D0642803D00C2293
:104280004B46934399464B465A0502D50122934328
:10429000994669282DD064282BD04B469A0500D525
:1042A000AAE0DA0500D5C2E05A0600D4D3E01C9A91
:1042B000111D1C911168FF220A404B4605930B9B70
:1042C0000493039402960023019300925B462A0014
:1042D00051463800FFF717FA05002AE00826C8E71C
:1042E0001026C6E71026C4E720224B461343994602
:1042F000C1E74B469A0520D4DA0551D45A0666D553
:104300001C9A111D1C911168FF220A40D017111828
:1043100041404B4605930B9B049303940296D20FA6
:10432000019200915B462A0051463800FFF7EBF9F5
:104330000500119B0133119399E61C9A073207215E
:104340008A43110008311C91116853689C46DB17A1
:104350000C930D930C9A0D9B100048400E900D9BF2
:1043600061464B400F930E980F990C9A0D9B801A43
:1043700099410E900F914B4608930B9B079306941F
:104380000496002305936346DA0F02920090019190
:104390005B462A0051463800FFF713FA0500C8E7CC
:1043A0001C9A111D1C911268D017111841400593D9
:1043B0000B9B049303940296D20F019200915B46EB
:1043C0002A0051463800FFF79EF90500B1E71A06AA
:1043D00005D51C9A111D1C910023D25E96E71C9AEC
:1043E000111D1C91126891E7F49B0610389C061071
:1043F000849C0610419000001C9A073207218A43D2
:10440000110008311C9108930B9B079306940496A6
:1044100000230593029353681268009201935B4650
:104420002A0051463800FFF7CCF9050081E71C9AB5
:10443000111D1C9105930B9B04930394029600237A
:104440000193136800935B462A0051463800FFF73A
:104450005AF905006DE71A0606D51C9A111D1C9124
:1044600012681204120C28E71C9A111D1C91126884
:1044700023E746281AD01C9B0733072293431A00D0
:1044800008321C924A4604920B9A039202941A68CC
:104490005B68009201935B462A0051463800FFF7A3
:1044A00029FC0500119B01331193E0E520234A46C6
:1044B0001A439146DFE7672801D0472804D18023BB
:1044C0001B014A461A439146452801D0472803D18B
:1044D00020234A461A4391461C9B073307229343E5
:1044E0001A0008321C924A4604920B9A03920294D4
:1044F0001A685B68009201935B462A0051463800B7
:10450000FFF7E6F90500119B01331193AFE5022394
:104510004E461E404A4613421ED001241C9B1A1DC3
:104520001C926A1C904618785B462A005146B84790
:10453000002E14D1119B01331193454697E5551C6C
:104540005B4651462020B84723002A005C1C0B998B
:104550009942F4D81500E1E701232A00F6E7424624
:1045600006E0561C5B4651462020B8472C0032001E
:10457000651C0B9BA342F4D89046DBE701330A008D
:104580001978002902D0511E002AF7D19B1B8022E6
:10459000D2004946114088464946114202D0A34202
:1045A00000D92300022249461140109149460A428F
:1045B00008D02A00250099463B004746984626E049
:1045C000220044E6A1462A005146B2460E0006E00B
:1045D000551C5B4631002020B84723002A005C1C94
:1045E0000B999942F4D8150022004C4633005646E8
:1045F0009A4691462A0025003B004746984606E029
:104600001D000136541C5B465146C04722003078DD
:10461000002804D0002FF4D06B1E002DF0D115001F
:104620004B464746109A002A03D1119B0133119340
:104630001DE50B9E2A0006E0551C5B4651462020D6
:10464000B84723002A005C1C9E42F5D81500ECE711
:1046500021234A461A4313001C9A111D1C9112680B
:1046600005930823049303940833029300230193D2
:1046700000925B462A0051463800FFF744F80500D7
:10468000119B01331193F2E46C1C5B462A005146E6
:104690002520B847119B013311932500E7E46C1CDA
:1046A0005B462A005146B847119B01331193250000
:1046B000DDE40A4FD0E45D450DD35B465A1E5B46F0
:1046C00051460020B847280013B0F0BCBB46B246A4
:1046D000A946A046F0BD2A00F1E7C04615350010F6
:1046E0000EB430B584B0010007AC08CC03940122AD
:1046F000054D009452422800FFF7A0FC04B030BCE6
:1047000008BC03B01847C0460D35001010B582B084
:10471000044C009313000A0001002000FFF78EFCF8
:1047200002B010BD0D35001010B584B00C0002A908
:1047300002904C6001240448009313006242FFF78A
:104740007DFC04B010BDC0461735001000BEFDE76B
:1047500003000A4A1268002A08D0084A1068C318E1
:10476000074A9A4206D3054A13607047034A05492F
:104770001160F2E701204042F7E7C046BC6100202B
:1047800000000420F0150120002070470120404265
:104790007047000010B5030008001100002B05D180
:1047A000044B1A685B6800F03FF910BD01204042DD
:1047B000FBE7C046589B061010B503000800140024
:1047C000013B012B06D801230022210000F0E2F872
:1047D000200010BD01204042FBE70120404270470D
:1047E00001204042704701204042704703000020F2
:1047F00002229A424041704710B5FFF7A7FF000020
:1048000030B583B00D001900002A0BD0074B084CBF
:10481000019200932B000200200000F0A9F9012072
:10482000FFF794FF034B1A00F1E7C046004406105F
:1048300010440610FC77061010B5EFF30583002B2B
:1048400000D000BEFEF77AF8034C01E008CC984790
:10485000024B9C42FAD310BD9C350610C835061099
:1048600010B50300080011001B68984710BD000038
:10487000F8B507000D001600437D002B02D0002480
:1048800000200CE003681100280098472DE03B7DD4
:1048900010E03B68154802219847601C0134B4427F
:1048A00014DA002CF3DD2B19013B1B780D3B5A4227
:1048B0005341DBB22A5D0A2AF0D1002BEED1A0428F
:1048C000E7DA3B68211A28189847E2E7B04203DA92
:1048D0003B68311A28189847002E06DDAD19013DB6
:1048E0002B780D3B5A4253413B75F8BDE09D0610B5
:1048F00070B505000368002B16D00C4B1C6805E052
:10490000290004C92000FFF7B3FF2469002C09D057
:104910002368002BF9D0064B1B68002BF0D0A34274
:10492000F3D1EDE700232B6070BDC046AC610020E1
:10493000B861002070B505000C000B68802B05D015
:1049400023685A1C2260E418257170BD0800FFF727
:10495000CFFFF5E710B5FDF7E9FD074A0023121870
:104960004B41002B03DB05485EF0AAFD10BD012280
:104970005242034BF7E7C04640420F00982F0020F9
:10498000FFFFFF7F10B502485EF012FD10BDC0466C
:10499000982F0020F0B5CE46474680B583B006007C
:1049A0000D0090461C00FFF7D5FF81466B1C05D01B
:1049B000002C08D0184F194B1C6807E0300053F04A
:1049C0009BFD0500F4E7164FF5E72469002C17D08E
:1049D0002368002BF9D0134B1B68002B01D0A34296
:1049E000F3D12A0031002000B8474346002BECD019
:1049F0006B46D91D0A230B7001222000B847E4E75B
:104A00004B46002B05D1280003B0C0BCB946B046C8
:104A1000F0BDFFF7B7FFF6E771480010AC6100206A
:104A200061480010B8610020F0B583B006000F00A7
:104A300001920093164B1C6808E0A368002B04D079
:104A4000390030009847002820DC2469002C06D06B
:104A5000104B1D68002DF0D0A542F6D1EDE700996E
:104A60000A000D4B5B6A994209D80B49896A019883
:104A7000814209D29A4202D00220404206E001203F
:104A80000021FDF75BFDD5E70220404203B0F0BDF9
:104A9000AC610020B8610020004005400A4A13685C
:104AA00002E01A0010321B69002B09D01368834200
:104AB000F7D1002907D1036913600023036102E0E5
:104AC000002900D010607047AC61002010B5064B83
:104AD0001C6800E02469002C04D06368002BF9D026
:104AE0009847F7E710BDC046AC61002010B500F054
:104AF000D5F910BD10B582B004006B46D81D047006
:104B0000012300220121FFF745FF200002B010BD64
:104B100070B5050053F0F0FC0400012301220100F0
:104B20002800FFF737FFFFF7D1FF200070BD00001E
:104B3000F0B5A3B004000E00FFF70CFF050001AFB5
:104B4000002301930948330022003900FFF7ECFDF0
:104B500004003800FFF7CCFEFFF7B8FF002D02D1AC
:104B6000200023B0F0BDFFF70DFFF9E73549001035
:104B70000FB400B583B004A901C90191FFF7D8FFB4
:104B800003B008BC04B0184770470000014B002276
:104B90001A707047E21501204B79FF2B0CD18B79ED
:104BA000002B0BD1CB79012B0AD1082A0AD98A789C
:104BB000054B1A70092000E0002070470020FCE738
:104BC0000020FAE70020F8E7E215012001207047F5
:104BD00010B5012927D1117953791B020B431349D1
:104BE00009788B4201D000201EE05378012B03D0BE
:104BF000022B11D0002017E09178D3781B021943C3
:104C0000DB0506D5480A8A05D20F7F231940FDF738
:104C10005FFE01204042F6E7642200210020FDF7FC
:104C2000FFFD012000E0012010BDC046E21501207B
:104C300000487047AC9E061010B51400012910D131
:104C40005378012B0FD1127963791B021343072B81
:104C500001D0002006E0054A9F33210001F05CFBF3
:104C600000E0012010BD0020FCE7C046049E0610B5
:104C70000123037000487047E49D061010B50A78C0
:104C80004B781B0213438A7812041A43CB781B0615
:104C900013439622D200934200D010BD012000227F
:104CA00011004042FDF714FE024B1860024B1960E0
:104CB0007047C046C8520020CC52002010B5FDF706
:104CC00035FC0E4A002312184B41002B12DB0C4816
:104CD0005EF0F6FB00280CD001200021404201F0DC
:104CE000E1F9002001F080FC0028F5D104485EF0D5
:104CF0005FFB10BD01225242024BE8E740420F0029
:104D00007C150120FFFFFF7F10B5024B1878FCF7E0
:104D1000A7FC10BDE315012070B5174B1B68002BD5
:104D200020D0EFF3108272B6100019680029FCD071
:104D3000BFF35F8F10494A60104B00221A700B6856
:104D4000BFF35F8F1A6080F31088002400250C4B9E
:104D50001878FCF761FC002808D100240025200009
:104D6000290070BDFA24A4000025F0E7044B187850
:104D7000FCF776FCF3E7C0469C020120E515012014
:104D8000E3150120F0B585B0060014001D000CAB42
:104D90001F78FDF7CBFB22002B0012184B41002B94
:104DA00009DB02970B9901910A9900913000FDF7F8
:104DB000FFF905B0F0BD01225242014BF1E7C046B8
:104DC000FFFFFF7FF0B5C64600B584B005008846FA
:104DD00016001F000AAB1C78FDF782F902940197B8
:104DE00000962A004346FFF7CDFF04B080BCB846CA
:104DF000F0BD000010B582B0224800215EF030FB0B
:104E000000281ED1204B1B68002B18D0EFF3108117
:104E100072B608001A68002AFCD0BFF35F8F1A4AE6
:104E200051601A490B78DBB201240C701268BFF391
:104E30005F8F0021116080F31088002B17D002B023
:104E400010BD01200021404201F02CF9002001F0AA
:104E5000A3FB04000B485EF0ABFA002CEFD00C4B28
:104E60001B68002BEBD00B4A10689847E7E70A4A0B
:104E7000013300930023FA2080000021FFF7A2FFF6
:104E8000DDE7C0467C1501209C020120E5150120CC
:104E9000C8520020CC520020194D001010B582B02D
:104EA000D0231B061C68FDF71BF9FDF7FBF9A04298
:104EB00030D1274B1B780021002002F057F8254BFA
:104EC0001B68002B2CD00120FCF78EFE224C20709A
:104ED0002249FF231840FCF7F1FB20780121FCF761
:104EE000B5FB0520FCF7CCFB041E1DD00120FCF710
:104EF000EBFA01001A4B1800FCF7E6FE19490022F4
:104F00000520FCF705FC18480121FFF7C7FD20002C
:104F100002B010BD154B164A1648C621FFF770FCAB
:104F20000C48FCF78FFECEE70D4808220021FEF763
:104F3000CDFA114A012300930023FA2080000021BA
:104F4000FFF740FFC043C40F0028E0DADBE7C046AC
:104F50000C310B107C150120E3150120F54D0010DC
:104F60009C020120094D0010701E0020303F0610E9
:104F7000DC9E061040440610194D001010B50020AC
:104F800001F0EEFA10BD000070B505000C00FFF74F
:104F9000F5FF002834D0002001F0FEFA002832D0BE
:104FA000FDF7C4FA1B4A002312184B41002B19DBF2
:104FB00019485EF085FA002828D0FFF7DFFF0028A7
:104FC00004D0002001F0E8FA00280FD101200021D0
:104FD000404201F067F8032464420F485EF0E8F9AC
:104FE000200070BD012252420C4BE1E72200290053
:104FF000002001F0DDFA041EEFD103246442ECE747
:1050000003246442ECE703246442E9E70324644296
:10501000E6E7C04640420F007C150120FFFFFF7FFE
:10502000F0B5C64600B580460C00FDF77FFA314A60
:10503000002312184B41002B07DB2F485EF040FA8B
:10504000002806D180BCB846F0BD012252422B4B4D
:10505000F3E7FFF793FF002849D1294B00200021F7
:105060001860596024485EF0A3F9EBE701200021A5
:10507000404201F017F8002001F0B6FAFFF77EFF7A
:105080000028EFD0002001F02BFB002820D0A54203
:10509000E8DA661B002001F023FB0200864200DCF8
:1050A0003200002AE2D043465919002001F0F4FAF8
:1050B000060001200021404200F0F4FF002001F032
:1050C00093FAAD19FDF732FA0D4B18605960DEE71F
:1050D000FDF72CFA0A4B1E685F680A4A00239219F2
:1050E0007B419942BED8D2D19042D0D9BAE70025AF
:1050F000CDE7C04640420F007C150120FFFFFF7F37
:105100002034002020A1070000487047589F061057
:1051100000487047049F061010B50400154B1B781B
:10512000002B0ED0002C11D1134B144A5A800123AE
:1051300001335B009BB21048C022920013430380EE
:1051400010BD0C48112100F02DF8EBE7052C0ED80E
:105150000B4BA400E4580023122BE9D8E15C002992
:10516000E6D00133044A58008152DBB2F4E7002054
:10517000E6E7C046AC150120C45C0020090400002D
:10518000EC9E061010B5024800F038F810BDC0467D
:105190008812012010B502490822FEF79DF910BDC2
:1051A0008812012010B5002901D0002308E00F4B20
:1051B0000F4A10483B31FFF723FB3732C25401330B
:1051C0004A1E9A420ED90F2B0CD85A080A4CA45CDE
:1051D00001229A43920014410F222240092AECDC5A
:1051E0003032EBE7C0180023037010BDCC4406102A
:1051F0006C9F0610D44406108812012070B588B048
:10520000040004AD0D2200212800FEF75FF90D22F5
:1052100000216846FEF75AF94B232B700D22694690
:1052200028005EF0BDF8002304E05A1D69468A5C40
:10523000E2540133072BF8DD08B070BD70B582B0C1
:105240007F230340C509274C5E0076197601A41917
:10525000A0706842684160700020E0702183E276AF
:10526000012D1ED0D800204A944660441D4A5900A2
:1052700049194901521890601A4A590049194901BF
:105280005218926800211160002B10D1154A5B0062
:105290005B195B01D31800225A60144ADA6002B02D
:1052A00070BDD800124A94466044A060E4E7012D26
:1052B0000BD0591EC9000F4A94466144094A5B004D
:1052C0005B195B01D2185160E9E7591EC9000A4A0F
:1052D00094466144034A5B005B195B01D21851603C
:1052E000DDE7C046C061002084001050000110506E
:1052F000800010500C0010500800105010B5038BA7
:105300003F333F229343C27E022A08D008490A68ED
:10531000C260D3180B60074A934202D810BD5B00ED
:10532000F4E7054B054A06485221FFF769FAC046E3
:105330007C020120FF0F105024470610CC9F06105E
:1053400068470610F8B57F250540C6096B009B1914
:105350005B010E4C1C19FFF771FF002D00D1F8BD49
:105360000A4B6D00AD196D015D19298B2000FFF707
:10537000C5FFEB7E9B06E968054A4A40134380223D
:10538000120613436A681360E9E7C046C061002053
:105390000000105010B504007F202040E4094000B8
:1053A00000194001024BC01800F026F910BDC0469C
:1053B000C061002010B5002804D101210520FCF7B0
:1053C00045F910BD034B044A98210448FF31FFF70B
:1053D00017FAC046D8470610BC9F0610684706104B
:1053E00010B5002805D1002200218020FFF7D2FF50
:1053F00010BD034B034AA2210348FF31FFF700FA17
:10540000D8470610AC9F061068470610024B802252
:105410005202DA647047C0460020115070B5041E75
:1054200027D100F0C7F8164D0C23AB671549FF22B2
:105430000520FCF76DF9144840220021FEF746F8DC
:10544000002240210020FFF77DFF00224021802024
:10545000FFF778FF5EF02CF801232B6480239B0577
:10546000EB649023094AEA502000FFF7CFFF0120A8
:1054700070BD074B074A64210748FF31FFF7C0F9A9
:1054800000001150E5060020C061002010D001008E
:10549000D8470610E09F061068470610044B1970A5
:1054A000002904D0034A902380218902D1507047FB
:1054B000D8150120002011500B785B0602D14B78E3
:1054C000052B00D070478A78014B1A60FAE7C04676
:1054D0000000115010B5CA789207920F012A0AD025
:1054E00088780B794979090219434905490DFFF775
:1054F00029FF012010BD0020FCE710B55DF0D8FFAA
:1055000010BD000010B50400080011001A00002CA6
:1055100003D1FFF73FFF012010BD034B034A812158
:1055200003488900FFF76CF9D84706109C9F0610C6
:105530006847061010B57F23180008400B4205D1BC
:10554000CB09012B0ED00222074B9A66C9094000F5
:1055500040184001054BC0188022120100215DF067
:10556000E7FF10BD0122EFE700201150C0610020CD
:1055700010B57F22100008400A4200D110BDC909B1
:10558000400040184001044BC0180023C3700022A3
:1055900002495DF0CDFFF1E7C0610020FFF7FFFF9A
:1055A00004E00A780270013101301A00531E002A0B
:1055B000F7D1704710B580235B040A4A13600A4A8A
:1055C00013600A4B1A6880235B049343F9D180224D
:1055D000520100210648FDF779FF064B09225A6760
:1055E00010BDC04600E0004000F0004008C0004090
:1055F000000010500000115070B504000D0016009E
:10560000837E002B17D1A6820023E3820133A37689
:10561000256120005DF034FF002804D00C4A90235F
:1056200080218902D15020005DF0E2FE00280AD0DE
:105630000123237770BD81780648FFF799FA20008F
:105640005DF066FFDFE720005DF042FFF2E7C04655
:1056500000201150C848061070B50500002408E06D
:105660009B1A5B01164A9B18DB6828009847013497
:10567000E4B2144B1A782300511CA1420DDBA24264
:10568000EED9114B1B6862019B18002BECD10F491E
:105690000F48104AFFF76CFA10E00F4C542200211B
:1056A0002000FDF713FF201D1022FF21FDF70EFF44
:1056B000200014302022FF21FDF708FF70BDC046F6
:1056C0005CA10610D7150120004B002028A1061070
:1056D0000049061025020000B84C002010B5FFF765
:1056E000BBFF00F065FE10BD70B505000C00160094
:1056F000486900F067FE636932000121280098477D
:1057000070BD0000F0B5DE4657464E464546E0B552
:1057100083B082460139C8B2FFF7FAFC002803D0F3
:1057200043789946022B0CD056495748574AFFF701
:105730001FFA002003B0F0BCBB46B246A946A04603
:10574000F0BDC5796C110122514B14402401197828
:105750001026B14321431970AD112A405201C9B23C
:105760002024A1430A431A70060009368278C378C0
:105770001B02134383469B444B460193370066E06C
:10578000FB7899463A78BF1868E03E493E48414A5E
:10579000FFF7EEF90020CDE7009AD31A5B013E4EE9
:1057A0009E1933692200390050469847082801D9CC
:1057B000844216D20135EDB2384B1B7800955A1C45
:1057C000AA423EDBAB42E7D9354B1B686E019E19FE
:1057D000002EE6D12B492C48324AFFF7C9F90020A8
:1057E000A8E73400009E00904B46012B11D000200A
:1057F000494681421BD9BB781B18DBB2244AD21818
:105800001279FF2A0CD1224AD3181D710130C0B27F
:10581000EFE72169244A9142E9D1019B9946E6E7E5
:1058200018491948214AFFF7A3F9002082E72048C8
:105830002B00009C2200390001F06EFCA446674456
:1058400000E02E00154B1B7801339E420FDC5F45B4
:1058500015D27B780B2B93D0012399467A78042AB2
:1058600093D15B46DA1B93B200251C00A4E7852286
:1058700004490548D200FFF77BF900205AE70120D0
:1058800058E7C046FCA0061000490610D6030000E9
:10589000B84C0020F10300005CA10610D7150120D0
:1058A000004B0020FA0300005D680010190400009E
:1058B000CC4C002070477047002070470020704794
:1058C00070B505000C00CB7888780F2B53D89A0060
:1058D0002E498A589746FFF717FC021E05D012235F
:1058E0002100280000F018FD46E0294929482A4AED
:1058F000FFF73EF900203FE0FFF79AF9021E3CD087
:105900008178C3781B020B432100280000F004FDBE
:1059100032E0022B0CD0FFF7D1FF021E2FD091787E
:10592000D3781B020B432100280000F0F5FC23E094
:10593000FFF7EEFB021EF2D115491648174AFFF792
:1059400017F9002018E02379617909021943FFF75C
:10595000E3FB021E15D003782100280000F0DCFCD8
:105960000AE0FFF7A9FF021E0DD0037821002800EE
:1059700000F0D2FC00E0002070BD0020FCE7002019
:10598000FAE70020F8E70020F6E7C046FC9F061083
:10599000E4A00610004906103A040000610400006B
:1059A0007047704770477047024B5878431E9841C4
:1059B000C0B27047B84C0020024B18784007C00FA7
:1059C0007047C046B84C0020034B1878FF38431E80
:1059D0009841C0B27047C046A41E0020F8B505002B
:1059E0000F00FFF7F1FF061E48D1002F21D02E48EF
:1059F00054220021FDF76AFD2C4B00221A702C4C1A
:105A00002000FCF71FF92B4B1C602B4C2000FCF7EF
:105A100065F9143C200001F019FF284B1C60284B4D
:105A2000002B04D02748FFF723F9274B18600024E8
:105A300010E0E922254926485200FFF799F81DE0B9
:105A40009B1A5B01234A9B185B68002B10D0984778
:105A50000134E4B21B4B1A782300511CA1420FDB26
:105A6000A242EDD9184B1B6862019B18002BEBD1A9
:105A7000F822164916485200FFF77AF83000F8BDB0
:105A8000154B1D7039002800FFF7C8FC061E03D017
:105A90002800FFF78FFCF1E7FC220C490C4852006C
:105AA000FFF766F8EAE7C046B84C0020D915012098
:105AB000B04C00200C4D00209C1E0020104D0020FA
:105AC000714C0010D7150120004B00204CA106108E
:105AD000004906105CA10610A41E002070B50D0040
